{
  "contracts/quorion.sol": {
    "QuorionManager": {
      "abi": [
        {
          "inputs": [],
          "stateMutability": "nonpayable",
          "type": "constructor"
        },
        {
          "inputs": [],
          "name": "AccessControlBadConfirmation",
          "type": "error"
        },
        {
          "inputs": [
            {
              "internalType": "address",
              "name": "account",
              "type": "address"
            },
            {
              "internalType": "bytes32",
              "name": "neededRole",
              "type": "bytes32"
            }
          ],
          "name": "AccessControlUnauthorizedAccount",
          "type": "error"
        },
        {
          "inputs": [],
          "name": "ReentrancyGuardReentrantCall",
          "type": "error"
        },
        {
          "anonymous": false,
          "inputs": [
            {
              "indexed": true,
              "internalType": "uint256",
              "name": "submissionId",
              "type": "uint256"
            },
            {
              "indexed": true,
              "internalType": "uint256",
              "name": "missionId",
              "type": "uint256"
            },
            {
              "indexed": true,
              "internalType": "address",
              "name": "submitter",
              "type": "address"
            },
            {
              "indexed": false,
              "internalType": "string[]",
              "name": "imageUrls",
              "type": "string[]"
            }
          ],
          "name": "DataSubmitted",
          "type": "event"
        },
        {
          "anonymous": false,
          "inputs": [
            {
              "indexed": true,
              "internalType": "uint256",
              "name": "missionId",
              "type": "uint256"
            },
            {
              "indexed": true,
              "internalType": "address",
              "name": "creator",
              "type": "address"
            },
            {
              "indexed": false,
              "internalType": "string",
              "name": "instructionsUrl",
              "type": "string"
            },
            {
              "indexed": false,
              "internalType": "string",
              "name": "dataType",
              "type": "string"
            },
            {
              "indexed": false,
              "internalType": "uint256",
              "name": "rewardPerSubmission",
              "type": "uint256"
            },
            {
              "indexed": false,
              "internalType": "uint256",
              "name": "totalRewardPool",
              "type": "uint256"
            }
          ],
          "name": "MissionCreated",
          "type": "event"
        },
        {
          "anonymous": false,
          "inputs": [
            {
              "indexed": true,
              "internalType": "uint256",
              "name": "missionId",
              "type": "uint256"
            },
            {
              "indexed": false,
              "internalType": "bool",
              "name": "isActive",
              "type": "bool"
            }
          ],
          "name": "MissionStatusChanged",
          "type": "event"
        },
        {
          "anonymous": false,
          "inputs": [
            {
              "indexed": true,
              "internalType": "uint256",
              "name": "submissionId",
              "type": "uint256"
            },
            {
              "indexed": true,
              "internalType": "address",
              "name": "submitter",
              "type": "address"
            },
            {
              "indexed": false,
              "internalType": "uint256",
              "name": "amount",
              "type": "uint256"
            }
          ],
          "name": "RewardPaid",
          "type": "event"
        },
        {
          "anonymous": false,
          "inputs": [
            {
              "indexed": true,
              "internalType": "bytes32",
              "name": "role",
              "type": "bytes32"
            },
            {
              "indexed": true,
              "internalType": "bytes32",
              "name": "previousAdminRole",
              "type": "bytes32"
            },
            {
              "indexed": true,
              "internalType": "bytes32",
              "name": "newAdminRole",
              "type": "bytes32"
            }
          ],
          "name": "RoleAdminChanged",
          "type": "event"
        },
        {
          "anonymous": false,
          "inputs": [
            {
              "indexed": true,
              "internalType": "bytes32",
              "name": "role",
              "type": "bytes32"
            },
            {
              "indexed": true,
              "internalType": "address",
              "name": "account",
              "type": "address"
            },
            {
              "indexed": true,
              "internalType": "address",
              "name": "sender",
              "type": "address"
            }
          ],
          "name": "RoleGranted",
          "type": "event"
        },
        {
          "anonymous": false,
          "inputs": [
            {
              "indexed": true,
              "internalType": "bytes32",
              "name": "role",
              "type": "bytes32"
            },
            {
              "indexed": true,
              "internalType": "address",
              "name": "account",
              "type": "address"
            },
            {
              "indexed": true,
              "internalType": "address",
              "name": "sender",
              "type": "address"
            }
          ],
          "name": "RoleRevoked",
          "type": "event"
        },
        {
          "anonymous": false,
          "inputs": [
            {
              "indexed": true,
              "internalType": "uint256",
              "name": "submissionId",
              "type": "uint256"
            },
            {
              "indexed": true,
              "internalType": "address",
              "name": "validator",
              "type": "address"
            },
            {
              "indexed": false,
              "internalType": "enum QuorionManager.SubmissionStatus",
              "name": "status",
              "type": "uint8"
            }
          ],
          "name": "SubmissionValidated",
          "type": "event"
        },
        {
          "anonymous": false,
          "inputs": [
            {
              "indexed": true,
              "internalType": "address",
              "name": "account",
              "type": "address"
            }
          ],
          "name": "ValidatorAdded",
          "type": "event"
        },
        {
          "anonymous": false,
          "inputs": [
            {
              "indexed": true,
              "internalType": "address",
              "name": "account",
              "type": "address"
            }
          ],
          "name": "ValidatorRemoved",
          "type": "event"
        },
        {
          "stateMutability": "payable",
          "type": "fallback"
        },
        {
          "inputs": [],
          "name": "DEFAULT_ADMIN_ROLE",
          "outputs": [
            {
              "internalType": "bytes32",
              "name": "",
              "type": "bytes32"
            }
          ],
          "stateMutability": "view",
          "type": "function"
        },
        {
          "inputs": [],
          "name": "MAX_REWARD_POOL",
          "outputs": [
            {
              "internalType": "uint256",
              "name": "",
              "type": "uint256"
            }
          ],
          "stateMutability": "view",
          "type": "function"
        },
        {
          "inputs": [],
          "name": "VALIDATOR_ROLE",
          "outputs": [
            {
              "internalType": "bytes32",
              "name": "",
              "type": "bytes32"
            }
          ],
          "stateMutability": "view",
          "type": "function"
        },
        {
          "inputs": [
            {
              "internalType": "address",
              "name": "_account",
              "type": "address"
            }
          ],
          "name": "addValidator",
          "outputs": [],
          "stateMutability": "nonpayable",
          "type": "function"
        },
        {
          "inputs": [
            {
              "internalType": "string",
              "name": "_instructionsUrl",
              "type": "string"
            },
            {
              "internalType": "string",
              "name": "_dataType",
              "type": "string"
            },
            {
              "internalType": "uint256",
              "name": "_rewardPerSubmission",
              "type": "uint256"
            }
          ],
          "name": "createMission",
          "outputs": [
            {
              "internalType": "uint256",
              "name": "missionId",
              "type": "uint256"
            }
          ],
          "stateMutability": "payable",
          "type": "function"
        },
        {
          "inputs": [
            {
              "internalType": "address payable",
              "name": "_to",
              "type": "address"
            },
            {
              "internalType": "uint256",
              "name": "_amount",
              "type": "uint256"
            }
          ],
          "name": "emergencyWithdrawFTN",
          "outputs": [],
          "stateMutability": "nonpayable",
          "type": "function"
        },
        {
          "inputs": [],
          "name": "getContractFTNBalance",
          "outputs": [
            {
              "internalType": "uint256",
              "name": "",
              "type": "uint256"
            }
          ],
          "stateMutability": "view",
          "type": "function"
        },
        {
          "inputs": [
            {
              "internalType": "uint256",
              "name": "_missionId",
              "type": "uint256"
            }
          ],
          "name": "getMission",
          "outputs": [
            {
              "components": [
                {
                  "internalType": "uint256",
                  "name": "id",
                  "type": "uint256"
                },
                {
                  "internalType": "address",
                  "name": "creator",
                  "type": "address"
                },
                {
                  "internalType": "string",
                  "name": "instructionsUrl",
                  "type": "string"
                },
                {
                  "internalType": "string",
                  "name": "dataType",
                  "type": "string"
                },
                {
                  "internalType": "uint256",
                  "name": "rewardPerSubmission",
                  "type": "uint256"
                },
                {
                  "internalType": "uint256",
                  "name": "totalRewardPool",
                  "type": "uint256"
                },
                {
                  "internalType": "uint256",
                  "name": "remainingPool",
                  "type": "uint256"
                },
                {
                  "internalType": "bool",
                  "name": "isActive",
                  "type": "bool"
                },
                {
                  "internalType": "uint256",
                  "name": "submissionCount",
                  "type": "uint256"
                },
                {
                  "internalType": "uint256",
                  "name": "acceptedSubmissionCount",
                  "type": "uint256"
                }
              ],
              "internalType": "struct QuorionManager.Mission",
              "name": "",
              "type": "tuple"
            }
          ],
          "stateMutability": "view",
          "type": "function"
        },
        {
          "inputs": [],
          "name": "getMissionCount",
          "outputs": [
            {
              "internalType": "uint256",
              "name": "",
              "type": "uint256"
            }
          ],
          "stateMutability": "view",
          "type": "function"
        },
        {
          "inputs": [
            {
              "internalType": "bytes32",
              "name": "role",
              "type": "bytes32"
            }
          ],
          "name": "getRoleAdmin",
          "outputs": [
            {
              "internalType": "bytes32",
              "name": "",
              "type": "bytes32"
            }
          ],
          "stateMutability": "view",
          "type": "function"
        },
        {
          "inputs": [
            {
              "internalType": "uint256",
              "name": "_submissionId",
              "type": "uint256"
            }
          ],
          "name": "getSubmission",
          "outputs": [
            {
              "components": [
                {
                  "internalType": "uint256",
                  "name": "id",
                  "type": "uint256"
                },
                {
                  "internalType": "uint256",
                  "name": "missionId",
                  "type": "uint256"
                },
                {
                  "internalType": "address",
                  "name": "submitter",
                  "type": "address"
                },
                {
                  "internalType": "string[]",
                  "name": "imageUrls",
                  "type": "string[]"
                },
                {
                  "internalType": "uint256",
                  "name": "timestamp",
                  "type": "uint256"
                },
                {
                  "internalType": "enum QuorionManager.SubmissionStatus",
                  "name": "status",
                  "type": "uint8"
                },
                {
                  "internalType": "address",
                  "name": "validator",
                  "type": "address"
                },
                {
                  "internalType": "uint256",
                  "name": "validationTimestamp",
                  "type": "uint256"
                }
              ],
              "internalType": "struct QuorionManager.Submission",
              "name": "",
              "type": "tuple"
            }
          ],
          "stateMutability": "view",
          "type": "function"
        },
        {
          "inputs": [],
          "name": "getSubmissionCount",
          "outputs": [
            {
              "internalType": "uint256",
              "name": "",
              "type": "uint256"
            }
          ],
          "stateMutability": "view",
          "type": "function"
        },
        {
          "inputs": [
            {
              "internalType": "address",
              "name": "_user",
              "type": "address"
            }
          ],
          "name": "getSubmissionsByUser",
          "outputs": [
            {
              "internalType": "uint256[]",
              "name": "",
              "type": "uint256[]"
            }
          ],
          "stateMutability": "view",
          "type": "function"
        },
        {
          "inputs": [
            {
              "internalType": "uint256",
              "name": "_missionId",
              "type": "uint256"
            }
          ],
          "name": "getSubmissionsForMission",
          "outputs": [
            {
              "internalType": "uint256[]",
              "name": "",
              "type": "uint256[]"
            }
          ],
          "stateMutability": "view",
          "type": "function"
        },
        {
          "inputs": [
            {
              "internalType": "bytes32",
              "name": "role",
              "type": "bytes32"
            },
            {
              "internalType": "address",
              "name": "account",
              "type": "address"
            }
          ],
          "name": "grantRole",
          "outputs": [],
          "stateMutability": "nonpayable",
          "type": "function"
        },
        {
          "inputs": [
            {
              "internalType": "bytes32",
              "name": "role",
              "type": "bytes32"
            },
            {
              "internalType": "address",
              "name": "account",
              "type": "address"
            }
          ],
          "name": "hasRole",
          "outputs": [
            {
              "internalType": "bool",
              "name": "",
              "type": "bool"
            }
          ],
          "stateMutability": "view",
          "type": "function"
        },
        {
          "inputs": [
            {
              "internalType": "address",
              "name": "_account",
              "type": "address"
            }
          ],
          "name": "isValidator",
          "outputs": [
            {
              "internalType": "bool",
              "name": "",
              "type": "bool"
            }
          ],
          "stateMutability": "view",
          "type": "function"
        },
        {
          "inputs": [
            {
              "internalType": "uint256",
              "name": "",
              "type": "uint256"
            },
            {
              "internalType": "uint256",
              "name": "",
              "type": "uint256"
            }
          ],
          "name": "missionSubmissions",
          "outputs": [
            {
              "internalType": "uint256",
              "name": "",
              "type": "uint256"
            }
          ],
          "stateMutability": "view",
          "type": "function"
        },
        {
          "inputs": [
            {
              "internalType": "uint256",
              "name": "",
              "type": "uint256"
            }
          ],
          "name": "missions",
          "outputs": [
            {
              "internalType": "uint256",
              "name": "id",
              "type": "uint256"
            },
            {
              "internalType": "address",
              "name": "creator",
              "type": "address"
            },
            {
              "internalType": "string",
              "name": "instructionsUrl",
              "type": "string"
            },
            {
              "internalType": "string",
              "name": "dataType",
              "type": "string"
            },
            {
              "internalType": "uint256",
              "name": "rewardPerSubmission",
              "type": "uint256"
            },
            {
              "internalType": "uint256",
              "name": "totalRewardPool",
              "type": "uint256"
            },
            {
              "internalType": "uint256",
              "name": "remainingPool",
              "type": "uint256"
            },
            {
              "internalType": "bool",
              "name": "isActive",
              "type": "bool"
            },
            {
              "internalType": "uint256",
              "name": "submissionCount",
              "type": "uint256"
            },
            {
              "internalType": "uint256",
              "name": "acceptedSubmissionCount",
              "type": "uint256"
            }
          ],
          "stateMutability": "view",
          "type": "function"
        },
        {
          "inputs": [
            {
              "internalType": "address",
              "name": "_account",
              "type": "address"
            }
          ],
          "name": "removeValidator",
          "outputs": [],
          "stateMutability": "nonpayable",
          "type": "function"
        },
        {
          "inputs": [
            {
              "internalType": "bytes32",
              "name": "role",
              "type": "bytes32"
            },
            {
              "internalType": "address",
              "name": "callerConfirmation",
              "type": "address"
            }
          ],
          "name": "renounceRole",
          "outputs": [],
          "stateMutability": "nonpayable",
          "type": "function"
        },
        {
          "inputs": [
            {
              "internalType": "bytes32",
              "name": "role",
              "type": "bytes32"
            },
            {
              "internalType": "address",
              "name": "account",
              "type": "address"
            }
          ],
          "name": "revokeRole",
          "outputs": [],
          "stateMutability": "nonpayable",
          "type": "function"
        },
        {
          "inputs": [
            {
              "internalType": "uint256",
              "name": "_missionId",
              "type": "uint256"
            },
            {
              "internalType": "bool",
              "name": "_isActive",
              "type": "bool"
            }
          ],
          "name": "setMissionActiveStatus",
          "outputs": [],
          "stateMutability": "nonpayable",
          "type": "function"
        },
        {
          "inputs": [
            {
              "internalType": "uint256",
              "name": "",
              "type": "uint256"
            }
          ],
          "name": "submissions",
          "outputs": [
            {
              "internalType": "uint256",
              "name": "id",
              "type": "uint256"
            },
            {
              "internalType": "uint256",
              "name": "missionId",
              "type": "uint256"
            },
            {
              "internalType": "address",
              "name": "submitter",
              "type": "address"
            },
            {
              "internalType": "uint256",
              "name": "timestamp",
              "type": "uint256"
            },
            {
              "internalType": "enum QuorionManager.SubmissionStatus",
              "name": "status",
              "type": "uint8"
            },
            {
              "internalType": "address",
              "name": "validator",
              "type": "address"
            },
            {
              "internalType": "uint256",
              "name": "validationTimestamp",
              "type": "uint256"
            }
          ],
          "stateMutability": "view",
          "type": "function"
        },
        {
          "inputs": [
            {
              "internalType": "uint256",
              "name": "_missionId",
              "type": "uint256"
            },
            {
              "internalType": "string[]",
              "name": "_imageUrls",
              "type": "string[]"
            }
          ],
          "name": "submitData",
          "outputs": [
            {
              "internalType": "uint256",
              "name": "submissionId",
              "type": "uint256"
            }
          ],
          "stateMutability": "nonpayable",
          "type": "function"
        },
        {
          "inputs": [
            {
              "internalType": "bytes4",
              "name": "interfaceId",
              "type": "bytes4"
            }
          ],
          "name": "supportsInterface",
          "outputs": [
            {
              "internalType": "bool",
              "name": "",
              "type": "bool"
            }
          ],
          "stateMutability": "view",
          "type": "function"
        },
        {
          "inputs": [
            {
              "internalType": "address",
              "name": "",
              "type": "address"
            },
            {
              "internalType": "uint256",
              "name": "",
              "type": "uint256"
            }
          ],
          "name": "userSubmissions",
          "outputs": [
            {
              "internalType": "uint256",
              "name": "",
              "type": "uint256"
            }
          ],
          "stateMutability": "view",
          "type": "function"
        },
        {
          "inputs": [
            {
              "internalType": "uint256",
              "name": "_submissionId",
              "type": "uint256"
            },
            {
              "internalType": "bool",
              "name": "_accept",
              "type": "bool"
            }
          ],
          "name": "validateSubmission",
          "outputs": [],
          "stateMutability": "nonpayable",
          "type": "function"
        },
        {
          "stateMutability": "payable",
          "type": "receive"
        }
      ],
      "evm": {
        "bytecode": {
          "linkReferences": {},
          "object": "6080604052600160025560016003553480156200001b57600080fd5b5060018081905550620000386000801b33620000b560201b60201c565b506200006b7f21702c8af46127c7fa207f89d0b0a8441bb32959a0ac7df790e9ab1a25c9892633620000b560201b60201c565b503373ffffffffffffffffffffffffffffffffffffffff167fe366c1c0452ed8eec96861e9e54141ebff23c9ec89fe27b996b45f5ec388498760405160405180910390a26200022a565b6000620000c98383620001b860201b60201c565b620001ad57600160008085815260200190815260200160002060000160008473ffffffffffffffffffffffffffffffffffffffff1673ffffffffffffffffffffffffffffffffffffffff16815260200190815260200160002060006101000a81548160ff021916908315150217905550620001496200022260201b60201c565b73ffffffffffffffffffffffffffffffffffffffff168273ffffffffffffffffffffffffffffffffffffffff16847f2f8788117e7eff1d82e926ec794901d17c78024a50270940304540a733656f0d60405160405180910390a460019050620001b2565b600090505b92915050565b600080600084815260200190815260200160002060000160008373ffffffffffffffffffffffffffffffffffffffff1673ffffffffffffffffffffffffffffffffffffffff16815260200190815260200160002060009054906101000a900460ff16905092915050565b600033905090565b6142b4806200023a6000396000f3fe6080604052600436106101bb5760003560e01c80639999d2ae116100ec578063d547741f1161008a578063e694e2b711610064578063e694e2b7146106bf578063eb2b94b5146106fc578063ee10c37014610739578063facd743b14610762576101c2565b8063d547741f14610640578063d64f886914610669578063e211e4a414610694576101c2565b8063ad73349e116100c6578063ad73349e1461056c578063b9011523146105af578063c49baebe146105ec578063cf14522b14610617576101c2565b80639999d2ae146104d95780639b7e018014610504578063a217fddf14610541576101c2565b806340a141ff116101595780634d238c8e116101335780634d238c8e1461040657806354ffc90c1461042f5780637e6acdf81461045f57806391d148541461049c576101c2565b806340a141ff1461037557806347304d861461039e5780634a56e45b146103c9576101c2565b80632c8fe526116101955780632c8fe526146102a05780632f2ff15d146102e657806336568abe1461030f5780633e8686cc14610338576101c2565b806301ffc9a7146101fd57806312075a171461023a578063248a9ca314610263576101c2565b366101c257005b6040517f08c379a00000000000000000000000000000000000000000000000000000000081526004016101f4906127c2565b60405180910390fd5b34801561020957600080fd5b50610224600480360381019061021f919061284e565b61079f565b6040516102319190612896565b60405180910390f35b34801561024657600080fd5b50610261600480360381019061025c9190612945565b610819565b005b34801561026f57600080fd5b5061028a600480360381019061028591906129bb565b6109a6565b60405161029791906129f7565b60405180910390f35b3480156102ac57600080fd5b506102c760048036038101906102c29190612a12565b6109c5565b6040516102dd9a99989796959493929190612aee565b60405180910390f35b3480156102f257600080fd5b5061030d60048036038101906103089190612bc4565b610b56565b005b34801561031b57600080fd5b5061033660048036038101906103319190612bc4565b610b78565b005b34801561034457600080fd5b5061035f600480360381019061035a9190612a12565b610bf3565b60405161036c9190612e55565b60405180910390f35b34801561038157600080fd5b5061039c60048036038101906103979190612e77565b610e09565b005b3480156103aa57600080fd5b506103b3610e87565b6040516103c09190612ea4565b60405180910390f35b3480156103d557600080fd5b506103f060048036038101906103eb9190612a12565b610e95565b6040516103fd9190612f6e565b60405180910390f35b34801561041257600080fd5b5061042d60048036038101906104289190612e77565b610f00565b005b610449600480360381019061044491906130c5565b610f7e565b6040516104569190612ea4565b60405180910390f35b34801561046b57600080fd5b5061048660048036038101906104819190613150565b6112a8565b6040516104939190612ea4565b60405180910390f35b3480156104a857600080fd5b506104c360048036038101906104be9190612bc4565b6112d9565b6040516104d09190612896565b60405180910390f35b3480156104e557600080fd5b506104ee611343565b6040516104fb9190612ea4565b60405180910390f35b34801561051057600080fd5b5061052b60048036038101906105269190613190565b611359565b6040516105389190612ea4565b60405180910390f35b34801561054d57600080fd5b5061055661138a565b60405161056391906129f7565b60405180910390f35b34801561057857600080fd5b50610593600480360381019061058e9190612a12565b611391565b6040516105a697969594939291906131df565b60405180910390f35b3480156105bb57600080fd5b506105d660048036038101906105d19190612e77565b611420565b6040516105e39190612f6e565b60405180910390f35b3480156105f857600080fd5b506106016114b7565b60405161060e91906129f7565b60405180910390f35b34801561062357600080fd5b5061063e6004803603810190610639919061327a565b6114db565b005b34801561064c57600080fd5b5061066760048036038101906106629190612bc4565b6119d3565b005b34801561067557600080fd5b5061067e6119f5565b60405161068b9190612ea4565b60405180910390f35b3480156106a057600080fd5b506106a9611a0b565b6040516106b69190612ea4565b60405180910390f35b3480156106cb57600080fd5b506106e660048036038101906106e191906133a0565b611a13565b6040516106f39190612ea4565b60405180910390f35b34801561070857600080fd5b50610723600480360381019061071e9190612a12565b611e22565b60405161073091906134ec565b60405180910390f35b34801561074557600080fd5b50610760600480360381019061075b919061327a565b612021565b005b34801561076e57600080fd5b5061078960048036038101906107849190612e77565b6121e7565b6040516107969190612896565b60405180910390f35b60007f7965db0b000000000000000000000000000000000000000000000000000000007bffffffffffffffffffffffffffffffffffffffffffffffffffffffff1916827bffffffffffffffffffffffffffffffffffffffffffffffffffffffff1916148061081257506108118261221a565b5b9050919050565b6000801b61082681612294565b61082e6122a8565b600073ffffffffffffffffffffffffffffffffffffffff168373ffffffffffffffffffffffffffffffffffffffff160361089d576040517f08c379a000000000000000000000000000000000000000000000000000000000815260040161089490613580565b60405180910390fd5b6000821180156108ad5750478211155b6108ec576040517f08c379a00000000000000000000000000000000000000000000000000000000081526004016108e390613612565b60405180910390fd5b60008373ffffffffffffffffffffffffffffffffffffffff168360405161091290613663565b60006040518083038185875af1925050503d806000811461094f576040519150601f19603f3d011682016040523d82523d6000602084013e610954565b606091505b5050905080610998576040517f08c379a000000000000000000000000000000000000000000000000000000000815260040161098f906136ea565b60405180910390fd5b506109a16122ee565b505050565b6000806000838152602001908152602001600020600101549050919050565b60046020528060005260406000206000915090508060000154908060010160009054906101000a900473ffffffffffffffffffffffffffffffffffffffff1690806002018054610a1490613739565b80601f0160208091040260200160405190810160405280929190818152602001828054610a4090613739565b8015610a8d5780601f10610a6257610100808354040283529160200191610a8d565b820191906000526020600020905b815481529060010190602001808311610a7057829003601f168201915b505050505090806003018054610aa290613739565b80601f0160208091040260200160405190810160405280929190818152602001828054610ace90613739565b8015610b1b5780601f10610af057610100808354040283529160200191610b1b565b820191906000526020600020905b815481529060010190602001808311610afe57829003601f168201915b5050505050908060040154908060050154908060060154908060070160009054906101000a900460ff1690806008015490806009015490508a565b610b5f826109a6565b610b6881612294565b610b7283836122f7565b50505050565b610b806123e8565b73ffffffffffffffffffffffffffffffffffffffff168173ffffffffffffffffffffffffffffffffffffffff1614610be4576040517f6697b23200000000000000000000000000000000000000000000000000000000815260040160405180910390fd5b610bee82826123f0565b505050565b610bfb61259d565b600560008381526020019081526020016000206040518061010001604052908160008201548152602001600182015481526020016002820160009054906101000a900473ffffffffffffffffffffffffffffffffffffffff1673ffffffffffffffffffffffffffffffffffffffff1673ffffffffffffffffffffffffffffffffffffffff16815260200160038201805480602002602001604051908101604052809291908181526020016000905b82821015610d55578382906000526020600020018054610cc890613739565b80601f0160208091040260200160405190810160405280929190818152602001828054610cf490613739565b8015610d415780601f10610d1657610100808354040283529160200191610d41565b820191906000526020600020905b815481529060010190602001808311610d2457829003601f168201915b505050505081526020019060010190610ca9565b505050508152602001600482015481526020016005820160009054906101000a900460ff166002811115610d8c57610d8b612d2e565b5b6002811115610d9e57610d9d612d2e565b5b81526020016005820160019054906101000a900473ffffffffffffffffffffffffffffffffffffffff1673ffffffffffffffffffffffffffffffffffffffff1673ffffffffffffffffffffffffffffffffffffffff1681526020016006820154815250509050919050565b6000801b610e1681612294565b610e407f21702c8af46127c7fa207f89d0b0a8441bb32959a0ac7df790e9ab1a25c98926836119d3565b8173ffffffffffffffffffffffffffffffffffffffff167fe1434e25d6611e0db941968fdc97811c982ac1602e951637d206f5fdda9dd8f160405160405180910390a25050565b69152d02c7e14af680000081565b606060066000838152602001908152602001600020805480602002602001604051908101604052809291908181526020018280548015610ef457602002820191906000526020600020905b815481526020019060010190808311610ee0575b50505050509050919050565b6000801b610f0d81612294565b610f377f21702c8af46127c7fa207f89d0b0a8441bb32959a0ac7df790e9ab1a25c9892683610b56565b8173ffffffffffffffffffffffffffffffffffffffff167fe366c1c0452ed8eec96861e9e54141ebff23c9ec89fe27b996b45f5ec388498760405160405180910390a25050565b6000610f886122a8565b6000845111610fcc576040517f08c379a0000000000000000000000000000000000000000000000000000000008152600401610fc3906137dc565b60405180910390fd5b6000835111611010576040517f08c379a000000000000000000000000000000000000000000000000000000000815260040161100790613848565b60405180910390fd5b60008211611053576040517f08c379a000000000000000000000000000000000000000000000000000000000815260040161104a906138b4565b60405180910390fd5b69152d02c7e14af68000003411156110a0576040517f08c379a000000000000000000000000000000000000000000000000000000000815260040161109790613946565b60405180910390fd5b813410156110e3576040517f08c379a00000000000000000000000000000000000000000000000000000000081526004016110da906139d8565b60405180910390fd5b600260008154809291906110f690613a27565b9190505590506040518061014001604052808281526020013373ffffffffffffffffffffffffffffffffffffffff168152602001858152602001848152602001838152602001348152602001348152602001600115158152602001600081526020016000815250600460008381526020019081526020016000206000820151816000015560208201518160010160006101000a81548173ffffffffffffffffffffffffffffffffffffffff021916908373ffffffffffffffffffffffffffffffffffffffff16021790555060408201518160020190816111d69190613c1b565b5060608201518160030190816111ec9190613c1b565b506080820151816004015560a0820151816005015560c0820151816006015560e08201518160070160006101000a81548160ff021916908315150217905550610100820151816008015561012082015181600901559050503373ffffffffffffffffffffffffffffffffffffffff16817fbafb4ae95a6ce9c542ef3bb986e9f17387f06aad676db6bc94135eee6043397f868686346040516112919493929190613ced565b60405180910390a36112a16122ee565b9392505050565b600660205281600052604060002081815481106112c457600080fd5b90600052602060002001600091509150505481565b600080600084815260200190815260200160002060000160008373ffffffffffffffffffffffffffffffffffffffff1673ffffffffffffffffffffffffffffffffffffffff16815260200190815260200160002060009054906101000a900460ff16905092915050565b600060016003546113549190613d40565b905090565b6007602052816000526040600020818154811061137557600080fd5b90600052602060002001600091509150505481565b6000801b81565b60056020528060005260406000206000915090508060000154908060010154908060020160009054906101000a900473ffffffffffffffffffffffffffffffffffffffff16908060040154908060050160009054906101000a900460ff16908060050160019054906101000a900473ffffffffffffffffffffffffffffffffffffffff16908060060154905087565b6060600760008373ffffffffffffffffffffffffffffffffffffffff1673ffffffffffffffffffffffffffffffffffffffff1681526020019081526020016000208054806020026020016040519081016040528092919081815260200182805480156114ab57602002820191906000526020600020905b815481526020019060010190808311611497575b50505050509050919050565b7f21702c8af46127c7fa207f89d0b0a8441bb32959a0ac7df790e9ab1a25c9892681565b6114e36122a8565b7f21702c8af46127c7fa207f89d0b0a8441bb32959a0ac7df790e9ab1a25c9892661150d81612294565b6000600560008581526020019081526020016000209050600073ffffffffffffffffffffffffffffffffffffffff168160020160009054906101000a900473ffffffffffffffffffffffffffffffffffffffff1673ffffffffffffffffffffffffffffffffffffffff16036115b7576040517f08c379a00000000000000000000000000000000000000000000000000000000081526004016115ae90613dc0565b60405180910390fd5b600060028111156115cb576115ca612d2e565b5b8160050160009054906101000a900460ff1660028111156115ef576115ee612d2e565b5b1461162f576040517f08c379a000000000000000000000000000000000000000000000000000000000815260040161162690613e52565b60405180910390fd5b600060046000836001015481526020019081526020016000209050600073ffffffffffffffffffffffffffffffffffffffff168160010160009054906101000a900473ffffffffffffffffffffffffffffffffffffffff1673ffffffffffffffffffffffffffffffffffffffff16036116dd576040517f08c379a00000000000000000000000000000000000000000000000000000000081526004016116d490613ee4565b60405180910390fd5b338260050160016101000a81548173ffffffffffffffffffffffffffffffffffffffff021916908373ffffffffffffffffffffffffffffffffffffffff16021790555042826006018190555083156119465760018260050160006101000a81548160ff0219169083600281111561175757611756612d2e565b5b021790555080600901600081548092919061177190613a27565b91905055503373ffffffffffffffffffffffffffffffffffffffff16857f5fc817c3f59e2b3c58c33eac2615ce22c7af5b3247d3553ce0c3cf3179a7d75260016040516117be9190613f04565b60405180910390a380600401548160060154106119415780600401548160060160008282546117ed9190613d40565b9250508190555060008260020160009054906101000a900473ffffffffffffffffffffffffffffffffffffffff1673ffffffffffffffffffffffffffffffffffffffff16826004015460405161184290613663565b60006040518083038185875af1925050503d806000811461187f576040519150601f19603f3d011682016040523d82523d6000602084013e611884565b606091505b50509050806118c8576040517f08c379a00000000000000000000000000000000000000000000000000000000081526004016118bf90613f6b565b60405180910390fd5b8260020160009054906101000a900473ffffffffffffffffffffffffffffffffffffffff1673ffffffffffffffffffffffffffffffffffffffff16867f04492fab062412e7e4e5f46c9e919f1640652946a5e163ad6e6c1c03d87954d284600401546040516119379190612ea4565b60405180910390a3505b6119c4565b60028260050160006101000a81548160ff0219169083600281111561196e5761196d612d2e565b5b02179055503373ffffffffffffffffffffffffffffffffffffffff16857f5fc817c3f59e2b3c58c33eac2615ce22c7af5b3247d3553ce0c3cf3179a7d75260026040516119bb9190613f04565b60405180910390a35b5050506119cf6122ee565b5050565b6119dc826109a6565b6119e581612294565b6119ef83836123f0565b50505050565b60006001600254611a069190613d40565b905090565b600047905090565b6000611a1d6122a8565b6000600460008581526020019081526020016000209050600073ffffffffffffffffffffffffffffffffffffffff168160010160009054906101000a900473ffffffffffffffffffffffffffffffffffffffff1673ffffffffffffffffffffffffffffffffffffffff1603611ac7576040517f08c379a0000000000000000000000000000000000000000000000000000000008152600401611abe90613fd7565b60405180910390fd5b8060070160009054906101000a900460ff16611b18576040517f08c379a0000000000000000000000000000000000000000000000000000000008152600401611b0f90614069565b60405180910390fd5b6000835111611b5c576040517f08c379a0000000000000000000000000000000000000000000000000000000008152600401611b53906140fb565b60405180910390fd5b60036000815480929190611b6f90613a27565b9190505591506040518061010001604052808381526020018581526020013373ffffffffffffffffffffffffffffffffffffffff16815260200184815260200142815260200160006002811115611bc957611bc8612d2e565b5b8152602001600073ffffffffffffffffffffffffffffffffffffffff168152602001600081525060056000848152602001908152602001600020600082015181600001556020820151816001015560408201518160020160006101000a81548173ffffffffffffffffffffffffffffffffffffffff021916908373ffffffffffffffffffffffffffffffffffffffff1602179055506060820151816003019080519060200190611c7a929190612620565b506080820151816004015560a08201518160050160006101000a81548160ff02191690836002811115611cb057611caf612d2e565b5b021790555060c08201518160050160016101000a81548173ffffffffffffffffffffffffffffffffffffffff021916908373ffffffffffffffffffffffffffffffffffffffff16021790555060e0820151816006015590505060066000858152602001908152602001600020829080600181540180825580915050600190039060005260206000200160009091909190915055600760003373ffffffffffffffffffffffffffffffffffffffff1673ffffffffffffffffffffffffffffffffffffffff168152602001908152602001600020829080600181540180825580915050600190039060005260206000200160009091909190915055806008016000815480929190611dbe90613a27565b91905055503373ffffffffffffffffffffffffffffffffffffffff1684837f86658d7fd18fbe121083b046f1146232962ce224d906b49a1d8f2b2d1d84e95686604051611e0b91906141a1565b60405180910390a450611e1c6122ee565b92915050565b611e2a612679565b6004600083815260200190815260200160002060405180610140016040529081600082015481526020016001820160009054906101000a900473ffffffffffffffffffffffffffffffffffffffff1673ffffffffffffffffffffffffffffffffffffffff1673ffffffffffffffffffffffffffffffffffffffff168152602001600282018054611eb990613739565b80601f0160208091040260200160405190810160405280929190818152602001828054611ee590613739565b8015611f325780601f10611f0757610100808354040283529160200191611f32565b820191906000526020600020905b815481529060010190602001808311611f1557829003601f168201915b50505050508152602001600382018054611f4b90613739565b80601f0160208091040260200160405190810160405280929190818152602001828054611f7790613739565b8015611fc45780601f10611f9957610100808354040283529160200191611fc4565b820191906000526020600020905b815481529060010190602001808311611fa757829003601f168201915b505050505081526020016004820154815260200160058201548152602001600682015481526020016007820160009054906101000a900460ff16151515158152602001600882015481526020016009820154815250509050919050565b6000600460008481526020019081526020016000209050600073ffffffffffffffffffffffffffffffffffffffff168160010160009054906101000a900473ffffffffffffffffffffffffffffffffffffffff1673ffffffffffffffffffffffffffffffffffffffff16036120cb576040517f08c379a00000000000000000000000000000000000000000000000000000000081526004016120c290613fd7565b60405180910390fd5b8060010160009054906101000a900473ffffffffffffffffffffffffffffffffffffffff1673ffffffffffffffffffffffffffffffffffffffff163373ffffffffffffffffffffffffffffffffffffffff16148061213257506121316000801b336112d9565b5b612171576040517f08c379a000000000000000000000000000000000000000000000000000000000815260040161216890614235565b60405180910390fd5b8115158160070160009054906101000a900460ff161515146121e257818160070160006101000a81548160ff021916908315150217905550827f4c933dbe12f0e4c9f63ff7cb04ce9a6ab57870be545e718cca62cf8c9c38d503836040516121d99190612896565b60405180910390a25b505050565b60006122137f21702c8af46127c7fa207f89d0b0a8441bb32959a0ac7df790e9ab1a25c98926836112d9565b9050919050565b60007f7965db0b000000000000000000000000000000000000000000000000000000007bffffffffffffffffffffffffffffffffffffffffffffffffffffffff1916827bffffffffffffffffffffffffffffffffffffffffffffffffffffffff1916148061228d575061228c826124e2565b5b9050919050565b6122a5816122a06123e8565b61254c565b50565b6002600154036122e4576040517f3ee5aeb500000000000000000000000000000000000000000000000000000000815260040160405180910390fd5b6002600181905550565b60018081905550565b600061230383836112d9565b6123dd57600160008085815260200190815260200160002060000160008473ffffffffffffffffffffffffffffffffffffffff1673ffffffffffffffffffffffffffffffffffffffff16815260200190815260200160002060006101000a81548160ff02191690831515021790555061237a6123e8565b73ffffffffffffffffffffffffffffffffffffffff168273ffffffffffffffffffffffffffffffffffffffff16847f2f8788117e7eff1d82e926ec794901d17c78024a50270940304540a733656f0d60405160405180910390a4600190506123e2565b600090505b92915050565b600033905090565b60006123fc83836112d9565b156124d757600080600085815260200190815260200160002060000160008473ffffffffffffffffffffffffffffffffffffffff1673ffffffffffffffffffffffffffffffffffffffff16815260200190815260200160002060006101000a81548160ff0219169083151502179055506124746123e8565b73ffffffffffffffffffffffffffffffffffffffff168273ffffffffffffffffffffffffffffffffffffffff16847ff6391f5c32d9c69d2a47ea670b442974b53935d1edc7fd64eb21e047a839171b60405160405180910390a4600190506124dc565b600090505b92915050565b60007f01ffc9a7000000000000000000000000000000000000000000000000000000007bffffffffffffffffffffffffffffffffffffffffffffffffffffffff1916827bffffffffffffffffffffffffffffffffffffffffffffffffffffffff1916149050919050565b61255682826112d9565b6125995780826040517fe2517d3f000000000000000000000000000000000000000000000000000000008152600401612590929190614255565b60405180910390fd5b5050565b6040518061010001604052806000815260200160008152602001600073ffffffffffffffffffffffffffffffffffffffff1681526020016060815260200160008152602001600060028111156125f6576125f5612d2e565b5b8152602001600073ffffffffffffffffffffffffffffffffffffffff168152602001600081525090565b828054828255906000526020600020908101928215612668579160200282015b828111156126675782518290816126579190613c1b565b5091602001919060010190612640565b5b50905061267591906126e4565b5090565b60405180610140016040528060008152602001600073ffffffffffffffffffffffffffffffffffffffff168152602001606081526020016060815260200160008152602001600081526020016000815260200160001515815260200160008152602001600081525090565b5b8082111561270457600081816126fb9190612708565b506001016126e5565b5090565b50805461271490613739565b6000825580601f106127265750612745565b601f0160209004906000526020600020908101906127449190612748565b5b50565b5b80821115612761576000816000905550600101612749565b5090565b600082825260208201905092915050565b7f51756f72696f6e3a2046756e6374696f6e20646f6573206e6f74206578697374600082015250565b60006127ac602083612765565b91506127b782612776565b602082019050919050565b600060208201905081810360008301526127db8161279f565b9050919050565b6000604051905090565b600080fd5b600080fd5b60007fffffffff0000000000000000000000000000000000000000000000000000000082169050919050565b61282b816127f6565b811461283657600080fd5b50565b60008135905061284881612822565b92915050565b600060208284031215612864576128636127ec565b5b600061287284828501612839565b91505092915050565b60008115159050919050565b6128908161287b565b82525050565b60006020820190506128ab6000830184612887565b92915050565b600073ffffffffffffffffffffffffffffffffffffffff82169050919050565b60006128dc826128b1565b9050919050565b6128ec816128d1565b81146128f757600080fd5b50565b600081359050612909816128e3565b92915050565b6000819050919050565b6129228161290f565b811461292d57600080fd5b50565b60008135905061293f81612919565b92915050565b6000806040838503121561295c5761295b6127ec565b5b600061296a858286016128fa565b925050602061297b85828601612930565b9150509250929050565b6000819050919050565b61299881612985565b81146129a357600080fd5b50565b6000813590506129b58161298f565b92915050565b6000602082840312156129d1576129d06127ec565b5b60006129df848285016129a6565b91505092915050565b6129f181612985565b82525050565b6000602082019050612a0c60008301846129e8565b92915050565b600060208284031215612a2857612a276127ec565b5b6000612a3684828501612930565b91505092915050565b612a488161290f565b82525050565b6000612a59826128b1565b9050919050565b612a6981612a4e565b82525050565b600081519050919050565b60005b83811015612a98578082015181840152602081019050612a7d565b60008484015250505050565b6000601f19601f8301169050919050565b6000612ac082612a6f565b612aca8185612765565b9350612ada818560208601612a7a565b612ae381612aa4565b840191505092915050565b600061014082019050612b04600083018d612a3f565b612b11602083018c612a60565b8181036040830152612b23818b612ab5565b90508181036060830152612b37818a612ab5565b9050612b466080830189612a3f565b612b5360a0830188612a3f565b612b6060c0830187612a3f565b612b6d60e0830186612887565b612b7b610100830185612a3f565b612b89610120830184612a3f565b9b9a5050505050505050505050565b612ba181612a4e565b8114612bac57600080fd5b50565b600081359050612bbe81612b98565b92915050565b60008060408385031215612bdb57612bda6127ec565b5b6000612be9858286016129a6565b9250506020612bfa85828601612baf565b9150509250929050565b612c0d8161290f565b82525050565b612c1c81612a4e565b82525050565b600081519050919050565b600082825260208201905092915050565b6000819050602082019050919050565b600082825260208201905092915050565b6000612c6a82612a6f565b612c748185612c4e565b9350612c84818560208601612a7a565b612c8d81612aa4565b840191505092915050565b6000612ca48383612c5f565b905092915050565b6000602082019050919050565b6000612cc482612c22565b612cce8185612c2d565b935083602082028501612ce085612c3e565b8060005b85811015612d1c5784840389528151612cfd8582612c98565b9450612d0883612cac565b925060208a01995050600181019050612ce4565b50829750879550505050505092915050565b7f4e487b7100000000000000000000000000000000000000000000000000000000600052602160045260246000fd5b60038110612d6e57612d6d612d2e565b5b50565b6000819050612d7f82612d5d565b919050565b6000612d8f82612d71565b9050919050565b612d9f81612d84565b82525050565b600061010083016000830151612dbe6000860182612c04565b506020830151612dd16020860182612c04565b506040830151612de46040860182612c13565b5060608301518482036060860152612dfc8282612cb9565b9150506080830151612e116080860182612c04565b5060a0830151612e2460a0860182612d96565b5060c0830151612e3760c0860182612c13565b5060e0830151612e4a60e0860182612c04565b508091505092915050565b60006020820190508181036000830152612e6f8184612da5565b905092915050565b600060208284031215612e8d57612e8c6127ec565b5b6000612e9b84828501612baf565b91505092915050565b6000602082019050612eb96000830184612a3f565b92915050565b600081519050919050565b600082825260208201905092915050565b6000819050602082019050919050565b6000612ef78383612c04565b60208301905092915050565b6000602082019050919050565b6000612f1b82612ebf565b612f258185612eca565b9350612f3083612edb565b8060005b83811015612f61578151612f488882612eeb565b9750612f5383612f03565b925050600181019050612f34565b5085935050505092915050565b60006020820190508181036000830152612f888184612f10565b905092915050565b600080fd5b600080fd5b7f4e487b7100000000000000000000000000000000000000000000000000000000600052604160045260246000fd5b612fd282612aa4565b810181811067ffffffffffffffff82111715612ff157612ff0612f9a565b5b80604052505050565b60006130046127e2565b90506130108282612fc9565b919050565b600067ffffffffffffffff8211156130305761302f612f9a565b5b61303982612aa4565b9050602081019050919050565b82818337600083830152505050565b600061306861306384613015565b612ffa565b90508281526020810184848401111561308457613083612f95565b5b61308f848285613046565b509392505050565b600082601f8301126130ac576130ab612f90565b5b81356130bc848260208601613055565b91505092915050565b6000806000606084860312156130de576130dd6127ec565b5b600084013567ffffffffffffffff8111156130fc576130fb6127f1565b5b61310886828701613097565b935050602084013567ffffffffffffffff811115613129576131286127f1565b5b61313586828701613097565b925050604061314686828701612930565b9150509250925092565b60008060408385031215613167576131666127ec565b5b600061317585828601612930565b925050602061318685828601612930565b9150509250929050565b600080604083850312156131a7576131a66127ec565b5b60006131b585828601612baf565b92505060206131c685828601612930565b9150509250929050565b6131d981612d84565b82525050565b600060e0820190506131f4600083018a612a3f565b6132016020830189612a3f565b61320e6040830188612a60565b61321b6060830187612a3f565b61322860808301866131d0565b61323560a0830185612a60565b61324260c0830184612a3f565b98975050505050505050565b6132578161287b565b811461326257600080fd5b50565b6000813590506132748161324e565b92915050565b60008060408385031215613291576132906127ec565b5b600061329f85828601612930565b92505060206132b085828601613265565b9150509250929050565b600067ffffffffffffffff8211156132d5576132d4612f9a565b5b602082029050602081019050919050565b600080fd5b60006132fe6132f9846132ba565b612ffa565b90508083825260208201905060208402830185811115613321576133206132e6565b5b835b8181101561336857803567ffffffffffffffff81111561334657613345612f90565b5b8086016133538982613097565b85526020850194505050602081019050613323565b5050509392505050565b600082601f83011261338757613386612f90565b5b81356133978482602086016132eb565b91505092915050565b600080604083850312156133b7576133b66127ec565b5b60006133c585828601612930565b925050602083013567ffffffffffffffff8111156133e6576133e56127f1565b5b6133f285828601613372565b9150509250929050565b6134058161287b565b82525050565b6000610140830160008301516134246000860182612c04565b5060208301516134376020860182612c13565b506040830151848203604086015261344f8282612c5f565b915050606083015184820360608601526134698282612c5f565b915050608083015161347e6080860182612c04565b5060a083015161349160a0860182612c04565b5060c08301516134a460c0860182612c04565b5060e08301516134b760e08601826133fc565b506101008301516134cc610100860182612c04565b506101208301516134e1610120860182612c04565b508091505092915050565b60006020820190508181036000830152613506818461340b565b905092915050565b7f51756f72696f6e3a20496e76616c6964207769746864726177616c206164647260008201527f6573730000000000000000000000000000000000000000000000000000000000602082015250565b600061356a602383612765565b91506135758261350e565b604082019050919050565b600060208201905081810360008301526135998161355d565b9050919050565b7f51756f72696f6e3a20496e76616c6964206f7220696e73756666696369656e7460008201527f20616d6f756e7420666f72207769746864726177616c00000000000000000000602082015250565b60006135fc603683612765565b9150613607826135a0565b604082019050919050565b6000602082019050818103600083015261362b816135ef565b9050919050565b600081905092915050565b50565b600061364d600083613632565b91506136588261363d565b600082019050919050565b600061366e82613640565b9150819050919050565b7f51756f72696f6e3a20456d657267656e63792046544e2077697468647261776160008201527f6c206661696c6564000000000000000000000000000000000000000000000000602082015250565b60006136d4602883612765565b91506136df82613678565b604082019050919050565b60006020820190508181036000830152613703816136c7565b9050919050565b7f4e487b7100000000000000000000000000000000000000000000000000000000600052602260045260246000fd5b6000600282049050600182168061375157607f821691505b6020821081036137645761376361370a565b5b50919050565b7f51756f72696f6e3a20496e737472756374696f6e732055524c2072657175697260008201527f6564000000000000000000000000000000000000000000000000000000000000602082015250565b60006137c6602283612765565b91506137d18261376a565b604082019050919050565b600060208201905081810360008301526137f5816137b9565b9050919050565b7f51756f72696f6e3a204461746120747970652072657175697265640000000000600082015250565b6000613832601b83612765565b915061383d826137fc565b602082019050919050565b6000602082019050818103600083015261386181613825565b9050919050565b7f51756f72696f6e3a20526577617264206d75737420626520706f736974697665600082015250565b600061389e602083612765565b91506138a982613868565b602082019050919050565b600060208201905081810360008301526138cd81613891565b9050919050565b7f51756f72696f6e3a2052657761726420706f6f6c2065786365656473206d617860008201527f696d756d206c696d697400000000000000000000000000000000000000000000602082015250565b6000613930602a83612765565b915061393b826138d4565b604082019050919050565b6000602082019050818103600083015261395f81613923565b9050919050565b7f51756f72696f6e3a20546f74616c20706f6f6c206d75737420636f766572206160008201527f74206c65617374206f6e65207265776172640000000000000000000000000000602082015250565b60006139c2603283612765565b91506139cd82613966565b604082019050919050565b600060208201905081810360008301526139f1816139b5565b9050919050565b7f4e487b7100000000000000000000000000000000000000000000000000000000600052601160045260246000fd5b6000613a328261290f565b91507fffffffffffffffffffffffffffffffffffffffffffffffffffffffffffffffff8203613a6457613a636139f8565b5b600182019050919050565b60008190508160005260206000209050919050565b60006020601f8301049050919050565b600082821b905092915050565b600060088302613ad17fffffffffffffffffffffffffffffffffffffffffffffffffffffffffffffffff82613a94565b613adb8683613a94565b95508019841693508086168417925050509392505050565b6000819050919050565b6000613b18613b13613b0e8461290f565b613af3565b61290f565b9050919050565b6000819050919050565b613b3283613afd565b613b46613b3e82613b1f565b848454613aa1565b825550505050565b600090565b613b5b613b4e565b613b66818484613b29565b505050565b5b81811015613b8a57613b7f600082613b53565b600181019050613b6c565b5050565b601f821115613bcf57613ba081613a6f565b613ba984613a84565b81016020851015613bb8578190505b613bcc613bc485613a84565b830182613b6b565b50505b505050565b600082821c905092915050565b6000613bf260001984600802613bd4565b1980831691505092915050565b6000613c0b8383613be1565b9150826002028217905092915050565b613c2482612a6f565b67ffffffffffffffff811115613c3d57613c3c612f9a565b5b613c478254613739565b613c52828285613b8e565b600060209050601f831160018114613c855760008415613c73578287015190505b613c7d8582613bff565b865550613ce5565b601f198416613c9386613a6f565b60005b82811015613cbb57848901518255600182019150602085019450602081019050613c96565b86831015613cd85784890151613cd4601f891682613be1565b8355505b6001600288020188555050505b505050505050565b60006080820190508181036000830152613d078187612ab5565b90508181036020830152613d1b8186612ab5565b9050613d2a6040830185612a3f565b613d376060830184612a3f565b95945050505050565b6000613d4b8261290f565b9150613d568361290f565b9250828203905081811115613d6e57613d6d6139f8565b5b92915050565b7f51756f72696f6e3a205375626d697373696f6e206e6f7420666f756e64000000600082015250565b6000613daa601d83612765565b9150613db582613d74565b602082019050919050565b60006020820190508181036000830152613dd981613d9d565b9050919050565b7f51756f72696f6e3a205375626d697373696f6e20616c72656164792076616c6960008201527f6461746564000000000000000000000000000000000000000000000000000000602082015250565b6000613e3c602583612765565b9150613e4782613de0565b604082019050919050565b60006020820190508181036000830152613e6b81613e2f565b9050919050565b7f51756f72696f6e3a204173736f636961746564206d697373696f6e206e6f742060008201527f666f756e64000000000000000000000000000000000000000000000000000000602082015250565b6000613ece602583612765565b9150613ed982613e72565b604082019050919050565b60006020820190508181036000830152613efd81613ec1565b9050919050565b6000602082019050613f1960008301846131d0565b92915050565b7f51756f72696f6e3a2046544e207472616e73666572206661696c656400000000600082015250565b6000613f55601c83612765565b9150613f6082613f1f565b602082019050919050565b60006020820190508181036000830152613f8481613f48565b9050919050565b7f51756f72696f6e3a204d697373696f6e206e6f7420666f756e64000000000000600082015250565b6000613fc1601a83612765565b9150613fcc82613f8b565b602082019050919050565b60006020820190508181036000830152613ff081613fb4565b9050919050565b7f51756f72696f6e3a204d697373696f6e206973206e6f74206163746976652c2060008201527f63616e6e6f74207375626d697400000000000000000000000000000000000000602082015250565b6000614053602d83612765565b915061405e82613ff7565b604082019050919050565b6000602082019050818103600083015261408281614046565b9050919050565b7f51756f72696f6e3a204174206c65617374206f6e6520696d6167652055524c2060008201527f7265717569726564000000000000000000000000000000000000000000000000602082015250565b60006140e5602883612765565b91506140f082614089565b604082019050919050565b60006020820190508181036000830152614114816140d8565b9050919050565b600082825260208201905092915050565b600061413782612c22565b614141818561411b565b93508360208202850161415385612c3e565b8060005b8581101561418f57848403895281516141708582612c98565b945061417b83612cac565b925060208a01995050600181019050614157565b50829750879550505050505092915050565b600060208201905081810360008301526141bb818461412c565b905092915050565b7f51756f72696f6e3a204e6f7420617574686f72697a656420746f206368616e6760008201527f6520737461747573000000000000000000000000000000000000000000000000602082015250565b600061421f602883612765565b915061422a826141c3565b604082019050919050565b6000602082019050818103600083015261424e81614212565b9050919050565b600060408201905061426a6000830185612a60565b61427760208301846129e8565b939250505056fea2646970667358221220408c4648810e5a4fcf166ddb4918f1b1af9f34bc3a9e344ae2599d546ced4af164736f6c63430008140033",
          "opcodes": "PUSH1 0x80 PUSH1 0x40 MSTORE PUSH1 0x1 PUSH1 0x2 SSTORE PUSH1 0x1 PUSH1 0x3 SSTORE CALLVALUE DUP1 ISZERO PUSH3 0x1B JUMPI PUSH1 0x0 DUP1 REVERT JUMPDEST POP PUSH1 0x1 DUP1 DUP2 SWAP1 SSTORE POP PUSH3 0x38 PUSH1 0x0 DUP1 SHL CALLER PUSH3 0xB5 PUSH1 0x20 SHL PUSH1 0x20 SHR JUMP JUMPDEST POP PUSH3 0x6B PUSH32 0x21702C8AF46127C7FA207F89D0B0A8441BB32959A0AC7DF790E9AB1A25C98926 CALLER PUSH3 0xB5 PUSH1 0x20 SHL PUSH1 0x20 SHR JUMP JUMPDEST POP CALLER PUSH20 0xFFFFFFFFFFFFFFFFFFFFFFFFFFFFFFFFFFFFFFFF AND PUSH32 0xE366C1C0452ED8EEC96861E9E54141EBFF23C9EC89FE27B996B45F5EC3884987 PUSH1 0x40 MLOAD PUSH1 0x40 MLOAD DUP1 SWAP2 SUB SWAP1 LOG2 PUSH3 0x22A JUMP JUMPDEST PUSH1 0x0 PUSH3 0xC9 DUP4 DUP4 PUSH3 0x1B8 PUSH1 0x20 SHL PUSH1 0x20 SHR JUMP JUMPDEST PUSH3 0x1AD JUMPI PUSH1 0x1 PUSH1 0x0 DUP1 DUP6 DUP2 MSTORE PUSH1 0x20 ADD SWAP1 DUP2 MSTORE PUSH1 0x20 ADD PUSH1 0x0 KECCAK256 PUSH1 0x0 ADD PUSH1 0x0 DUP5 PUSH20 0xFFFFFFFFFFFFFFFFFFFFFFFFFFFFFFFFFFFFFFFF AND PUSH20 0xFFFFFFFFFFFFFFFFFFFFFFFFFFFFFFFFFFFFFFFF AND DUP2 MSTORE PUSH1 0x20 ADD SWAP1 DUP2 MSTORE PUSH1 0x20 ADD PUSH1 0x0 KECCAK256 PUSH1 0x0 PUSH2 0x100 EXP DUP2 SLOAD DUP2 PUSH1 0xFF MUL NOT AND SWAP1 DUP4 ISZERO ISZERO MUL OR SWAP1 SSTORE POP PUSH3 0x149 PUSH3 0x222 PUSH1 0x20 SHL PUSH1 0x20 SHR JUMP JUMPDEST PUSH20 0xFFFFFFFFFFFFFFFFFFFFFFFFFFFFFFFFFFFFFFFF AND DUP3 PUSH20 0xFFFFFFFFFFFFFFFFFFFFFFFFFFFFFFFFFFFFFFFF AND DUP5 PUSH32 0x2F8788117E7EFF1D82E926EC794901D17C78024A50270940304540A733656F0D PUSH1 0x40 MLOAD PUSH1 0x40 MLOAD DUP1 SWAP2 SUB SWAP1 LOG4 PUSH1 0x1 SWAP1 POP PUSH3 0x1B2 JUMP JUMPDEST PUSH1 0x0 SWAP1 POP JUMPDEST SWAP3 SWAP2 POP POP JUMP JUMPDEST PUSH1 0x0 DUP1 PUSH1 0x0 DUP5 DUP2 MSTORE PUSH1 0x20 ADD SWAP1 DUP2 MSTORE PUSH1 0x20 ADD PUSH1 0x0 KECCAK256 PUSH1 0x0 ADD PUSH1 0x0 DUP4 PUSH20 0xFFFFFFFFFFFFFFFFFFFFFFFFFFFFFFFFFFFFFFFF AND PUSH20 0xFFFFFFFFFFFFFFFFFFFFFFFFFFFFFFFFFFFFFFFF AND DUP2 MSTORE PUSH1 0x20 ADD SWAP1 DUP2 MSTORE PUSH1 0x20 ADD PUSH1 0x0 KECCAK256 PUSH1 0x0 SWAP1 SLOAD SWAP1 PUSH2 0x100 EXP SWAP1 DIV PUSH1 0xFF AND SWAP1 POP SWAP3 SWAP2 POP POP JUMP JUMPDEST PUSH1 0x0 CALLER SWAP1 POP SWAP1 JUMP JUMPDEST PUSH2 0x42B4 DUP1 PUSH3 0x23A PUSH1 0x0 CODECOPY PUSH1 0x0 RETURN INVALID PUSH1 0x80 PUSH1 0x40 MSTORE PUSH1 0x4 CALLDATASIZE LT PUSH2 0x1BB JUMPI PUSH1 0x0 CALLDATALOAD PUSH1 0xE0 SHR DUP1 PUSH4 0x9999D2AE GT PUSH2 0xEC JUMPI DUP1 PUSH4 0xD547741F GT PUSH2 0x8A JUMPI DUP1 PUSH4 0xE694E2B7 GT PUSH2 0x64 JUMPI DUP1 PUSH4 0xE694E2B7 EQ PUSH2 0x6BF JUMPI DUP1 PUSH4 0xEB2B94B5 EQ PUSH2 0x6FC JUMPI DUP1 PUSH4 0xEE10C370 EQ PUSH2 0x739 JUMPI DUP1 PUSH4 0xFACD743B EQ PUSH2 0x762 JUMPI PUSH2 0x1C2 JUMP JUMPDEST DUP1 PUSH4 0xD547741F EQ PUSH2 0x640 JUMPI DUP1 PUSH4 0xD64F8869 EQ PUSH2 0x669 JUMPI DUP1 PUSH4 0xE211E4A4 EQ PUSH2 0x694 JUMPI PUSH2 0x1C2 JUMP JUMPDEST DUP1 PUSH4 0xAD73349E GT PUSH2 0xC6 JUMPI DUP1 PUSH4 0xAD73349E EQ PUSH2 0x56C JUMPI DUP1 PUSH4 0xB9011523 EQ PUSH2 0x5AF JUMPI DUP1 PUSH4 0xC49BAEBE EQ PUSH2 0x5EC JUMPI DUP1 PUSH4 0xCF14522B EQ PUSH2 0x617 JUMPI PUSH2 0x1C2 JUMP JUMPDEST DUP1 PUSH4 0x9999D2AE EQ PUSH2 0x4D9 JUMPI DUP1 PUSH4 0x9B7E0180 EQ PUSH2 0x504 JUMPI DUP1 PUSH4 0xA217FDDF EQ PUSH2 0x541 JUMPI PUSH2 0x1C2 JUMP JUMPDEST DUP1 PUSH4 0x40A141FF GT PUSH2 0x159 JUMPI DUP1 PUSH4 0x4D238C8E GT PUSH2 0x133 JUMPI DUP1 PUSH4 0x4D238C8E EQ PUSH2 0x406 JUMPI DUP1 PUSH4 0x54FFC90C EQ PUSH2 0x42F JUMPI DUP1 PUSH4 0x7E6ACDF8 EQ PUSH2 0x45F JUMPI DUP1 PUSH4 0x91D14854 EQ PUSH2 0x49C JUMPI PUSH2 0x1C2 JUMP JUMPDEST DUP1 PUSH4 0x40A141FF EQ PUSH2 0x375 JUMPI DUP1 PUSH4 0x47304D86 EQ PUSH2 0x39E JUMPI DUP1 PUSH4 0x4A56E45B EQ PUSH2 0x3C9 JUMPI PUSH2 0x1C2 JUMP JUMPDEST DUP1 PUSH4 0x2C8FE526 GT PUSH2 0x195 JUMPI DUP1 PUSH4 0x2C8FE526 EQ PUSH2 0x2A0 JUMPI DUP1 PUSH4 0x2F2FF15D EQ PUSH2 0x2E6 JUMPI DUP1 PUSH4 0x36568ABE EQ PUSH2 0x30F JUMPI DUP1 PUSH4 0x3E8686CC EQ PUSH2 0x338 JUMPI PUSH2 0x1C2 JUMP JUMPDEST DUP1 PUSH4 0x1FFC9A7 EQ PUSH2 0x1FD JUMPI DUP1 PUSH4 0x12075A17 EQ PUSH2 0x23A JUMPI DUP1 PUSH4 0x248A9CA3 EQ PUSH2 0x263 JUMPI PUSH2 0x1C2 JUMP JUMPDEST CALLDATASIZE PUSH2 0x1C2 JUMPI STOP JUMPDEST PUSH1 0x40 MLOAD PUSH32 0x8C379A000000000000000000000000000000000000000000000000000000000 DUP2 MSTORE PUSH1 0x4 ADD PUSH2 0x1F4 SWAP1 PUSH2 0x27C2 JUMP JUMPDEST PUSH1 0x40 MLOAD DUP1 SWAP2 SUB SWAP1 REVERT JUMPDEST CALLVALUE DUP1 ISZERO PUSH2 0x209 JUMPI PUSH1 0x0 DUP1 REVERT JUMPDEST POP PUSH2 0x224 PUSH1 0x4 DUP1 CALLDATASIZE SUB DUP2 ADD SWAP1 PUSH2 0x21F SWAP2 SWAP1 PUSH2 0x284E JUMP JUMPDEST PUSH2 0x79F JUMP JUMPDEST PUSH1 0x40 MLOAD PUSH2 0x231 SWAP2 SWAP1 PUSH2 0x2896 JUMP JUMPDEST PUSH1 0x40 MLOAD DUP1 SWAP2 SUB SWAP1 RETURN JUMPDEST CALLVALUE DUP1 ISZERO PUSH2 0x246 JUMPI PUSH1 0x0 DUP1 REVERT JUMPDEST POP PUSH2 0x261 PUSH1 0x4 DUP1 CALLDATASIZE SUB DUP2 ADD SWAP1 PUSH2 0x25C SWAP2 SWAP1 PUSH2 0x2945 JUMP JUMPDEST PUSH2 0x819 JUMP JUMPDEST STOP JUMPDEST CALLVALUE DUP1 ISZERO PUSH2 0x26F JUMPI PUSH1 0x0 DUP1 REVERT JUMPDEST POP PUSH2 0x28A PUSH1 0x4 DUP1 CALLDATASIZE SUB DUP2 ADD SWAP1 PUSH2 0x285 SWAP2 SWAP1 PUSH2 0x29BB JUMP JUMPDEST PUSH2 0x9A6 JUMP JUMPDEST PUSH1 0x40 MLOAD PUSH2 0x297 SWAP2 SWAP1 PUSH2 0x29F7 JUMP JUMPDEST PUSH1 0x40 MLOAD DUP1 SWAP2 SUB SWAP1 RETURN JUMPDEST CALLVALUE DUP1 ISZERO PUSH2 0x2AC JUMPI PUSH1 0x0 DUP1 REVERT JUMPDEST POP PUSH2 0x2C7 PUSH1 0x4 DUP1 CALLDATASIZE SUB DUP2 ADD SWAP1 PUSH2 0x2C2 SWAP2 SWAP1 PUSH2 0x2A12 JUMP JUMPDEST PUSH2 0x9C5 JUMP JUMPDEST PUSH1 0x40 MLOAD PUSH2 0x2DD SWAP11 SWAP10 SWAP9 SWAP8 SWAP7 SWAP6 SWAP5 SWAP4 SWAP3 SWAP2 SWAP1 PUSH2 0x2AEE JUMP JUMPDEST PUSH1 0x40 MLOAD DUP1 SWAP2 SUB SWAP1 RETURN JUMPDEST CALLVALUE DUP1 ISZERO PUSH2 0x2F2 JUMPI PUSH1 0x0 DUP1 REVERT JUMPDEST POP PUSH2 0x30D PUSH1 0x4 DUP1 CALLDATASIZE SUB DUP2 ADD SWAP1 PUSH2 0x308 SWAP2 SWAP1 PUSH2 0x2BC4 JUMP JUMPDEST PUSH2 0xB56 JUMP JUMPDEST STOP JUMPDEST CALLVALUE DUP1 ISZERO PUSH2 0x31B JUMPI PUSH1 0x0 DUP1 REVERT JUMPDEST POP PUSH2 0x336 PUSH1 0x4 DUP1 CALLDATASIZE SUB DUP2 ADD SWAP1 PUSH2 0x331 SWAP2 SWAP1 PUSH2 0x2BC4 JUMP JUMPDEST PUSH2 0xB78 JUMP JUMPDEST STOP JUMPDEST CALLVALUE DUP1 ISZERO PUSH2 0x344 JUMPI PUSH1 0x0 DUP1 REVERT JUMPDEST POP PUSH2 0x35F PUSH1 0x4 DUP1 CALLDATASIZE SUB DUP2 ADD SWAP1 PUSH2 0x35A SWAP2 SWAP1 PUSH2 0x2A12 JUMP JUMPDEST PUSH2 0xBF3 JUMP JUMPDEST PUSH1 0x40 MLOAD PUSH2 0x36C SWAP2 SWAP1 PUSH2 0x2E55 JUMP JUMPDEST PUSH1 0x40 MLOAD DUP1 SWAP2 SUB SWAP1 RETURN JUMPDEST CALLVALUE DUP1 ISZERO PUSH2 0x381 JUMPI PUSH1 0x0 DUP1 REVERT JUMPDEST POP PUSH2 0x39C PUSH1 0x4 DUP1 CALLDATASIZE SUB DUP2 ADD SWAP1 PUSH2 0x397 SWAP2 SWAP1 PUSH2 0x2E77 JUMP JUMPDEST PUSH2 0xE09 JUMP JUMPDEST STOP JUMPDEST CALLVALUE DUP1 ISZERO PUSH2 0x3AA JUMPI PUSH1 0x0 DUP1 REVERT JUMPDEST POP PUSH2 0x3B3 PUSH2 0xE87 JUMP JUMPDEST PUSH1 0x40 MLOAD PUSH2 0x3C0 SWAP2 SWAP1 PUSH2 0x2EA4 JUMP JUMPDEST PUSH1 0x40 MLOAD DUP1 SWAP2 SUB SWAP1 RETURN JUMPDEST CALLVALUE DUP1 ISZERO PUSH2 0x3D5 JUMPI PUSH1 0x0 DUP1 REVERT JUMPDEST POP PUSH2 0x3F0 PUSH1 0x4 DUP1 CALLDATASIZE SUB DUP2 ADD SWAP1 PUSH2 0x3EB SWAP2 SWAP1 PUSH2 0x2A12 JUMP JUMPDEST PUSH2 0xE95 JUMP JUMPDEST PUSH1 0x40 MLOAD PUSH2 0x3FD SWAP2 SWAP1 PUSH2 0x2F6E JUMP JUMPDEST PUSH1 0x40 MLOAD DUP1 SWAP2 SUB SWAP1 RETURN JUMPDEST CALLVALUE DUP1 ISZERO PUSH2 0x412 JUMPI PUSH1 0x0 DUP1 REVERT JUMPDEST POP PUSH2 0x42D PUSH1 0x4 DUP1 CALLDATASIZE SUB DUP2 ADD SWAP1 PUSH2 0x428 SWAP2 SWAP1 PUSH2 0x2E77 JUMP JUMPDEST PUSH2 0xF00 JUMP JUMPDEST STOP JUMPDEST PUSH2 0x449 PUSH1 0x4 DUP1 CALLDATASIZE SUB DUP2 ADD SWAP1 PUSH2 0x444 SWAP2 SWAP1 PUSH2 0x30C5 JUMP JUMPDEST PUSH2 0xF7E JUMP JUMPDEST PUSH1 0x40 MLOAD PUSH2 0x456 SWAP2 SWAP1 PUSH2 0x2EA4 JUMP JUMPDEST PUSH1 0x40 MLOAD DUP1 SWAP2 SUB SWAP1 RETURN JUMPDEST CALLVALUE DUP1 ISZERO PUSH2 0x46B JUMPI PUSH1 0x0 DUP1 REVERT JUMPDEST POP PUSH2 0x486 PUSH1 0x4 DUP1 CALLDATASIZE SUB DUP2 ADD SWAP1 PUSH2 0x481 SWAP2 SWAP1 PUSH2 0x3150 JUMP JUMPDEST PUSH2 0x12A8 JUMP JUMPDEST PUSH1 0x40 MLOAD PUSH2 0x493 SWAP2 SWAP1 PUSH2 0x2EA4 JUMP JUMPDEST PUSH1 0x40 MLOAD DUP1 SWAP2 SUB SWAP1 RETURN JUMPDEST CALLVALUE DUP1 ISZERO PUSH2 0x4A8 JUMPI PUSH1 0x0 DUP1 REVERT JUMPDEST POP PUSH2 0x4C3 PUSH1 0x4 DUP1 CALLDATASIZE SUB DUP2 ADD SWAP1 PUSH2 0x4BE SWAP2 SWAP1 PUSH2 0x2BC4 JUMP JUMPDEST PUSH2 0x12D9 JUMP JUMPDEST PUSH1 0x40 MLOAD PUSH2 0x4D0 SWAP2 SWAP1 PUSH2 0x2896 JUMP JUMPDEST PUSH1 0x40 MLOAD DUP1 SWAP2 SUB SWAP1 RETURN JUMPDEST CALLVALUE DUP1 ISZERO PUSH2 0x4E5 JUMPI PUSH1 0x0 DUP1 REVERT JUMPDEST POP PUSH2 0x4EE PUSH2 0x1343 JUMP JUMPDEST PUSH1 0x40 MLOAD PUSH2 0x4FB SWAP2 SWAP1 PUSH2 0x2EA4 JUMP JUMPDEST PUSH1 0x40 MLOAD DUP1 SWAP2 SUB SWAP1 RETURN JUMPDEST CALLVALUE DUP1 ISZERO PUSH2 0x510 JUMPI PUSH1 0x0 DUP1 REVERT JUMPDEST POP PUSH2 0x52B PUSH1 0x4 DUP1 CALLDATASIZE SUB DUP2 ADD SWAP1 PUSH2 0x526 SWAP2 SWAP1 PUSH2 0x3190 JUMP JUMPDEST PUSH2 0x1359 JUMP JUMPDEST PUSH1 0x40 MLOAD PUSH2 0x538 SWAP2 SWAP1 PUSH2 0x2EA4 JUMP JUMPDEST PUSH1 0x40 MLOAD DUP1 SWAP2 SUB SWAP1 RETURN JUMPDEST CALLVALUE DUP1 ISZERO PUSH2 0x54D JUMPI PUSH1 0x0 DUP1 REVERT JUMPDEST POP PUSH2 0x556 PUSH2 0x138A JUMP JUMPDEST PUSH1 0x40 MLOAD PUSH2 0x563 SWAP2 SWAP1 PUSH2 0x29F7 JUMP JUMPDEST PUSH1 0x40 MLOAD DUP1 SWAP2 SUB SWAP1 RETURN JUMPDEST CALLVALUE DUP1 ISZERO PUSH2 0x578 JUMPI PUSH1 0x0 DUP1 REVERT JUMPDEST POP PUSH2 0x593 PUSH1 0x4 DUP1 CALLDATASIZE SUB DUP2 ADD SWAP1 PUSH2 0x58E SWAP2 SWAP1 PUSH2 0x2A12 JUMP JUMPDEST PUSH2 0x1391 JUMP JUMPDEST PUSH1 0x40 MLOAD PUSH2 0x5A6 SWAP8 SWAP7 SWAP6 SWAP5 SWAP4 SWAP3 SWAP2 SWAP1 PUSH2 0x31DF JUMP JUMPDEST PUSH1 0x40 MLOAD DUP1 SWAP2 SUB SWAP1 RETURN JUMPDEST CALLVALUE DUP1 ISZERO PUSH2 0x5BB JUMPI PUSH1 0x0 DUP1 REVERT JUMPDEST POP PUSH2 0x5D6 PUSH1 0x4 DUP1 CALLDATASIZE SUB DUP2 ADD SWAP1 PUSH2 0x5D1 SWAP2 SWAP1 PUSH2 0x2E77 JUMP JUMPDEST PUSH2 0x1420 JUMP JUMPDEST PUSH1 0x40 MLOAD PUSH2 0x5E3 SWAP2 SWAP1 PUSH2 0x2F6E JUMP JUMPDEST PUSH1 0x40 MLOAD DUP1 SWAP2 SUB SWAP1 RETURN JUMPDEST CALLVALUE DUP1 ISZERO PUSH2 0x5F8 JUMPI PUSH1 0x0 DUP1 REVERT JUMPDEST POP PUSH2 0x601 PUSH2 0x14B7 JUMP JUMPDEST PUSH1 0x40 MLOAD PUSH2 0x60E SWAP2 SWAP1 PUSH2 0x29F7 JUMP JUMPDEST PUSH1 0x40 MLOAD DUP1 SWAP2 SUB SWAP1 RETURN JUMPDEST CALLVALUE DUP1 ISZERO PUSH2 0x623 JUMPI PUSH1 0x0 DUP1 REVERT JUMPDEST POP PUSH2 0x63E PUSH1 0x4 DUP1 CALLDATASIZE SUB DUP2 ADD SWAP1 PUSH2 0x639 SWAP2 SWAP1 PUSH2 0x327A JUMP JUMPDEST PUSH2 0x14DB JUMP JUMPDEST STOP JUMPDEST CALLVALUE DUP1 ISZERO PUSH2 0x64C JUMPI PUSH1 0x0 DUP1 REVERT JUMPDEST POP PUSH2 0x667 PUSH1 0x4 DUP1 CALLDATASIZE SUB DUP2 ADD SWAP1 PUSH2 0x662 SWAP2 SWAP1 PUSH2 0x2BC4 JUMP JUMPDEST PUSH2 0x19D3 JUMP JUMPDEST STOP JUMPDEST CALLVALUE DUP1 ISZERO PUSH2 0x675 JUMPI PUSH1 0x0 DUP1 REVERT JUMPDEST POP PUSH2 0x67E PUSH2 0x19F5 JUMP JUMPDEST PUSH1 0x40 MLOAD PUSH2 0x68B SWAP2 SWAP1 PUSH2 0x2EA4 JUMP JUMPDEST PUSH1 0x40 MLOAD DUP1 SWAP2 SUB SWAP1 RETURN JUMPDEST CALLVALUE DUP1 ISZERO PUSH2 0x6A0 JUMPI PUSH1 0x0 DUP1 REVERT JUMPDEST POP PUSH2 0x6A9 PUSH2 0x1A0B JUMP JUMPDEST PUSH1 0x40 MLOAD PUSH2 0x6B6 SWAP2 SWAP1 PUSH2 0x2EA4 JUMP JUMPDEST PUSH1 0x40 MLOAD DUP1 SWAP2 SUB SWAP1 RETURN JUMPDEST CALLVALUE DUP1 ISZERO PUSH2 0x6CB JUMPI PUSH1 0x0 DUP1 REVERT JUMPDEST POP PUSH2 0x6E6 PUSH1 0x4 DUP1 CALLDATASIZE SUB DUP2 ADD SWAP1 PUSH2 0x6E1 SWAP2 SWAP1 PUSH2 0x33A0 JUMP JUMPDEST PUSH2 0x1A13 JUMP JUMPDEST PUSH1 0x40 MLOAD PUSH2 0x6F3 SWAP2 SWAP1 PUSH2 0x2EA4 JUMP JUMPDEST PUSH1 0x40 MLOAD DUP1 SWAP2 SUB SWAP1 RETURN JUMPDEST CALLVALUE DUP1 ISZERO PUSH2 0x708 JUMPI PUSH1 0x0 DUP1 REVERT JUMPDEST POP PUSH2 0x723 PUSH1 0x4 DUP1 CALLDATASIZE SUB DUP2 ADD SWAP1 PUSH2 0x71E SWAP2 SWAP1 PUSH2 0x2A12 JUMP JUMPDEST PUSH2 0x1E22 JUMP JUMPDEST PUSH1 0x40 MLOAD PUSH2 0x730 SWAP2 SWAP1 PUSH2 0x34EC JUMP JUMPDEST PUSH1 0x40 MLOAD DUP1 SWAP2 SUB SWAP1 RETURN JUMPDEST CALLVALUE DUP1 ISZERO PUSH2 0x745 JUMPI PUSH1 0x0 DUP1 REVERT JUMPDEST POP PUSH2 0x760 PUSH1 0x4 DUP1 CALLDATASIZE SUB DUP2 ADD SWAP1 PUSH2 0x75B SWAP2 SWAP1 PUSH2 0x327A JUMP JUMPDEST PUSH2 0x2021 JUMP JUMPDEST STOP JUMPDEST CALLVALUE DUP1 ISZERO PUSH2 0x76E JUMPI PUSH1 0x0 DUP1 REVERT JUMPDEST POP PUSH2 0x789 PUSH1 0x4 DUP1 CALLDATASIZE SUB DUP2 ADD SWAP1 PUSH2 0x784 SWAP2 SWAP1 PUSH2 0x2E77 JUMP JUMPDEST PUSH2 0x21E7 JUMP JUMPDEST PUSH1 0x40 MLOAD PUSH2 0x796 SWAP2 SWAP1 PUSH2 0x2896 JUMP JUMPDEST PUSH1 0x40 MLOAD DUP1 SWAP2 SUB SWAP1 RETURN JUMPDEST PUSH1 0x0 PUSH32 0x7965DB0B00000000000000000000000000000000000000000000000000000000 PUSH28 0xFFFFFFFFFFFFFFFFFFFFFFFFFFFFFFFFFFFFFFFFFFFFFFFFFFFFFFFF NOT AND DUP3 PUSH28 0xFFFFFFFFFFFFFFFFFFFFFFFFFFFFFFFFFFFFFFFFFFFFFFFFFFFFFFFF NOT AND EQ DUP1 PUSH2 0x812 JUMPI POP PUSH2 0x811 DUP3 PUSH2 0x221A JUMP JUMPDEST JUMPDEST SWAP1 POP SWAP2 SWAP1 POP JUMP JUMPDEST PUSH1 0x0 DUP1 SHL PUSH2 0x826 DUP2 PUSH2 0x2294 JUMP JUMPDEST PUSH2 0x82E PUSH2 0x22A8 JUMP JUMPDEST PUSH1 0x0 PUSH20 0xFFFFFFFFFFFFFFFFFFFFFFFFFFFFFFFFFFFFFFFF AND DUP4 PUSH20 0xFFFFFFFFFFFFFFFFFFFFFFFFFFFFFFFFFFFFFFFF AND SUB PUSH2 0x89D JUMPI PUSH1 0x40 MLOAD PUSH32 0x8C379A000000000000000000000000000000000000000000000000000000000 DUP2 MSTORE PUSH1 0x4 ADD PUSH2 0x894 SWAP1 PUSH2 0x3580 JUMP JUMPDEST PUSH1 0x40 MLOAD DUP1 SWAP2 SUB SWAP1 REVERT JUMPDEST PUSH1 0x0 DUP3 GT DUP1 ISZERO PUSH2 0x8AD JUMPI POP SELFBALANCE DUP3 GT ISZERO JUMPDEST PUSH2 0x8EC JUMPI PUSH1 0x40 MLOAD PUSH32 0x8C379A000000000000000000000000000000000000000000000000000000000 DUP2 MSTORE PUSH1 0x4 ADD PUSH2 0x8E3 SWAP1 PUSH2 0x3612 JUMP JUMPDEST PUSH1 0x40 MLOAD DUP1 SWAP2 SUB SWAP1 REVERT JUMPDEST PUSH1 0x0 DUP4 PUSH20 0xFFFFFFFFFFFFFFFFFFFFFFFFFFFFFFFFFFFFFFFF AND DUP4 PUSH1 0x40 MLOAD PUSH2 0x912 SWAP1 PUSH2 0x3663 JUMP JUMPDEST PUSH1 0x0 PUSH1 0x40 MLOAD DUP1 DUP4 SUB DUP2 DUP6 DUP8 GAS CALL SWAP3 POP POP POP RETURNDATASIZE DUP1 PUSH1 0x0 DUP2 EQ PUSH2 0x94F JUMPI PUSH1 0x40 MLOAD SWAP2 POP PUSH1 0x1F NOT PUSH1 0x3F RETURNDATASIZE ADD AND DUP3 ADD PUSH1 0x40 MSTORE RETURNDATASIZE DUP3 MSTORE RETURNDATASIZE PUSH1 0x0 PUSH1 0x20 DUP5 ADD RETURNDATACOPY PUSH2 0x954 JUMP JUMPDEST PUSH1 0x60 SWAP2 POP JUMPDEST POP POP SWAP1 POP DUP1 PUSH2 0x998 JUMPI PUSH1 0x40 MLOAD PUSH32 0x8C379A000000000000000000000000000000000000000000000000000000000 DUP2 MSTORE PUSH1 0x4 ADD PUSH2 0x98F SWAP1 PUSH2 0x36EA JUMP JUMPDEST PUSH1 0x40 MLOAD DUP1 SWAP2 SUB SWAP1 REVERT JUMPDEST POP PUSH2 0x9A1 PUSH2 0x22EE JUMP JUMPDEST POP POP POP JUMP JUMPDEST PUSH1 0x0 DUP1 PUSH1 0x0 DUP4 DUP2 MSTORE PUSH1 0x20 ADD SWAP1 DUP2 MSTORE PUSH1 0x20 ADD PUSH1 0x0 KECCAK256 PUSH1 0x1 ADD SLOAD SWAP1 POP SWAP2 SWAP1 POP JUMP JUMPDEST PUSH1 0x4 PUSH1 0x20 MSTORE DUP1 PUSH1 0x0 MSTORE PUSH1 0x40 PUSH1 0x0 KECCAK256 PUSH1 0x0 SWAP2 POP SWAP1 POP DUP1 PUSH1 0x0 ADD SLOAD SWAP1 DUP1 PUSH1 0x1 ADD PUSH1 0x0 SWAP1 SLOAD SWAP1 PUSH2 0x100 EXP SWAP1 DIV PUSH20 0xFFFFFFFFFFFFFFFFFFFFFFFFFFFFFFFFFFFFFFFF AND SWAP1 DUP1 PUSH1 0x2 ADD DUP1 SLOAD PUSH2 0xA14 SWAP1 PUSH2 0x3739 JUMP JUMPDEST DUP1 PUSH1 0x1F ADD PUSH1 0x20 DUP1 SWAP2 DIV MUL PUSH1 0x20 ADD PUSH1 0x40 MLOAD SWAP1 DUP2 ADD PUSH1 0x40 MSTORE DUP1 SWAP3 SWAP2 SWAP1 DUP2 DUP2 MSTORE PUSH1 0x20 ADD DUP3 DUP1 SLOAD PUSH2 0xA40 SWAP1 PUSH2 0x3739 JUMP JUMPDEST DUP1 ISZERO PUSH2 0xA8D JUMPI DUP1 PUSH1 0x1F LT PUSH2 0xA62 JUMPI PUSH2 0x100 DUP1 DUP4 SLOAD DIV MUL DUP4 MSTORE SWAP2 PUSH1 0x20 ADD SWAP2 PUSH2 0xA8D JUMP JUMPDEST DUP3 ADD SWAP2 SWAP1 PUSH1 0x0 MSTORE PUSH1 0x20 PUSH1 0x0 KECCAK256 SWAP1 JUMPDEST DUP2 SLOAD DUP2 MSTORE SWAP1 PUSH1 0x1 ADD SWAP1 PUSH1 0x20 ADD DUP1 DUP4 GT PUSH2 0xA70 JUMPI DUP3 SWAP1 SUB PUSH1 0x1F AND DUP3 ADD SWAP2 JUMPDEST POP POP POP POP POP SWAP1 DUP1 PUSH1 0x3 ADD DUP1 SLOAD PUSH2 0xAA2 SWAP1 PUSH2 0x3739 JUMP JUMPDEST DUP1 PUSH1 0x1F ADD PUSH1 0x20 DUP1 SWAP2 DIV MUL PUSH1 0x20 ADD PUSH1 0x40 MLOAD SWAP1 DUP2 ADD PUSH1 0x40 MSTORE DUP1 SWAP3 SWAP2 SWAP1 DUP2 DUP2 MSTORE PUSH1 0x20 ADD DUP3 DUP1 SLOAD PUSH2 0xACE SWAP1 PUSH2 0x3739 JUMP JUMPDEST DUP1 ISZERO PUSH2 0xB1B JUMPI DUP1 PUSH1 0x1F LT PUSH2 0xAF0 JUMPI PUSH2 0x100 DUP1 DUP4 SLOAD DIV MUL DUP4 MSTORE SWAP2 PUSH1 0x20 ADD SWAP2 PUSH2 0xB1B JUMP JUMPDEST DUP3 ADD SWAP2 SWAP1 PUSH1 0x0 MSTORE PUSH1 0x20 PUSH1 0x0 KECCAK256 SWAP1 JUMPDEST DUP2 SLOAD DUP2 MSTORE SWAP1 PUSH1 0x1 ADD SWAP1 PUSH1 0x20 ADD DUP1 DUP4 GT PUSH2 0xAFE JUMPI DUP3 SWAP1 SUB PUSH1 0x1F AND DUP3 ADD SWAP2 JUMPDEST POP POP POP POP POP SWAP1 DUP1 PUSH1 0x4 ADD SLOAD SWAP1 DUP1 PUSH1 0x5 ADD SLOAD SWAP1 DUP1 PUSH1 0x6 ADD SLOAD SWAP1 DUP1 PUSH1 0x7 ADD PUSH1 0x0 SWAP1 SLOAD SWAP1 PUSH2 0x100 EXP SWAP1 DIV PUSH1 0xFF AND SWAP1 DUP1 PUSH1 0x8 ADD SLOAD SWAP1 DUP1 PUSH1 0x9 ADD SLOAD SWAP1 POP DUP11 JUMP JUMPDEST PUSH2 0xB5F DUP3 PUSH2 0x9A6 JUMP JUMPDEST PUSH2 0xB68 DUP2 PUSH2 0x2294 JUMP JUMPDEST PUSH2 0xB72 DUP4 DUP4 PUSH2 0x22F7 JUMP JUMPDEST POP POP POP POP JUMP JUMPDEST PUSH2 0xB80 PUSH2 0x23E8 JUMP JUMPDEST PUSH20 0xFFFFFFFFFFFFFFFFFFFFFFFFFFFFFFFFFFFFFFFF AND DUP2 PUSH20 0xFFFFFFFFFFFFFFFFFFFFFFFFFFFFFFFFFFFFFFFF AND EQ PUSH2 0xBE4 JUMPI PUSH1 0x40 MLOAD PUSH32 0x6697B23200000000000000000000000000000000000000000000000000000000 DUP2 MSTORE PUSH1 0x4 ADD PUSH1 0x40 MLOAD DUP1 SWAP2 SUB SWAP1 REVERT JUMPDEST PUSH2 0xBEE DUP3 DUP3 PUSH2 0x23F0 JUMP JUMPDEST POP POP POP JUMP JUMPDEST PUSH2 0xBFB PUSH2 0x259D JUMP JUMPDEST PUSH1 0x5 PUSH1 0x0 DUP4 DUP2 MSTORE PUSH1 0x20 ADD SWAP1 DUP2 MSTORE PUSH1 0x20 ADD PUSH1 0x0 KECCAK256 PUSH1 0x40 MLOAD DUP1 PUSH2 0x100 ADD PUSH1 0x40 MSTORE SWAP1 DUP2 PUSH1 0x0 DUP3 ADD SLOAD DUP2 MSTORE PUSH1 0x20 ADD PUSH1 0x1 DUP3 ADD SLOAD DUP2 MSTORE PUSH1 0x20 ADD PUSH1 0x2 DUP3 ADD PUSH1 0x0 SWAP1 SLOAD SWAP1 PUSH2 0x100 EXP SWAP1 DIV PUSH20 0xFFFFFFFFFFFFFFFFFFFFFFFFFFFFFFFFFFFFFFFF AND PUSH20 0xFFFFFFFFFFFFFFFFFFFFFFFFFFFFFFFFFFFFFFFF AND PUSH20 0xFFFFFFFFFFFFFFFFFFFFFFFFFFFFFFFFFFFFFFFF AND DUP2 MSTORE PUSH1 0x20 ADD PUSH1 0x3 DUP3 ADD DUP1 SLOAD DUP1 PUSH1 0x20 MUL PUSH1 0x20 ADD PUSH1 0x40 MLOAD SWAP1 DUP2 ADD PUSH1 0x40 MSTORE DUP1 SWAP3 SWAP2 SWAP1 DUP2 DUP2 MSTORE PUSH1 0x20 ADD PUSH1 0x0 SWAP1 JUMPDEST DUP3 DUP3 LT ISZERO PUSH2 0xD55 JUMPI DUP4 DUP3 SWAP1 PUSH1 0x0 MSTORE PUSH1 0x20 PUSH1 0x0 KECCAK256 ADD DUP1 SLOAD PUSH2 0xCC8 SWAP1 PUSH2 0x3739 JUMP JUMPDEST DUP1 PUSH1 0x1F ADD PUSH1 0x20 DUP1 SWAP2 DIV MUL PUSH1 0x20 ADD PUSH1 0x40 MLOAD SWAP1 DUP2 ADD PUSH1 0x40 MSTORE DUP1 SWAP3 SWAP2 SWAP1 DUP2 DUP2 MSTORE PUSH1 0x20 ADD DUP3 DUP1 SLOAD PUSH2 0xCF4 SWAP1 PUSH2 0x3739 JUMP JUMPDEST DUP1 ISZERO PUSH2 0xD41 JUMPI DUP1 PUSH1 0x1F LT PUSH2 0xD16 JUMPI PUSH2 0x100 DUP1 DUP4 SLOAD DIV MUL DUP4 MSTORE SWAP2 PUSH1 0x20 ADD SWAP2 PUSH2 0xD41 JUMP JUMPDEST DUP3 ADD SWAP2 SWAP1 PUSH1 0x0 MSTORE PUSH1 0x20 PUSH1 0x0 KECCAK256 SWAP1 JUMPDEST DUP2 SLOAD DUP2 MSTORE SWAP1 PUSH1 0x1 ADD SWAP1 PUSH1 0x20 ADD DUP1 DUP4 GT PUSH2 0xD24 JUMPI DUP3 SWAP1 SUB PUSH1 0x1F AND DUP3 ADD SWAP2 JUMPDEST POP POP POP POP POP DUP2 MSTORE PUSH1 0x20 ADD SWAP1 PUSH1 0x1 ADD SWAP1 PUSH2 0xCA9 JUMP JUMPDEST POP POP POP POP DUP2 MSTORE PUSH1 0x20 ADD PUSH1 0x4 DUP3 ADD SLOAD DUP2 MSTORE PUSH1 0x20 ADD PUSH1 0x5 DUP3 ADD PUSH1 0x0 SWAP1 SLOAD SWAP1 PUSH2 0x100 EXP SWAP1 DIV PUSH1 0xFF AND PUSH1 0x2 DUP2 GT ISZERO PUSH2 0xD8C JUMPI PUSH2 0xD8B PUSH2 0x2D2E JUMP JUMPDEST JUMPDEST PUSH1 0x2 DUP2 GT ISZERO PUSH2 0xD9E JUMPI PUSH2 0xD9D PUSH2 0x2D2E JUMP JUMPDEST JUMPDEST DUP2 MSTORE PUSH1 0x20 ADD PUSH1 0x5 DUP3 ADD PUSH1 0x1 SWAP1 SLOAD SWAP1 PUSH2 0x100 EXP SWAP1 DIV PUSH20 0xFFFFFFFFFFFFFFFFFFFFFFFFFFFFFFFFFFFFFFFF AND PUSH20 0xFFFFFFFFFFFFFFFFFFFFFFFFFFFFFFFFFFFFFFFF AND PUSH20 0xFFFFFFFFFFFFFFFFFFFFFFFFFFFFFFFFFFFFFFFF AND DUP2 MSTORE PUSH1 0x20 ADD PUSH1 0x6 DUP3 ADD SLOAD DUP2 MSTORE POP POP SWAP1 POP SWAP2 SWAP1 POP JUMP JUMPDEST PUSH1 0x0 DUP1 SHL PUSH2 0xE16 DUP2 PUSH2 0x2294 JUMP JUMPDEST PUSH2 0xE40 PUSH32 0x21702C8AF46127C7FA207F89D0B0A8441BB32959A0AC7DF790E9AB1A25C98926 DUP4 PUSH2 0x19D3 JUMP JUMPDEST DUP2 PUSH20 0xFFFFFFFFFFFFFFFFFFFFFFFFFFFFFFFFFFFFFFFF AND PUSH32 0xE1434E25D6611E0DB941968FDC97811C982AC1602E951637D206F5FDDA9DD8F1 PUSH1 0x40 MLOAD PUSH1 0x40 MLOAD DUP1 SWAP2 SUB SWAP1 LOG2 POP POP JUMP JUMPDEST PUSH10 0x152D02C7E14AF6800000 DUP2 JUMP JUMPDEST PUSH1 0x60 PUSH1 0x6 PUSH1 0x0 DUP4 DUP2 MSTORE PUSH1 0x20 ADD SWAP1 DUP2 MSTORE PUSH1 0x20 ADD PUSH1 0x0 KECCAK256 DUP1 SLOAD DUP1 PUSH1 0x20 MUL PUSH1 0x20 ADD PUSH1 0x40 MLOAD SWAP1 DUP2 ADD PUSH1 0x40 MSTORE DUP1 SWAP3 SWAP2 SWAP1 DUP2 DUP2 MSTORE PUSH1 0x20 ADD DUP3 DUP1 SLOAD DUP1 ISZERO PUSH2 0xEF4 JUMPI PUSH1 0x20 MUL DUP3 ADD SWAP2 SWAP1 PUSH1 0x0 MSTORE PUSH1 0x20 PUSH1 0x0 KECCAK256 SWAP1 JUMPDEST DUP2 SLOAD DUP2 MSTORE PUSH1 0x20 ADD SWAP1 PUSH1 0x1 ADD SWAP1 DUP1 DUP4 GT PUSH2 0xEE0 JUMPI JUMPDEST POP POP POP POP POP SWAP1 POP SWAP2 SWAP1 POP JUMP JUMPDEST PUSH1 0x0 DUP1 SHL PUSH2 0xF0D DUP2 PUSH2 0x2294 JUMP JUMPDEST PUSH2 0xF37 PUSH32 0x21702C8AF46127C7FA207F89D0B0A8441BB32959A0AC7DF790E9AB1A25C98926 DUP4 PUSH2 0xB56 JUMP JUMPDEST DUP2 PUSH20 0xFFFFFFFFFFFFFFFFFFFFFFFFFFFFFFFFFFFFFFFF AND PUSH32 0xE366C1C0452ED8EEC96861E9E54141EBFF23C9EC89FE27B996B45F5EC3884987 PUSH1 0x40 MLOAD PUSH1 0x40 MLOAD DUP1 SWAP2 SUB SWAP1 LOG2 POP POP JUMP JUMPDEST PUSH1 0x0 PUSH2 0xF88 PUSH2 0x22A8 JUMP JUMPDEST PUSH1 0x0 DUP5 MLOAD GT PUSH2 0xFCC JUMPI PUSH1 0x40 MLOAD PUSH32 0x8C379A000000000000000000000000000000000000000000000000000000000 DUP2 MSTORE PUSH1 0x4 ADD PUSH2 0xFC3 SWAP1 PUSH2 0x37DC JUMP JUMPDEST PUSH1 0x40 MLOAD DUP1 SWAP2 SUB SWAP1 REVERT JUMPDEST PUSH1 0x0 DUP4 MLOAD GT PUSH2 0x1010 JUMPI PUSH1 0x40 MLOAD PUSH32 0x8C379A000000000000000000000000000000000000000000000000000000000 DUP2 MSTORE PUSH1 0x4 ADD PUSH2 0x1007 SWAP1 PUSH2 0x3848 JUMP JUMPDEST PUSH1 0x40 MLOAD DUP1 SWAP2 SUB SWAP1 REVERT JUMPDEST PUSH1 0x0 DUP3 GT PUSH2 0x1053 JUMPI PUSH1 0x40 MLOAD PUSH32 0x8C379A000000000000000000000000000000000000000000000000000000000 DUP2 MSTORE PUSH1 0x4 ADD PUSH2 0x104A SWAP1 PUSH2 0x38B4 JUMP JUMPDEST PUSH1 0x40 MLOAD DUP1 SWAP2 SUB SWAP1 REVERT JUMPDEST PUSH10 0x152D02C7E14AF6800000 CALLVALUE GT ISZERO PUSH2 0x10A0 JUMPI PUSH1 0x40 MLOAD PUSH32 0x8C379A000000000000000000000000000000000000000000000000000000000 DUP2 MSTORE PUSH1 0x4 ADD PUSH2 0x1097 SWAP1 PUSH2 0x3946 JUMP JUMPDEST PUSH1 0x40 MLOAD DUP1 SWAP2 SUB SWAP1 REVERT JUMPDEST DUP2 CALLVALUE LT ISZERO PUSH2 0x10E3 JUMPI PUSH1 0x40 MLOAD PUSH32 0x8C379A000000000000000000000000000000000000000000000000000000000 DUP2 MSTORE PUSH1 0x4 ADD PUSH2 0x10DA SWAP1 PUSH2 0x39D8 JUMP JUMPDEST PUSH1 0x40 MLOAD DUP1 SWAP2 SUB SWAP1 REVERT JUMPDEST PUSH1 0x2 PUSH1 0x0 DUP2 SLOAD DUP1 SWAP3 SWAP2 SWAP1 PUSH2 0x10F6 SWAP1 PUSH2 0x3A27 JUMP JUMPDEST SWAP2 SWAP1 POP SSTORE SWAP1 POP PUSH1 0x40 MLOAD DUP1 PUSH2 0x140 ADD PUSH1 0x40 MSTORE DUP1 DUP3 DUP2 MSTORE PUSH1 0x20 ADD CALLER PUSH20 0xFFFFFFFFFFFFFFFFFFFFFFFFFFFFFFFFFFFFFFFF AND DUP2 MSTORE PUSH1 0x20 ADD DUP6 DUP2 MSTORE PUSH1 0x20 ADD DUP5 DUP2 MSTORE PUSH1 0x20 ADD DUP4 DUP2 MSTORE PUSH1 0x20 ADD CALLVALUE DUP2 MSTORE PUSH1 0x20 ADD CALLVALUE DUP2 MSTORE PUSH1 0x20 ADD PUSH1 0x1 ISZERO ISZERO DUP2 MSTORE PUSH1 0x20 ADD PUSH1 0x0 DUP2 MSTORE PUSH1 0x20 ADD PUSH1 0x0 DUP2 MSTORE POP PUSH1 0x4 PUSH1 0x0 DUP4 DUP2 MSTORE PUSH1 0x20 ADD SWAP1 DUP2 MSTORE PUSH1 0x20 ADD PUSH1 0x0 KECCAK256 PUSH1 0x0 DUP3 ADD MLOAD DUP2 PUSH1 0x0 ADD SSTORE PUSH1 0x20 DUP3 ADD MLOAD DUP2 PUSH1 0x1 ADD PUSH1 0x0 PUSH2 0x100 EXP DUP2 SLOAD DUP2 PUSH20 0xFFFFFFFFFFFFFFFFFFFFFFFFFFFFFFFFFFFFFFFF MUL NOT AND SWAP1 DUP4 PUSH20 0xFFFFFFFFFFFFFFFFFFFFFFFFFFFFFFFFFFFFFFFF AND MUL OR SWAP1 SSTORE POP PUSH1 0x40 DUP3 ADD MLOAD DUP2 PUSH1 0x2 ADD SWAP1 DUP2 PUSH2 0x11D6 SWAP2 SWAP1 PUSH2 0x3C1B JUMP JUMPDEST POP PUSH1 0x60 DUP3 ADD MLOAD DUP2 PUSH1 0x3 ADD SWAP1 DUP2 PUSH2 0x11EC SWAP2 SWAP1 PUSH2 0x3C1B JUMP JUMPDEST POP PUSH1 0x80 DUP3 ADD MLOAD DUP2 PUSH1 0x4 ADD SSTORE PUSH1 0xA0 DUP3 ADD MLOAD DUP2 PUSH1 0x5 ADD SSTORE PUSH1 0xC0 DUP3 ADD MLOAD DUP2 PUSH1 0x6 ADD SSTORE PUSH1 0xE0 DUP3 ADD MLOAD DUP2 PUSH1 0x7 ADD PUSH1 0x0 PUSH2 0x100 EXP DUP2 SLOAD DUP2 PUSH1 0xFF MUL NOT AND SWAP1 DUP4 ISZERO ISZERO MUL OR SWAP1 SSTORE POP PUSH2 0x100 DUP3 ADD MLOAD DUP2 PUSH1 0x8 ADD SSTORE PUSH2 0x120 DUP3 ADD MLOAD DUP2 PUSH1 0x9 ADD SSTORE SWAP1 POP POP CALLER PUSH20 0xFFFFFFFFFFFFFFFFFFFFFFFFFFFFFFFFFFFFFFFF AND DUP2 PUSH32 0xBAFB4AE95A6CE9C542EF3BB986E9F17387F06AAD676DB6BC94135EEE6043397F DUP7 DUP7 DUP7 CALLVALUE PUSH1 0x40 MLOAD PUSH2 0x1291 SWAP5 SWAP4 SWAP3 SWAP2 SWAP1 PUSH2 0x3CED JUMP JUMPDEST PUSH1 0x40 MLOAD DUP1 SWAP2 SUB SWAP1 LOG3 PUSH2 0x12A1 PUSH2 0x22EE JUMP JUMPDEST SWAP4 SWAP3 POP POP POP JUMP JUMPDEST PUSH1 0x6 PUSH1 0x20 MSTORE DUP2 PUSH1 0x0 MSTORE PUSH1 0x40 PUSH1 0x0 KECCAK256 DUP2 DUP2 SLOAD DUP2 LT PUSH2 0x12C4 JUMPI PUSH1 0x0 DUP1 REVERT JUMPDEST SWAP1 PUSH1 0x0 MSTORE PUSH1 0x20 PUSH1 0x0 KECCAK256 ADD PUSH1 0x0 SWAP2 POP SWAP2 POP POP SLOAD DUP2 JUMP JUMPDEST PUSH1 0x0 DUP1 PUSH1 0x0 DUP5 DUP2 MSTORE PUSH1 0x20 ADD SWAP1 DUP2 MSTORE PUSH1 0x20 ADD PUSH1 0x0 KECCAK256 PUSH1 0x0 ADD PUSH1 0x0 DUP4 PUSH20 0xFFFFFFFFFFFFFFFFFFFFFFFFFFFFFFFFFFFFFFFF AND PUSH20 0xFFFFFFFFFFFFFFFFFFFFFFFFFFFFFFFFFFFFFFFF AND DUP2 MSTORE PUSH1 0x20 ADD SWAP1 DUP2 MSTORE PUSH1 0x20 ADD PUSH1 0x0 KECCAK256 PUSH1 0x0 SWAP1 SLOAD SWAP1 PUSH2 0x100 EXP SWAP1 DIV PUSH1 0xFF AND SWAP1 POP SWAP3 SWAP2 POP POP JUMP JUMPDEST PUSH1 0x0 PUSH1 0x1 PUSH1 0x3 SLOAD PUSH2 0x1354 SWAP2 SWAP1 PUSH2 0x3D40 JUMP JUMPDEST SWAP1 POP SWAP1 JUMP JUMPDEST PUSH1 0x7 PUSH1 0x20 MSTORE DUP2 PUSH1 0x0 MSTORE PUSH1 0x40 PUSH1 0x0 KECCAK256 DUP2 DUP2 SLOAD DUP2 LT PUSH2 0x1375 JUMPI PUSH1 0x0 DUP1 REVERT JUMPDEST SWAP1 PUSH1 0x0 MSTORE PUSH1 0x20 PUSH1 0x0 KECCAK256 ADD PUSH1 0x0 SWAP2 POP SWAP2 POP POP SLOAD DUP2 JUMP JUMPDEST PUSH1 0x0 DUP1 SHL DUP2 JUMP JUMPDEST PUSH1 0x5 PUSH1 0x20 MSTORE DUP1 PUSH1 0x0 MSTORE PUSH1 0x40 PUSH1 0x0 KECCAK256 PUSH1 0x0 SWAP2 POP SWAP1 POP DUP1 PUSH1 0x0 ADD SLOAD SWAP1 DUP1 PUSH1 0x1 ADD SLOAD SWAP1 DUP1 PUSH1 0x2 ADD PUSH1 0x0 SWAP1 SLOAD SWAP1 PUSH2 0x100 EXP SWAP1 DIV PUSH20 0xFFFFFFFFFFFFFFFFFFFFFFFFFFFFFFFFFFFFFFFF AND SWAP1 DUP1 PUSH1 0x4 ADD SLOAD SWAP1 DUP1 PUSH1 0x5 ADD PUSH1 0x0 SWAP1 SLOAD SWAP1 PUSH2 0x100 EXP SWAP1 DIV PUSH1 0xFF AND SWAP1 DUP1 PUSH1 0x5 ADD PUSH1 0x1 SWAP1 SLOAD SWAP1 PUSH2 0x100 EXP SWAP1 DIV PUSH20 0xFFFFFFFFFFFFFFFFFFFFFFFFFFFFFFFFFFFFFFFF AND SWAP1 DUP1 PUSH1 0x6 ADD SLOAD SWAP1 POP DUP8 JUMP JUMPDEST PUSH1 0x60 PUSH1 0x7 PUSH1 0x0 DUP4 PUSH20 0xFFFFFFFFFFFFFFFFFFFFFFFFFFFFFFFFFFFFFFFF AND PUSH20 0xFFFFFFFFFFFFFFFFFFFFFFFFFFFFFFFFFFFFFFFF AND DUP2 MSTORE PUSH1 0x20 ADD SWAP1 DUP2 MSTORE PUSH1 0x20 ADD PUSH1 0x0 KECCAK256 DUP1 SLOAD DUP1 PUSH1 0x20 MUL PUSH1 0x20 ADD PUSH1 0x40 MLOAD SWAP1 DUP2 ADD PUSH1 0x40 MSTORE DUP1 SWAP3 SWAP2 SWAP1 DUP2 DUP2 MSTORE PUSH1 0x20 ADD DUP3 DUP1 SLOAD DUP1 ISZERO PUSH2 0x14AB JUMPI PUSH1 0x20 MUL DUP3 ADD SWAP2 SWAP1 PUSH1 0x0 MSTORE PUSH1 0x20 PUSH1 0x0 KECCAK256 SWAP1 JUMPDEST DUP2 SLOAD DUP2 MSTORE PUSH1 0x20 ADD SWAP1 PUSH1 0x1 ADD SWAP1 DUP1 DUP4 GT PUSH2 0x1497 JUMPI JUMPDEST POP POP POP POP POP SWAP1 POP SWAP2 SWAP1 POP JUMP JUMPDEST PUSH32 0x21702C8AF46127C7FA207F89D0B0A8441BB32959A0AC7DF790E9AB1A25C98926 DUP2 JUMP JUMPDEST PUSH2 0x14E3 PUSH2 0x22A8 JUMP JUMPDEST PUSH32 0x21702C8AF46127C7FA207F89D0B0A8441BB32959A0AC7DF790E9AB1A25C98926 PUSH2 0x150D DUP2 PUSH2 0x2294 JUMP JUMPDEST PUSH1 0x0 PUSH1 0x5 PUSH1 0x0 DUP6 DUP2 MSTORE PUSH1 0x20 ADD SWAP1 DUP2 MSTORE PUSH1 0x20 ADD PUSH1 0x0 KECCAK256 SWAP1 POP PUSH1 0x0 PUSH20 0xFFFFFFFFFFFFFFFFFFFFFFFFFFFFFFFFFFFFFFFF AND DUP2 PUSH1 0x2 ADD PUSH1 0x0 SWAP1 SLOAD SWAP1 PUSH2 0x100 EXP SWAP1 DIV PUSH20 0xFFFFFFFFFFFFFFFFFFFFFFFFFFFFFFFFFFFFFFFF AND PUSH20 0xFFFFFFFFFFFFFFFFFFFFFFFFFFFFFFFFFFFFFFFF AND SUB PUSH2 0x15B7 JUMPI PUSH1 0x40 MLOAD PUSH32 0x8C379A000000000000000000000000000000000000000000000000000000000 DUP2 MSTORE PUSH1 0x4 ADD PUSH2 0x15AE SWAP1 PUSH2 0x3DC0 JUMP JUMPDEST PUSH1 0x40 MLOAD DUP1 SWAP2 SUB SWAP1 REVERT JUMPDEST PUSH1 0x0 PUSH1 0x2 DUP2 GT ISZERO PUSH2 0x15CB JUMPI PUSH2 0x15CA PUSH2 0x2D2E JUMP JUMPDEST JUMPDEST DUP2 PUSH1 0x5 ADD PUSH1 0x0 SWAP1 SLOAD SWAP1 PUSH2 0x100 EXP SWAP1 DIV PUSH1 0xFF AND PUSH1 0x2 DUP2 GT ISZERO PUSH2 0x15EF JUMPI PUSH2 0x15EE PUSH2 0x2D2E JUMP JUMPDEST JUMPDEST EQ PUSH2 0x162F JUMPI PUSH1 0x40 MLOAD PUSH32 0x8C379A000000000000000000000000000000000000000000000000000000000 DUP2 MSTORE PUSH1 0x4 ADD PUSH2 0x1626 SWAP1 PUSH2 0x3E52 JUMP JUMPDEST PUSH1 0x40 MLOAD DUP1 SWAP2 SUB SWAP1 REVERT JUMPDEST PUSH1 0x0 PUSH1 0x4 PUSH1 0x0 DUP4 PUSH1 0x1 ADD SLOAD DUP2 MSTORE PUSH1 0x20 ADD SWAP1 DUP2 MSTORE PUSH1 0x20 ADD PUSH1 0x0 KECCAK256 SWAP1 POP PUSH1 0x0 PUSH20 0xFFFFFFFFFFFFFFFFFFFFFFFFFFFFFFFFFFFFFFFF AND DUP2 PUSH1 0x1 ADD PUSH1 0x0 SWAP1 SLOAD SWAP1 PUSH2 0x100 EXP SWAP1 DIV PUSH20 0xFFFFFFFFFFFFFFFFFFFFFFFFFFFFFFFFFFFFFFFF AND PUSH20 0xFFFFFFFFFFFFFFFFFFFFFFFFFFFFFFFFFFFFFFFF AND SUB PUSH2 0x16DD JUMPI PUSH1 0x40 MLOAD PUSH32 0x8C379A000000000000000000000000000000000000000000000000000000000 DUP2 MSTORE PUSH1 0x4 ADD PUSH2 0x16D4 SWAP1 PUSH2 0x3EE4 JUMP JUMPDEST PUSH1 0x40 MLOAD DUP1 SWAP2 SUB SWAP1 REVERT JUMPDEST CALLER DUP3 PUSH1 0x5 ADD PUSH1 0x1 PUSH2 0x100 EXP DUP2 SLOAD DUP2 PUSH20 0xFFFFFFFFFFFFFFFFFFFFFFFFFFFFFFFFFFFFFFFF MUL NOT AND SWAP1 DUP4 PUSH20 0xFFFFFFFFFFFFFFFFFFFFFFFFFFFFFFFFFFFFFFFF AND MUL OR SWAP1 SSTORE POP TIMESTAMP DUP3 PUSH1 0x6 ADD DUP2 SWAP1 SSTORE POP DUP4 ISZERO PUSH2 0x1946 JUMPI PUSH1 0x1 DUP3 PUSH1 0x5 ADD PUSH1 0x0 PUSH2 0x100 EXP DUP2 SLOAD DUP2 PUSH1 0xFF MUL NOT AND SWAP1 DUP4 PUSH1 0x2 DUP2 GT ISZERO PUSH2 0x1757 JUMPI PUSH2 0x1756 PUSH2 0x2D2E JUMP JUMPDEST JUMPDEST MUL OR SWAP1 SSTORE POP DUP1 PUSH1 0x9 ADD PUSH1 0x0 DUP2 SLOAD DUP1 SWAP3 SWAP2 SWAP1 PUSH2 0x1771 SWAP1 PUSH2 0x3A27 JUMP JUMPDEST SWAP2 SWAP1 POP SSTORE POP CALLER PUSH20 0xFFFFFFFFFFFFFFFFFFFFFFFFFFFFFFFFFFFFFFFF AND DUP6 PUSH32 0x5FC817C3F59E2B3C58C33EAC2615CE22C7AF5B3247D3553CE0C3CF3179A7D752 PUSH1 0x1 PUSH1 0x40 MLOAD PUSH2 0x17BE SWAP2 SWAP1 PUSH2 0x3F04 JUMP JUMPDEST PUSH1 0x40 MLOAD DUP1 SWAP2 SUB SWAP1 LOG3 DUP1 PUSH1 0x4 ADD SLOAD DUP2 PUSH1 0x6 ADD SLOAD LT PUSH2 0x1941 JUMPI DUP1 PUSH1 0x4 ADD SLOAD DUP2 PUSH1 0x6 ADD PUSH1 0x0 DUP3 DUP3 SLOAD PUSH2 0x17ED SWAP2 SWAP1 PUSH2 0x3D40 JUMP JUMPDEST SWAP3 POP POP DUP2 SWAP1 SSTORE POP PUSH1 0x0 DUP3 PUSH1 0x2 ADD PUSH1 0x0 SWAP1 SLOAD SWAP1 PUSH2 0x100 EXP SWAP1 DIV PUSH20 0xFFFFFFFFFFFFFFFFFFFFFFFFFFFFFFFFFFFFFFFF AND PUSH20 0xFFFFFFFFFFFFFFFFFFFFFFFFFFFFFFFFFFFFFFFF AND DUP3 PUSH1 0x4 ADD SLOAD PUSH1 0x40 MLOAD PUSH2 0x1842 SWAP1 PUSH2 0x3663 JUMP JUMPDEST PUSH1 0x0 PUSH1 0x40 MLOAD DUP1 DUP4 SUB DUP2 DUP6 DUP8 GAS CALL SWAP3 POP POP POP RETURNDATASIZE DUP1 PUSH1 0x0 DUP2 EQ PUSH2 0x187F JUMPI PUSH1 0x40 MLOAD SWAP2 POP PUSH1 0x1F NOT PUSH1 0x3F RETURNDATASIZE ADD AND DUP3 ADD PUSH1 0x40 MSTORE RETURNDATASIZE DUP3 MSTORE RETURNDATASIZE PUSH1 0x0 PUSH1 0x20 DUP5 ADD RETURNDATACOPY PUSH2 0x1884 JUMP JUMPDEST PUSH1 0x60 SWAP2 POP JUMPDEST POP POP SWAP1 POP DUP1 PUSH2 0x18C8 JUMPI PUSH1 0x40 MLOAD PUSH32 0x8C379A000000000000000000000000000000000000000000000000000000000 DUP2 MSTORE PUSH1 0x4 ADD PUSH2 0x18BF SWAP1 PUSH2 0x3F6B JUMP JUMPDEST PUSH1 0x40 MLOAD DUP1 SWAP2 SUB SWAP1 REVERT JUMPDEST DUP3 PUSH1 0x2 ADD PUSH1 0x0 SWAP1 SLOAD SWAP1 PUSH2 0x100 EXP SWAP1 DIV PUSH20 0xFFFFFFFFFFFFFFFFFFFFFFFFFFFFFFFFFFFFFFFF AND PUSH20 0xFFFFFFFFFFFFFFFFFFFFFFFFFFFFFFFFFFFFFFFF AND DUP7 PUSH32 0x4492FAB062412E7E4E5F46C9E919F1640652946A5E163AD6E6C1C03D87954D2 DUP5 PUSH1 0x4 ADD SLOAD PUSH1 0x40 MLOAD PUSH2 0x1937 SWAP2 SWAP1 PUSH2 0x2EA4 JUMP JUMPDEST PUSH1 0x40 MLOAD DUP1 SWAP2 SUB SWAP1 LOG3 POP JUMPDEST PUSH2 0x19C4 JUMP JUMPDEST PUSH1 0x2 DUP3 PUSH1 0x5 ADD PUSH1 0x0 PUSH2 0x100 EXP DUP2 SLOAD DUP2 PUSH1 0xFF MUL NOT AND SWAP1 DUP4 PUSH1 0x2 DUP2 GT ISZERO PUSH2 0x196E JUMPI PUSH2 0x196D PUSH2 0x2D2E JUMP JUMPDEST JUMPDEST MUL OR SWAP1 SSTORE POP CALLER PUSH20 0xFFFFFFFFFFFFFFFFFFFFFFFFFFFFFFFFFFFFFFFF AND DUP6 PUSH32 0x5FC817C3F59E2B3C58C33EAC2615CE22C7AF5B3247D3553CE0C3CF3179A7D752 PUSH1 0x2 PUSH1 0x40 MLOAD PUSH2 0x19BB SWAP2 SWAP1 PUSH2 0x3F04 JUMP JUMPDEST PUSH1 0x40 MLOAD DUP1 SWAP2 SUB SWAP1 LOG3 JUMPDEST POP POP POP PUSH2 0x19CF PUSH2 0x22EE JUMP JUMPDEST POP POP JUMP JUMPDEST PUSH2 0x19DC DUP3 PUSH2 0x9A6 JUMP JUMPDEST PUSH2 0x19E5 DUP2 PUSH2 0x2294 JUMP JUMPDEST PUSH2 0x19EF DUP4 DUP4 PUSH2 0x23F0 JUMP JUMPDEST POP POP POP POP JUMP JUMPDEST PUSH1 0x0 PUSH1 0x1 PUSH1 0x2 SLOAD PUSH2 0x1A06 SWAP2 SWAP1 PUSH2 0x3D40 JUMP JUMPDEST SWAP1 POP SWAP1 JUMP JUMPDEST PUSH1 0x0 SELFBALANCE SWAP1 POP SWAP1 JUMP JUMPDEST PUSH1 0x0 PUSH2 0x1A1D PUSH2 0x22A8 JUMP JUMPDEST PUSH1 0x0 PUSH1 0x4 PUSH1 0x0 DUP6 DUP2 MSTORE PUSH1 0x20 ADD SWAP1 DUP2 MSTORE PUSH1 0x20 ADD PUSH1 0x0 KECCAK256 SWAP1 POP PUSH1 0x0 PUSH20 0xFFFFFFFFFFFFFFFFFFFFFFFFFFFFFFFFFFFFFFFF AND DUP2 PUSH1 0x1 ADD PUSH1 0x0 SWAP1 SLOAD SWAP1 PUSH2 0x100 EXP SWAP1 DIV PUSH20 0xFFFFFFFFFFFFFFFFFFFFFFFFFFFFFFFFFFFFFFFF AND PUSH20 0xFFFFFFFFFFFFFFFFFFFFFFFFFFFFFFFFFFFFFFFF AND SUB PUSH2 0x1AC7 JUMPI PUSH1 0x40 MLOAD PUSH32 0x8C379A000000000000000000000000000000000000000000000000000000000 DUP2 MSTORE PUSH1 0x4 ADD PUSH2 0x1ABE SWAP1 PUSH2 0x3FD7 JUMP JUMPDEST PUSH1 0x40 MLOAD DUP1 SWAP2 SUB SWAP1 REVERT JUMPDEST DUP1 PUSH1 0x7 ADD PUSH1 0x0 SWAP1 SLOAD SWAP1 PUSH2 0x100 EXP SWAP1 DIV PUSH1 0xFF AND PUSH2 0x1B18 JUMPI PUSH1 0x40 MLOAD PUSH32 0x8C379A000000000000000000000000000000000000000000000000000000000 DUP2 MSTORE PUSH1 0x4 ADD PUSH2 0x1B0F SWAP1 PUSH2 0x4069 JUMP JUMPDEST PUSH1 0x40 MLOAD DUP1 SWAP2 SUB SWAP1 REVERT JUMPDEST PUSH1 0x0 DUP4 MLOAD GT PUSH2 0x1B5C JUMPI PUSH1 0x40 MLOAD PUSH32 0x8C379A000000000000000000000000000000000000000000000000000000000 DUP2 MSTORE PUSH1 0x4 ADD PUSH2 0x1B53 SWAP1 PUSH2 0x40FB JUMP JUMPDEST PUSH1 0x40 MLOAD DUP1 SWAP2 SUB SWAP1 REVERT JUMPDEST PUSH1 0x3 PUSH1 0x0 DUP2 SLOAD DUP1 SWAP3 SWAP2 SWAP1 PUSH2 0x1B6F SWAP1 PUSH2 0x3A27 JUMP JUMPDEST SWAP2 SWAP1 POP SSTORE SWAP2 POP PUSH1 0x40 MLOAD DUP1 PUSH2 0x100 ADD PUSH1 0x40 MSTORE DUP1 DUP4 DUP2 MSTORE PUSH1 0x20 ADD DUP6 DUP2 MSTORE PUSH1 0x20 ADD CALLER PUSH20 0xFFFFFFFFFFFFFFFFFFFFFFFFFFFFFFFFFFFFFFFF AND DUP2 MSTORE PUSH1 0x20 ADD DUP5 DUP2 MSTORE PUSH1 0x20 ADD TIMESTAMP DUP2 MSTORE PUSH1 0x20 ADD PUSH1 0x0 PUSH1 0x2 DUP2 GT ISZERO PUSH2 0x1BC9 JUMPI PUSH2 0x1BC8 PUSH2 0x2D2E JUMP JUMPDEST JUMPDEST DUP2 MSTORE PUSH1 0x20 ADD PUSH1 0x0 PUSH20 0xFFFFFFFFFFFFFFFFFFFFFFFFFFFFFFFFFFFFFFFF AND DUP2 MSTORE PUSH1 0x20 ADD PUSH1 0x0 DUP2 MSTORE POP PUSH1 0x5 PUSH1 0x0 DUP5 DUP2 MSTORE PUSH1 0x20 ADD SWAP1 DUP2 MSTORE PUSH1 0x20 ADD PUSH1 0x0 KECCAK256 PUSH1 0x0 DUP3 ADD MLOAD DUP2 PUSH1 0x0 ADD SSTORE PUSH1 0x20 DUP3 ADD MLOAD DUP2 PUSH1 0x1 ADD SSTORE PUSH1 0x40 DUP3 ADD MLOAD DUP2 PUSH1 0x2 ADD PUSH1 0x0 PUSH2 0x100 EXP DUP2 SLOAD DUP2 PUSH20 0xFFFFFFFFFFFFFFFFFFFFFFFFFFFFFFFFFFFFFFFF MUL NOT AND SWAP1 DUP4 PUSH20 0xFFFFFFFFFFFFFFFFFFFFFFFFFFFFFFFFFFFFFFFF AND MUL OR SWAP1 SSTORE POP PUSH1 0x60 DUP3 ADD MLOAD DUP2 PUSH1 0x3 ADD SWAP1 DUP1 MLOAD SWAP1 PUSH1 0x20 ADD SWAP1 PUSH2 0x1C7A SWAP3 SWAP2 SWAP1 PUSH2 0x2620 JUMP JUMPDEST POP PUSH1 0x80 DUP3 ADD MLOAD DUP2 PUSH1 0x4 ADD SSTORE PUSH1 0xA0 DUP3 ADD MLOAD DUP2 PUSH1 0x5 ADD PUSH1 0x0 PUSH2 0x100 EXP DUP2 SLOAD DUP2 PUSH1 0xFF MUL NOT AND SWAP1 DUP4 PUSH1 0x2 DUP2 GT ISZERO PUSH2 0x1CB0 JUMPI PUSH2 0x1CAF PUSH2 0x2D2E JUMP JUMPDEST JUMPDEST MUL OR SWAP1 SSTORE POP PUSH1 0xC0 DUP3 ADD MLOAD DUP2 PUSH1 0x5 ADD PUSH1 0x1 PUSH2 0x100 EXP DUP2 SLOAD DUP2 PUSH20 0xFFFFFFFFFFFFFFFFFFFFFFFFFFFFFFFFFFFFFFFF MUL NOT AND SWAP1 DUP4 PUSH20 0xFFFFFFFFFFFFFFFFFFFFFFFFFFFFFFFFFFFFFFFF AND MUL OR SWAP1 SSTORE POP PUSH1 0xE0 DUP3 ADD MLOAD DUP2 PUSH1 0x6 ADD SSTORE SWAP1 POP POP PUSH1 0x6 PUSH1 0x0 DUP6 DUP2 MSTORE PUSH1 0x20 ADD SWAP1 DUP2 MSTORE PUSH1 0x20 ADD PUSH1 0x0 KECCAK256 DUP3 SWAP1 DUP1 PUSH1 0x1 DUP2 SLOAD ADD DUP1 DUP3 SSTORE DUP1 SWAP2 POP POP PUSH1 0x1 SWAP1 SUB SWAP1 PUSH1 0x0 MSTORE PUSH1 0x20 PUSH1 0x0 KECCAK256 ADD PUSH1 0x0 SWAP1 SWAP2 SWAP1 SWAP2 SWAP1 SWAP2 POP SSTORE PUSH1 0x7 PUSH1 0x0 CALLER PUSH20 0xFFFFFFFFFFFFFFFFFFFFFFFFFFFFFFFFFFFFFFFF AND PUSH20 0xFFFFFFFFFFFFFFFFFFFFFFFFFFFFFFFFFFFFFFFF AND DUP2 MSTORE PUSH1 0x20 ADD SWAP1 DUP2 MSTORE PUSH1 0x20 ADD PUSH1 0x0 KECCAK256 DUP3 SWAP1 DUP1 PUSH1 0x1 DUP2 SLOAD ADD DUP1 DUP3 SSTORE DUP1 SWAP2 POP POP PUSH1 0x1 SWAP1 SUB SWAP1 PUSH1 0x0 MSTORE PUSH1 0x20 PUSH1 0x0 KECCAK256 ADD PUSH1 0x0 SWAP1 SWAP2 SWAP1 SWAP2 SWAP1 SWAP2 POP SSTORE DUP1 PUSH1 0x8 ADD PUSH1 0x0 DUP2 SLOAD DUP1 SWAP3 SWAP2 SWAP1 PUSH2 0x1DBE SWAP1 PUSH2 0x3A27 JUMP JUMPDEST SWAP2 SWAP1 POP SSTORE POP CALLER PUSH20 0xFFFFFFFFFFFFFFFFFFFFFFFFFFFFFFFFFFFFFFFF AND DUP5 DUP4 PUSH32 0x86658D7FD18FBE121083B046F1146232962CE224D906B49A1D8F2B2D1D84E956 DUP7 PUSH1 0x40 MLOAD PUSH2 0x1E0B SWAP2 SWAP1 PUSH2 0x41A1 JUMP JUMPDEST PUSH1 0x40 MLOAD DUP1 SWAP2 SUB SWAP1 LOG4 POP PUSH2 0x1E1C PUSH2 0x22EE JUMP JUMPDEST SWAP3 SWAP2 POP POP JUMP JUMPDEST PUSH2 0x1E2A PUSH2 0x2679 JUMP JUMPDEST PUSH1 0x4 PUSH1 0x0 DUP4 DUP2 MSTORE PUSH1 0x20 ADD SWAP1 DUP2 MSTORE PUSH1 0x20 ADD PUSH1 0x0 KECCAK256 PUSH1 0x40 MLOAD DUP1 PUSH2 0x140 ADD PUSH1 0x40 MSTORE SWAP1 DUP2 PUSH1 0x0 DUP3 ADD SLOAD DUP2 MSTORE PUSH1 0x20 ADD PUSH1 0x1 DUP3 ADD PUSH1 0x0 SWAP1 SLOAD SWAP1 PUSH2 0x100 EXP SWAP1 DIV PUSH20 0xFFFFFFFFFFFFFFFFFFFFFFFFFFFFFFFFFFFFFFFF AND PUSH20 0xFFFFFFFFFFFFFFFFFFFFFFFFFFFFFFFFFFFFFFFF AND PUSH20 0xFFFFFFFFFFFFFFFFFFFFFFFFFFFFFFFFFFFFFFFF AND DUP2 MSTORE PUSH1 0x20 ADD PUSH1 0x2 DUP3 ADD DUP1 SLOAD PUSH2 0x1EB9 SWAP1 PUSH2 0x3739 JUMP JUMPDEST DUP1 PUSH1 0x1F ADD PUSH1 0x20 DUP1 SWAP2 DIV MUL PUSH1 0x20 ADD PUSH1 0x40 MLOAD SWAP1 DUP2 ADD PUSH1 0x40 MSTORE DUP1 SWAP3 SWAP2 SWAP1 DUP2 DUP2 MSTORE PUSH1 0x20 ADD DUP3 DUP1 SLOAD PUSH2 0x1EE5 SWAP1 PUSH2 0x3739 JUMP JUMPDEST DUP1 ISZERO PUSH2 0x1F32 JUMPI DUP1 PUSH1 0x1F LT PUSH2 0x1F07 JUMPI PUSH2 0x100 DUP1 DUP4 SLOAD DIV MUL DUP4 MSTORE SWAP2 PUSH1 0x20 ADD SWAP2 PUSH2 0x1F32 JUMP JUMPDEST DUP3 ADD SWAP2 SWAP1 PUSH1 0x0 MSTORE PUSH1 0x20 PUSH1 0x0 KECCAK256 SWAP1 JUMPDEST DUP2 SLOAD DUP2 MSTORE SWAP1 PUSH1 0x1 ADD SWAP1 PUSH1 0x20 ADD DUP1 DUP4 GT PUSH2 0x1F15 JUMPI DUP3 SWAP1 SUB PUSH1 0x1F AND DUP3 ADD SWAP2 JUMPDEST POP POP POP POP POP DUP2 MSTORE PUSH1 0x20 ADD PUSH1 0x3 DUP3 ADD DUP1 SLOAD PUSH2 0x1F4B SWAP1 PUSH2 0x3739 JUMP JUMPDEST DUP1 PUSH1 0x1F ADD PUSH1 0x20 DUP1 SWAP2 DIV MUL PUSH1 0x20 ADD PUSH1 0x40 MLOAD SWAP1 DUP2 ADD PUSH1 0x40 MSTORE DUP1 SWAP3 SWAP2 SWAP1 DUP2 DUP2 MSTORE PUSH1 0x20 ADD DUP3 DUP1 SLOAD PUSH2 0x1F77 SWAP1 PUSH2 0x3739 JUMP JUMPDEST DUP1 ISZERO PUSH2 0x1FC4 JUMPI DUP1 PUSH1 0x1F LT PUSH2 0x1F99 JUMPI PUSH2 0x100 DUP1 DUP4 SLOAD DIV MUL DUP4 MSTORE SWAP2 PUSH1 0x20 ADD SWAP2 PUSH2 0x1FC4 JUMP JUMPDEST DUP3 ADD SWAP2 SWAP1 PUSH1 0x0 MSTORE PUSH1 0x20 PUSH1 0x0 KECCAK256 SWAP1 JUMPDEST DUP2 SLOAD DUP2 MSTORE SWAP1 PUSH1 0x1 ADD SWAP1 PUSH1 0x20 ADD DUP1 DUP4 GT PUSH2 0x1FA7 JUMPI DUP3 SWAP1 SUB PUSH1 0x1F AND DUP3 ADD SWAP2 JUMPDEST POP POP POP POP POP DUP2 MSTORE PUSH1 0x20 ADD PUSH1 0x4 DUP3 ADD SLOAD DUP2 MSTORE PUSH1 0x20 ADD PUSH1 0x5 DUP3 ADD SLOAD DUP2 MSTORE PUSH1 0x20 ADD PUSH1 0x6 DUP3 ADD SLOAD DUP2 MSTORE PUSH1 0x20 ADD PUSH1 0x7 DUP3 ADD PUSH1 0x0 SWAP1 SLOAD SWAP1 PUSH2 0x100 EXP SWAP1 DIV PUSH1 0xFF AND ISZERO ISZERO ISZERO ISZERO DUP2 MSTORE PUSH1 0x20 ADD PUSH1 0x8 DUP3 ADD SLOAD DUP2 MSTORE PUSH1 0x20 ADD PUSH1 0x9 DUP3 ADD SLOAD DUP2 MSTORE POP POP SWAP1 POP SWAP2 SWAP1 POP JUMP JUMPDEST PUSH1 0x0 PUSH1 0x4 PUSH1 0x0 DUP5 DUP2 MSTORE PUSH1 0x20 ADD SWAP1 DUP2 MSTORE PUSH1 0x20 ADD PUSH1 0x0 KECCAK256 SWAP1 POP PUSH1 0x0 PUSH20 0xFFFFFFFFFFFFFFFFFFFFFFFFFFFFFFFFFFFFFFFF AND DUP2 PUSH1 0x1 ADD PUSH1 0x0 SWAP1 SLOAD SWAP1 PUSH2 0x100 EXP SWAP1 DIV PUSH20 0xFFFFFFFFFFFFFFFFFFFFFFFFFFFFFFFFFFFFFFFF AND PUSH20 0xFFFFFFFFFFFFFFFFFFFFFFFFFFFFFFFFFFFFFFFF AND SUB PUSH2 0x20CB JUMPI PUSH1 0x40 MLOAD PUSH32 0x8C379A000000000000000000000000000000000000000000000000000000000 DUP2 MSTORE PUSH1 0x4 ADD PUSH2 0x20C2 SWAP1 PUSH2 0x3FD7 JUMP JUMPDEST PUSH1 0x40 MLOAD DUP1 SWAP2 SUB SWAP1 REVERT JUMPDEST DUP1 PUSH1 0x1 ADD PUSH1 0x0 SWAP1 SLOAD SWAP1 PUSH2 0x100 EXP SWAP1 DIV PUSH20 0xFFFFFFFFFFFFFFFFFFFFFFFFFFFFFFFFFFFFFFFF AND PUSH20 0xFFFFFFFFFFFFFFFFFFFFFFFFFFFFFFFFFFFFFFFF AND CALLER PUSH20 0xFFFFFFFFFFFFFFFFFFFFFFFFFFFFFFFFFFFFFFFF AND EQ DUP1 PUSH2 0x2132 JUMPI POP PUSH2 0x2131 PUSH1 0x0 DUP1 SHL CALLER PUSH2 0x12D9 JUMP JUMPDEST JUMPDEST PUSH2 0x2171 JUMPI PUSH1 0x40 MLOAD PUSH32 0x8C379A000000000000000000000000000000000000000000000000000000000 DUP2 MSTORE PUSH1 0x4 ADD PUSH2 0x2168 SWAP1 PUSH2 0x4235 JUMP JUMPDEST PUSH1 0x40 MLOAD DUP1 SWAP2 SUB SWAP1 REVERT JUMPDEST DUP2 ISZERO ISZERO DUP2 PUSH1 0x7 ADD PUSH1 0x0 SWAP1 SLOAD SWAP1 PUSH2 0x100 EXP SWAP1 DIV PUSH1 0xFF AND ISZERO ISZERO EQ PUSH2 0x21E2 JUMPI DUP2 DUP2 PUSH1 0x7 ADD PUSH1 0x0 PUSH2 0x100 EXP DUP2 SLOAD DUP2 PUSH1 0xFF MUL NOT AND SWAP1 DUP4 ISZERO ISZERO MUL OR SWAP1 SSTORE POP DUP3 PUSH32 0x4C933DBE12F0E4C9F63FF7CB04CE9A6AB57870BE545E718CCA62CF8C9C38D503 DUP4 PUSH1 0x40 MLOAD PUSH2 0x21D9 SWAP2 SWAP1 PUSH2 0x2896 JUMP JUMPDEST PUSH1 0x40 MLOAD DUP1 SWAP2 SUB SWAP1 LOG2 JUMPDEST POP POP POP JUMP JUMPDEST PUSH1 0x0 PUSH2 0x2213 PUSH32 0x21702C8AF46127C7FA207F89D0B0A8441BB32959A0AC7DF790E9AB1A25C98926 DUP4 PUSH2 0x12D9 JUMP JUMPDEST SWAP1 POP SWAP2 SWAP1 POP JUMP JUMPDEST PUSH1 0x0 PUSH32 0x7965DB0B00000000000000000000000000000000000000000000000000000000 PUSH28 0xFFFFFFFFFFFFFFFFFFFFFFFFFFFFFFFFFFFFFFFFFFFFFFFFFFFFFFFF NOT AND DUP3 PUSH28 0xFFFFFFFFFFFFFFFFFFFFFFFFFFFFFFFFFFFFFFFFFFFFFFFFFFFFFFFF NOT AND EQ DUP1 PUSH2 0x228D JUMPI POP PUSH2 0x228C DUP3 PUSH2 0x24E2 JUMP JUMPDEST JUMPDEST SWAP1 POP SWAP2 SWAP1 POP JUMP JUMPDEST PUSH2 0x22A5 DUP2 PUSH2 0x22A0 PUSH2 0x23E8 JUMP JUMPDEST PUSH2 0x254C JUMP JUMPDEST POP JUMP JUMPDEST PUSH1 0x2 PUSH1 0x1 SLOAD SUB PUSH2 0x22E4 JUMPI PUSH1 0x40 MLOAD PUSH32 0x3EE5AEB500000000000000000000000000000000000000000000000000000000 DUP2 MSTORE PUSH1 0x4 ADD PUSH1 0x40 MLOAD DUP1 SWAP2 SUB SWAP1 REVERT JUMPDEST PUSH1 0x2 PUSH1 0x1 DUP2 SWAP1 SSTORE POP JUMP JUMPDEST PUSH1 0x1 DUP1 DUP2 SWAP1 SSTORE POP JUMP JUMPDEST PUSH1 0x0 PUSH2 0x2303 DUP4 DUP4 PUSH2 0x12D9 JUMP JUMPDEST PUSH2 0x23DD JUMPI PUSH1 0x1 PUSH1 0x0 DUP1 DUP6 DUP2 MSTORE PUSH1 0x20 ADD SWAP1 DUP2 MSTORE PUSH1 0x20 ADD PUSH1 0x0 KECCAK256 PUSH1 0x0 ADD PUSH1 0x0 DUP5 PUSH20 0xFFFFFFFFFFFFFFFFFFFFFFFFFFFFFFFFFFFFFFFF AND PUSH20 0xFFFFFFFFFFFFFFFFFFFFFFFFFFFFFFFFFFFFFFFF AND DUP2 MSTORE PUSH1 0x20 ADD SWAP1 DUP2 MSTORE PUSH1 0x20 ADD PUSH1 0x0 KECCAK256 PUSH1 0x0 PUSH2 0x100 EXP DUP2 SLOAD DUP2 PUSH1 0xFF MUL NOT AND SWAP1 DUP4 ISZERO ISZERO MUL OR SWAP1 SSTORE POP PUSH2 0x237A PUSH2 0x23E8 JUMP JUMPDEST PUSH20 0xFFFFFFFFFFFFFFFFFFFFFFFFFFFFFFFFFFFFFFFF AND DUP3 PUSH20 0xFFFFFFFFFFFFFFFFFFFFFFFFFFFFFFFFFFFFFFFF AND DUP5 PUSH32 0x2F8788117E7EFF1D82E926EC794901D17C78024A50270940304540A733656F0D PUSH1 0x40 MLOAD PUSH1 0x40 MLOAD DUP1 SWAP2 SUB SWAP1 LOG4 PUSH1 0x1 SWAP1 POP PUSH2 0x23E2 JUMP JUMPDEST PUSH1 0x0 SWAP1 POP JUMPDEST SWAP3 SWAP2 POP POP JUMP JUMPDEST PUSH1 0x0 CALLER SWAP1 POP SWAP1 JUMP JUMPDEST PUSH1 0x0 PUSH2 0x23FC DUP4 DUP4 PUSH2 0x12D9 JUMP JUMPDEST ISZERO PUSH2 0x24D7 JUMPI PUSH1 0x0 DUP1 PUSH1 0x0 DUP6 DUP2 MSTORE PUSH1 0x20 ADD SWAP1 DUP2 MSTORE PUSH1 0x20 ADD PUSH1 0x0 KECCAK256 PUSH1 0x0 ADD PUSH1 0x0 DUP5 PUSH20 0xFFFFFFFFFFFFFFFFFFFFFFFFFFFFFFFFFFFFFFFF AND PUSH20 0xFFFFFFFFFFFFFFFFFFFFFFFFFFFFFFFFFFFFFFFF AND DUP2 MSTORE PUSH1 0x20 ADD SWAP1 DUP2 MSTORE PUSH1 0x20 ADD PUSH1 0x0 KECCAK256 PUSH1 0x0 PUSH2 0x100 EXP DUP2 SLOAD DUP2 PUSH1 0xFF MUL NOT AND SWAP1 DUP4 ISZERO ISZERO MUL OR SWAP1 SSTORE POP PUSH2 0x2474 PUSH2 0x23E8 JUMP JUMPDEST PUSH20 0xFFFFFFFFFFFFFFFFFFFFFFFFFFFFFFFFFFFFFFFF AND DUP3 PUSH20 0xFFFFFFFFFFFFFFFFFFFFFFFFFFFFFFFFFFFFFFFF AND DUP5 PUSH32 0xF6391F5C32D9C69D2A47EA670B442974B53935D1EDC7FD64EB21E047A839171B PUSH1 0x40 MLOAD PUSH1 0x40 MLOAD DUP1 SWAP2 SUB SWAP1 LOG4 PUSH1 0x1 SWAP1 POP PUSH2 0x24DC JUMP JUMPDEST PUSH1 0x0 SWAP1 POP JUMPDEST SWAP3 SWAP2 POP POP JUMP JUMPDEST PUSH1 0x0 PUSH32 0x1FFC9A700000000000000000000000000000000000000000000000000000000 PUSH28 0xFFFFFFFFFFFFFFFFFFFFFFFFFFFFFFFFFFFFFFFFFFFFFFFFFFFFFFFF NOT AND DUP3 PUSH28 0xFFFFFFFFFFFFFFFFFFFFFFFFFFFFFFFFFFFFFFFFFFFFFFFFFFFFFFFF NOT AND EQ SWAP1 POP SWAP2 SWAP1 POP JUMP JUMPDEST PUSH2 0x2556 DUP3 DUP3 PUSH2 0x12D9 JUMP JUMPDEST PUSH2 0x2599 JUMPI DUP1 DUP3 PUSH1 0x40 MLOAD PUSH32 0xE2517D3F00000000000000000000000000000000000000000000000000000000 DUP2 MSTORE PUSH1 0x4 ADD PUSH2 0x2590 SWAP3 SWAP2 SWAP1 PUSH2 0x4255 JUMP JUMPDEST PUSH1 0x40 MLOAD DUP1 SWAP2 SUB SWAP1 REVERT JUMPDEST POP POP JUMP JUMPDEST PUSH1 0x40 MLOAD DUP1 PUSH2 0x100 ADD PUSH1 0x40 MSTORE DUP1 PUSH1 0x0 DUP2 MSTORE PUSH1 0x20 ADD PUSH1 0x0 DUP2 MSTORE PUSH1 0x20 ADD PUSH1 0x0 PUSH20 0xFFFFFFFFFFFFFFFFFFFFFFFFFFFFFFFFFFFFFFFF AND DUP2 MSTORE PUSH1 0x20 ADD PUSH1 0x60 DUP2 MSTORE PUSH1 0x20 ADD PUSH1 0x0 DUP2 MSTORE PUSH1 0x20 ADD PUSH1 0x0 PUSH1 0x2 DUP2 GT ISZERO PUSH2 0x25F6 JUMPI PUSH2 0x25F5 PUSH2 0x2D2E JUMP JUMPDEST JUMPDEST DUP2 MSTORE PUSH1 0x20 ADD PUSH1 0x0 PUSH20 0xFFFFFFFFFFFFFFFFFFFFFFFFFFFFFFFFFFFFFFFF AND DUP2 MSTORE PUSH1 0x20 ADD PUSH1 0x0 DUP2 MSTORE POP SWAP1 JUMP JUMPDEST DUP3 DUP1 SLOAD DUP3 DUP3 SSTORE SWAP1 PUSH1 0x0 MSTORE PUSH1 0x20 PUSH1 0x0 KECCAK256 SWAP1 DUP2 ADD SWAP3 DUP3 ISZERO PUSH2 0x2668 JUMPI SWAP2 PUSH1 0x20 MUL DUP3 ADD JUMPDEST DUP3 DUP2 GT ISZERO PUSH2 0x2667 JUMPI DUP3 MLOAD DUP3 SWAP1 DUP2 PUSH2 0x2657 SWAP2 SWAP1 PUSH2 0x3C1B JUMP JUMPDEST POP SWAP2 PUSH1 0x20 ADD SWAP2 SWAP1 PUSH1 0x1 ADD SWAP1 PUSH2 0x2640 JUMP JUMPDEST JUMPDEST POP SWAP1 POP PUSH2 0x2675 SWAP2 SWAP1 PUSH2 0x26E4 JUMP JUMPDEST POP SWAP1 JUMP JUMPDEST PUSH1 0x40 MLOAD DUP1 PUSH2 0x140 ADD PUSH1 0x40 MSTORE DUP1 PUSH1 0x0 DUP2 MSTORE PUSH1 0x20 ADD PUSH1 0x0 PUSH20 0xFFFFFFFFFFFFFFFFFFFFFFFFFFFFFFFFFFFFFFFF AND DUP2 MSTORE PUSH1 0x20 ADD PUSH1 0x60 DUP2 MSTORE PUSH1 0x20 ADD PUSH1 0x60 DUP2 MSTORE PUSH1 0x20 ADD PUSH1 0x0 DUP2 MSTORE PUSH1 0x20 ADD PUSH1 0x0 DUP2 MSTORE PUSH1 0x20 ADD PUSH1 0x0 DUP2 MSTORE PUSH1 0x20 ADD PUSH1 0x0 ISZERO ISZERO DUP2 MSTORE PUSH1 0x20 ADD PUSH1 0x0 DUP2 MSTORE PUSH1 0x20 ADD PUSH1 0x0 DUP2 MSTORE POP SWAP1 JUMP JUMPDEST JUMPDEST DUP1 DUP3 GT ISZERO PUSH2 0x2704 JUMPI PUSH1 0x0 DUP2 DUP2 PUSH2 0x26FB SWAP2 SWAP1 PUSH2 0x2708 JUMP JUMPDEST POP PUSH1 0x1 ADD PUSH2 0x26E5 JUMP JUMPDEST POP SWAP1 JUMP JUMPDEST POP DUP1 SLOAD PUSH2 0x2714 SWAP1 PUSH2 0x3739 JUMP JUMPDEST PUSH1 0x0 DUP3 SSTORE DUP1 PUSH1 0x1F LT PUSH2 0x2726 JUMPI POP PUSH2 0x2745 JUMP JUMPDEST PUSH1 0x1F ADD PUSH1 0x20 SWAP1 DIV SWAP1 PUSH1 0x0 MSTORE PUSH1 0x20 PUSH1 0x0 KECCAK256 SWAP1 DUP2 ADD SWAP1 PUSH2 0x2744 SWAP2 SWAP1 PUSH2 0x2748 JUMP JUMPDEST JUMPDEST POP JUMP JUMPDEST JUMPDEST DUP1 DUP3 GT ISZERO PUSH2 0x2761 JUMPI PUSH1 0x0 DUP2 PUSH1 0x0 SWAP1 SSTORE POP PUSH1 0x1 ADD PUSH2 0x2749 JUMP JUMPDEST POP SWAP1 JUMP JUMPDEST PUSH1 0x0 DUP3 DUP3 MSTORE PUSH1 0x20 DUP3 ADD SWAP1 POP SWAP3 SWAP2 POP POP JUMP JUMPDEST PUSH32 0x51756F72696F6E3A2046756E6374696F6E20646F6573206E6F74206578697374 PUSH1 0x0 DUP3 ADD MSTORE POP JUMP JUMPDEST PUSH1 0x0 PUSH2 0x27AC PUSH1 0x20 DUP4 PUSH2 0x2765 JUMP JUMPDEST SWAP2 POP PUSH2 0x27B7 DUP3 PUSH2 0x2776 JUMP JUMPDEST PUSH1 0x20 DUP3 ADD SWAP1 POP SWAP2 SWAP1 POP JUMP JUMPDEST PUSH1 0x0 PUSH1 0x20 DUP3 ADD SWAP1 POP DUP2 DUP2 SUB PUSH1 0x0 DUP4 ADD MSTORE PUSH2 0x27DB DUP2 PUSH2 0x279F JUMP JUMPDEST SWAP1 POP SWAP2 SWAP1 POP JUMP JUMPDEST PUSH1 0x0 PUSH1 0x40 MLOAD SWAP1 POP SWAP1 JUMP JUMPDEST PUSH1 0x0 DUP1 REVERT JUMPDEST PUSH1 0x0 DUP1 REVERT JUMPDEST PUSH1 0x0 PUSH32 0xFFFFFFFF00000000000000000000000000000000000000000000000000000000 DUP3 AND SWAP1 POP SWAP2 SWAP1 POP JUMP JUMPDEST PUSH2 0x282B DUP2 PUSH2 0x27F6 JUMP JUMPDEST DUP2 EQ PUSH2 0x2836 JUMPI PUSH1 0x0 DUP1 REVERT JUMPDEST POP JUMP JUMPDEST PUSH1 0x0 DUP2 CALLDATALOAD SWAP1 POP PUSH2 0x2848 DUP2 PUSH2 0x2822 JUMP JUMPDEST SWAP3 SWAP2 POP POP JUMP JUMPDEST PUSH1 0x0 PUSH1 0x20 DUP3 DUP5 SUB SLT ISZERO PUSH2 0x2864 JUMPI PUSH2 0x2863 PUSH2 0x27EC JUMP JUMPDEST JUMPDEST PUSH1 0x0 PUSH2 0x2872 DUP5 DUP3 DUP6 ADD PUSH2 0x2839 JUMP JUMPDEST SWAP2 POP POP SWAP3 SWAP2 POP POP JUMP JUMPDEST PUSH1 0x0 DUP2 ISZERO ISZERO SWAP1 POP SWAP2 SWAP1 POP JUMP JUMPDEST PUSH2 0x2890 DUP2 PUSH2 0x287B JUMP JUMPDEST DUP3 MSTORE POP POP JUMP JUMPDEST PUSH1 0x0 PUSH1 0x20 DUP3 ADD SWAP1 POP PUSH2 0x28AB PUSH1 0x0 DUP4 ADD DUP5 PUSH2 0x2887 JUMP JUMPDEST SWAP3 SWAP2 POP POP JUMP JUMPDEST PUSH1 0x0 PUSH20 0xFFFFFFFFFFFFFFFFFFFFFFFFFFFFFFFFFFFFFFFF DUP3 AND SWAP1 POP SWAP2 SWAP1 POP JUMP JUMPDEST PUSH1 0x0 PUSH2 0x28DC DUP3 PUSH2 0x28B1 JUMP JUMPDEST SWAP1 POP SWAP2 SWAP1 POP JUMP JUMPDEST PUSH2 0x28EC DUP2 PUSH2 0x28D1 JUMP JUMPDEST DUP2 EQ PUSH2 0x28F7 JUMPI PUSH1 0x0 DUP1 REVERT JUMPDEST POP JUMP JUMPDEST PUSH1 0x0 DUP2 CALLDATALOAD SWAP1 POP PUSH2 0x2909 DUP2 PUSH2 0x28E3 JUMP JUMPDEST SWAP3 SWAP2 POP POP JUMP JUMPDEST PUSH1 0x0 DUP2 SWAP1 POP SWAP2 SWAP1 POP JUMP JUMPDEST PUSH2 0x2922 DUP2 PUSH2 0x290F JUMP JUMPDEST DUP2 EQ PUSH2 0x292D JUMPI PUSH1 0x0 DUP1 REVERT JUMPDEST POP JUMP JUMPDEST PUSH1 0x0 DUP2 CALLDATALOAD SWAP1 POP PUSH2 0x293F DUP2 PUSH2 0x2919 JUMP JUMPDEST SWAP3 SWAP2 POP POP JUMP JUMPDEST PUSH1 0x0 DUP1 PUSH1 0x40 DUP4 DUP6 SUB SLT ISZERO PUSH2 0x295C JUMPI PUSH2 0x295B PUSH2 0x27EC JUMP JUMPDEST JUMPDEST PUSH1 0x0 PUSH2 0x296A DUP6 DUP3 DUP7 ADD PUSH2 0x28FA JUMP JUMPDEST SWAP3 POP POP PUSH1 0x20 PUSH2 0x297B DUP6 DUP3 DUP7 ADD PUSH2 0x2930 JUMP JUMPDEST SWAP2 POP POP SWAP3 POP SWAP3 SWAP1 POP JUMP JUMPDEST PUSH1 0x0 DUP2 SWAP1 POP SWAP2 SWAP1 POP JUMP JUMPDEST PUSH2 0x2998 DUP2 PUSH2 0x2985 JUMP JUMPDEST DUP2 EQ PUSH2 0x29A3 JUMPI PUSH1 0x0 DUP1 REVERT JUMPDEST POP JUMP JUMPDEST PUSH1 0x0 DUP2 CALLDATALOAD SWAP1 POP PUSH2 0x29B5 DUP2 PUSH2 0x298F JUMP JUMPDEST SWAP3 SWAP2 POP POP JUMP JUMPDEST PUSH1 0x0 PUSH1 0x20 DUP3 DUP5 SUB SLT ISZERO PUSH2 0x29D1 JUMPI PUSH2 0x29D0 PUSH2 0x27EC JUMP JUMPDEST JUMPDEST PUSH1 0x0 PUSH2 0x29DF DUP5 DUP3 DUP6 ADD PUSH2 0x29A6 JUMP JUMPDEST SWAP2 POP POP SWAP3 SWAP2 POP POP JUMP JUMPDEST PUSH2 0x29F1 DUP2 PUSH2 0x2985 JUMP JUMPDEST DUP3 MSTORE POP POP JUMP JUMPDEST PUSH1 0x0 PUSH1 0x20 DUP3 ADD SWAP1 POP PUSH2 0x2A0C PUSH1 0x0 DUP4 ADD DUP5 PUSH2 0x29E8 JUMP JUMPDEST SWAP3 SWAP2 POP POP JUMP JUMPDEST PUSH1 0x0 PUSH1 0x20 DUP3 DUP5 SUB SLT ISZERO PUSH2 0x2A28 JUMPI PUSH2 0x2A27 PUSH2 0x27EC JUMP JUMPDEST JUMPDEST PUSH1 0x0 PUSH2 0x2A36 DUP5 DUP3 DUP6 ADD PUSH2 0x2930 JUMP JUMPDEST SWAP2 POP POP SWAP3 SWAP2 POP POP JUMP JUMPDEST PUSH2 0x2A48 DUP2 PUSH2 0x290F JUMP JUMPDEST DUP3 MSTORE POP POP JUMP JUMPDEST PUSH1 0x0 PUSH2 0x2A59 DUP3 PUSH2 0x28B1 JUMP JUMPDEST SWAP1 POP SWAP2 SWAP1 POP JUMP JUMPDEST PUSH2 0x2A69 DUP2 PUSH2 0x2A4E JUMP JUMPDEST DUP3 MSTORE POP POP JUMP JUMPDEST PUSH1 0x0 DUP2 MLOAD SWAP1 POP SWAP2 SWAP1 POP JUMP JUMPDEST PUSH1 0x0 JUMPDEST DUP4 DUP2 LT ISZERO PUSH2 0x2A98 JUMPI DUP1 DUP3 ADD MLOAD DUP2 DUP5 ADD MSTORE PUSH1 0x20 DUP2 ADD SWAP1 POP PUSH2 0x2A7D JUMP JUMPDEST PUSH1 0x0 DUP5 DUP5 ADD MSTORE POP POP POP POP JUMP JUMPDEST PUSH1 0x0 PUSH1 0x1F NOT PUSH1 0x1F DUP4 ADD AND SWAP1 POP SWAP2 SWAP1 POP JUMP JUMPDEST PUSH1 0x0 PUSH2 0x2AC0 DUP3 PUSH2 0x2A6F JUMP JUMPDEST PUSH2 0x2ACA DUP2 DUP6 PUSH2 0x2765 JUMP JUMPDEST SWAP4 POP PUSH2 0x2ADA DUP2 DUP6 PUSH1 0x20 DUP7 ADD PUSH2 0x2A7A JUMP JUMPDEST PUSH2 0x2AE3 DUP2 PUSH2 0x2AA4 JUMP JUMPDEST DUP5 ADD SWAP2 POP POP SWAP3 SWAP2 POP POP JUMP JUMPDEST PUSH1 0x0 PUSH2 0x140 DUP3 ADD SWAP1 POP PUSH2 0x2B04 PUSH1 0x0 DUP4 ADD DUP14 PUSH2 0x2A3F JUMP JUMPDEST PUSH2 0x2B11 PUSH1 0x20 DUP4 ADD DUP13 PUSH2 0x2A60 JUMP JUMPDEST DUP2 DUP2 SUB PUSH1 0x40 DUP4 ADD MSTORE PUSH2 0x2B23 DUP2 DUP12 PUSH2 0x2AB5 JUMP JUMPDEST SWAP1 POP DUP2 DUP2 SUB PUSH1 0x60 DUP4 ADD MSTORE PUSH2 0x2B37 DUP2 DUP11 PUSH2 0x2AB5 JUMP JUMPDEST SWAP1 POP PUSH2 0x2B46 PUSH1 0x80 DUP4 ADD DUP10 PUSH2 0x2A3F JUMP JUMPDEST PUSH2 0x2B53 PUSH1 0xA0 DUP4 ADD DUP9 PUSH2 0x2A3F JUMP JUMPDEST PUSH2 0x2B60 PUSH1 0xC0 DUP4 ADD DUP8 PUSH2 0x2A3F JUMP JUMPDEST PUSH2 0x2B6D PUSH1 0xE0 DUP4 ADD DUP7 PUSH2 0x2887 JUMP JUMPDEST PUSH2 0x2B7B PUSH2 0x100 DUP4 ADD DUP6 PUSH2 0x2A3F JUMP JUMPDEST PUSH2 0x2B89 PUSH2 0x120 DUP4 ADD DUP5 PUSH2 0x2A3F JUMP JUMPDEST SWAP12 SWAP11 POP POP POP POP POP POP POP POP POP POP POP JUMP JUMPDEST PUSH2 0x2BA1 DUP2 PUSH2 0x2A4E JUMP JUMPDEST DUP2 EQ PUSH2 0x2BAC JUMPI PUSH1 0x0 DUP1 REVERT JUMPDEST POP JUMP JUMPDEST PUSH1 0x0 DUP2 CALLDATALOAD SWAP1 POP PUSH2 0x2BBE DUP2 PUSH2 0x2B98 JUMP JUMPDEST SWAP3 SWAP2 POP POP JUMP JUMPDEST PUSH1 0x0 DUP1 PUSH1 0x40 DUP4 DUP6 SUB SLT ISZERO PUSH2 0x2BDB JUMPI PUSH2 0x2BDA PUSH2 0x27EC JUMP JUMPDEST JUMPDEST PUSH1 0x0 PUSH2 0x2BE9 DUP6 DUP3 DUP7 ADD PUSH2 0x29A6 JUMP JUMPDEST SWAP3 POP POP PUSH1 0x20 PUSH2 0x2BFA DUP6 DUP3 DUP7 ADD PUSH2 0x2BAF JUMP JUMPDEST SWAP2 POP POP SWAP3 POP SWAP3 SWAP1 POP JUMP JUMPDEST PUSH2 0x2C0D DUP2 PUSH2 0x290F JUMP JUMPDEST DUP3 MSTORE POP POP JUMP JUMPDEST PUSH2 0x2C1C DUP2 PUSH2 0x2A4E JUMP JUMPDEST DUP3 MSTORE POP POP JUMP JUMPDEST PUSH1 0x0 DUP2 MLOAD SWAP1 POP SWAP2 SWAP1 POP JUMP JUMPDEST PUSH1 0x0 DUP3 DUP3 MSTORE PUSH1 0x20 DUP3 ADD SWAP1 POP SWAP3 SWAP2 POP POP JUMP JUMPDEST PUSH1 0x0 DUP2 SWAP1 POP PUSH1 0x20 DUP3 ADD SWAP1 POP SWAP2 SWAP1 POP JUMP JUMPDEST PUSH1 0x0 DUP3 DUP3 MSTORE PUSH1 0x20 DUP3 ADD SWAP1 POP SWAP3 SWAP2 POP POP JUMP JUMPDEST PUSH1 0x0 PUSH2 0x2C6A DUP3 PUSH2 0x2A6F JUMP JUMPDEST PUSH2 0x2C74 DUP2 DUP6 PUSH2 0x2C4E JUMP JUMPDEST SWAP4 POP PUSH2 0x2C84 DUP2 DUP6 PUSH1 0x20 DUP7 ADD PUSH2 0x2A7A JUMP JUMPDEST PUSH2 0x2C8D DUP2 PUSH2 0x2AA4 JUMP JUMPDEST DUP5 ADD SWAP2 POP POP SWAP3 SWAP2 POP POP JUMP JUMPDEST PUSH1 0x0 PUSH2 0x2CA4 DUP4 DUP4 PUSH2 0x2C5F JUMP JUMPDEST SWAP1 POP SWAP3 SWAP2 POP POP JUMP JUMPDEST PUSH1 0x0 PUSH1 0x20 DUP3 ADD SWAP1 POP SWAP2 SWAP1 POP JUMP JUMPDEST PUSH1 0x0 PUSH2 0x2CC4 DUP3 PUSH2 0x2C22 JUMP JUMPDEST PUSH2 0x2CCE DUP2 DUP6 PUSH2 0x2C2D JUMP JUMPDEST SWAP4 POP DUP4 PUSH1 0x20 DUP3 MUL DUP6 ADD PUSH2 0x2CE0 DUP6 PUSH2 0x2C3E JUMP JUMPDEST DUP1 PUSH1 0x0 JUMPDEST DUP6 DUP2 LT ISZERO PUSH2 0x2D1C JUMPI DUP5 DUP5 SUB DUP10 MSTORE DUP2 MLOAD PUSH2 0x2CFD DUP6 DUP3 PUSH2 0x2C98 JUMP JUMPDEST SWAP5 POP PUSH2 0x2D08 DUP4 PUSH2 0x2CAC JUMP JUMPDEST SWAP3 POP PUSH1 0x20 DUP11 ADD SWAP10 POP POP PUSH1 0x1 DUP2 ADD SWAP1 POP PUSH2 0x2CE4 JUMP JUMPDEST POP DUP3 SWAP8 POP DUP8 SWAP6 POP POP POP POP POP POP SWAP3 SWAP2 POP POP JUMP JUMPDEST PUSH32 0x4E487B7100000000000000000000000000000000000000000000000000000000 PUSH1 0x0 MSTORE PUSH1 0x21 PUSH1 0x4 MSTORE PUSH1 0x24 PUSH1 0x0 REVERT JUMPDEST PUSH1 0x3 DUP2 LT PUSH2 0x2D6E JUMPI PUSH2 0x2D6D PUSH2 0x2D2E JUMP JUMPDEST JUMPDEST POP JUMP JUMPDEST PUSH1 0x0 DUP2 SWAP1 POP PUSH2 0x2D7F DUP3 PUSH2 0x2D5D JUMP JUMPDEST SWAP2 SWAP1 POP JUMP JUMPDEST PUSH1 0x0 PUSH2 0x2D8F DUP3 PUSH2 0x2D71 JUMP JUMPDEST SWAP1 POP SWAP2 SWAP1 POP JUMP JUMPDEST PUSH2 0x2D9F DUP2 PUSH2 0x2D84 JUMP JUMPDEST DUP3 MSTORE POP POP JUMP JUMPDEST PUSH1 0x0 PUSH2 0x100 DUP4 ADD PUSH1 0x0 DUP4 ADD MLOAD PUSH2 0x2DBE PUSH1 0x0 DUP7 ADD DUP3 PUSH2 0x2C04 JUMP JUMPDEST POP PUSH1 0x20 DUP4 ADD MLOAD PUSH2 0x2DD1 PUSH1 0x20 DUP7 ADD DUP3 PUSH2 0x2C04 JUMP JUMPDEST POP PUSH1 0x40 DUP4 ADD MLOAD PUSH2 0x2DE4 PUSH1 0x40 DUP7 ADD DUP3 PUSH2 0x2C13 JUMP JUMPDEST POP PUSH1 0x60 DUP4 ADD MLOAD DUP5 DUP3 SUB PUSH1 0x60 DUP7 ADD MSTORE PUSH2 0x2DFC DUP3 DUP3 PUSH2 0x2CB9 JUMP JUMPDEST SWAP2 POP POP PUSH1 0x80 DUP4 ADD MLOAD PUSH2 0x2E11 PUSH1 0x80 DUP7 ADD DUP3 PUSH2 0x2C04 JUMP JUMPDEST POP PUSH1 0xA0 DUP4 ADD MLOAD PUSH2 0x2E24 PUSH1 0xA0 DUP7 ADD DUP3 PUSH2 0x2D96 JUMP JUMPDEST POP PUSH1 0xC0 DUP4 ADD MLOAD PUSH2 0x2E37 PUSH1 0xC0 DUP7 ADD DUP3 PUSH2 0x2C13 JUMP JUMPDEST POP PUSH1 0xE0 DUP4 ADD MLOAD PUSH2 0x2E4A PUSH1 0xE0 DUP7 ADD DUP3 PUSH2 0x2C04 JUMP JUMPDEST POP DUP1 SWAP2 POP POP SWAP3 SWAP2 POP POP JUMP JUMPDEST PUSH1 0x0 PUSH1 0x20 DUP3 ADD SWAP1 POP DUP2 DUP2 SUB PUSH1 0x0 DUP4 ADD MSTORE PUSH2 0x2E6F DUP2 DUP5 PUSH2 0x2DA5 JUMP JUMPDEST SWAP1 POP SWAP3 SWAP2 POP POP JUMP JUMPDEST PUSH1 0x0 PUSH1 0x20 DUP3 DUP5 SUB SLT ISZERO PUSH2 0x2E8D JUMPI PUSH2 0x2E8C PUSH2 0x27EC JUMP JUMPDEST JUMPDEST PUSH1 0x0 PUSH2 0x2E9B DUP5 DUP3 DUP6 ADD PUSH2 0x2BAF JUMP JUMPDEST SWAP2 POP POP SWAP3 SWAP2 POP POP JUMP JUMPDEST PUSH1 0x0 PUSH1 0x20 DUP3 ADD SWAP1 POP PUSH2 0x2EB9 PUSH1 0x0 DUP4 ADD DUP5 PUSH2 0x2A3F JUMP JUMPDEST SWAP3 SWAP2 POP POP JUMP JUMPDEST PUSH1 0x0 DUP2 MLOAD SWAP1 POP SWAP2 SWAP1 POP JUMP JUMPDEST PUSH1 0x0 DUP3 DUP3 MSTORE PUSH1 0x20 DUP3 ADD SWAP1 POP SWAP3 SWAP2 POP POP JUMP JUMPDEST PUSH1 0x0 DUP2 SWAP1 POP PUSH1 0x20 DUP3 ADD SWAP1 POP SWAP2 SWAP1 POP JUMP JUMPDEST PUSH1 0x0 PUSH2 0x2EF7 DUP4 DUP4 PUSH2 0x2C04 JUMP JUMPDEST PUSH1 0x20 DUP4 ADD SWAP1 POP SWAP3 SWAP2 POP POP JUMP JUMPDEST PUSH1 0x0 PUSH1 0x20 DUP3 ADD SWAP1 POP SWAP2 SWAP1 POP JUMP JUMPDEST PUSH1 0x0 PUSH2 0x2F1B DUP3 PUSH2 0x2EBF JUMP JUMPDEST PUSH2 0x2F25 DUP2 DUP6 PUSH2 0x2ECA JUMP JUMPDEST SWAP4 POP PUSH2 0x2F30 DUP4 PUSH2 0x2EDB JUMP JUMPDEST DUP1 PUSH1 0x0 JUMPDEST DUP4 DUP2 LT ISZERO PUSH2 0x2F61 JUMPI DUP2 MLOAD PUSH2 0x2F48 DUP9 DUP3 PUSH2 0x2EEB JUMP JUMPDEST SWAP8 POP PUSH2 0x2F53 DUP4 PUSH2 0x2F03 JUMP JUMPDEST SWAP3 POP POP PUSH1 0x1 DUP2 ADD SWAP1 POP PUSH2 0x2F34 JUMP JUMPDEST POP DUP6 SWAP4 POP POP POP POP SWAP3 SWAP2 POP POP JUMP JUMPDEST PUSH1 0x0 PUSH1 0x20 DUP3 ADD SWAP1 POP DUP2 DUP2 SUB PUSH1 0x0 DUP4 ADD MSTORE PUSH2 0x2F88 DUP2 DUP5 PUSH2 0x2F10 JUMP JUMPDEST SWAP1 POP SWAP3 SWAP2 POP POP JUMP JUMPDEST PUSH1 0x0 DUP1 REVERT JUMPDEST PUSH1 0x0 DUP1 REVERT JUMPDEST PUSH32 0x4E487B7100000000000000000000000000000000000000000000000000000000 PUSH1 0x0 MSTORE PUSH1 0x41 PUSH1 0x4 MSTORE PUSH1 0x24 PUSH1 0x0 REVERT JUMPDEST PUSH2 0x2FD2 DUP3 PUSH2 0x2AA4 JUMP JUMPDEST DUP2 ADD DUP2 DUP2 LT PUSH8 0xFFFFFFFFFFFFFFFF DUP3 GT OR ISZERO PUSH2 0x2FF1 JUMPI PUSH2 0x2FF0 PUSH2 0x2F9A JUMP JUMPDEST JUMPDEST DUP1 PUSH1 0x40 MSTORE POP POP POP JUMP JUMPDEST PUSH1 0x0 PUSH2 0x3004 PUSH2 0x27E2 JUMP JUMPDEST SWAP1 POP PUSH2 0x3010 DUP3 DUP3 PUSH2 0x2FC9 JUMP JUMPDEST SWAP2 SWAP1 POP JUMP JUMPDEST PUSH1 0x0 PUSH8 0xFFFFFFFFFFFFFFFF DUP3 GT ISZERO PUSH2 0x3030 JUMPI PUSH2 0x302F PUSH2 0x2F9A JUMP JUMPDEST JUMPDEST PUSH2 0x3039 DUP3 PUSH2 0x2AA4 JUMP JUMPDEST SWAP1 POP PUSH1 0x20 DUP2 ADD SWAP1 POP SWAP2 SWAP1 POP JUMP JUMPDEST DUP3 DUP2 DUP4 CALLDATACOPY PUSH1 0x0 DUP4 DUP4 ADD MSTORE POP POP POP JUMP JUMPDEST PUSH1 0x0 PUSH2 0x3068 PUSH2 0x3063 DUP5 PUSH2 0x3015 JUMP JUMPDEST PUSH2 0x2FFA JUMP JUMPDEST SWAP1 POP DUP3 DUP2 MSTORE PUSH1 0x20 DUP2 ADD DUP5 DUP5 DUP5 ADD GT ISZERO PUSH2 0x3084 JUMPI PUSH2 0x3083 PUSH2 0x2F95 JUMP JUMPDEST JUMPDEST PUSH2 0x308F DUP5 DUP3 DUP6 PUSH2 0x3046 JUMP JUMPDEST POP SWAP4 SWAP3 POP POP POP JUMP JUMPDEST PUSH1 0x0 DUP3 PUSH1 0x1F DUP4 ADD SLT PUSH2 0x30AC JUMPI PUSH2 0x30AB PUSH2 0x2F90 JUMP JUMPDEST JUMPDEST DUP2 CALLDATALOAD PUSH2 0x30BC DUP5 DUP3 PUSH1 0x20 DUP7 ADD PUSH2 0x3055 JUMP JUMPDEST SWAP2 POP POP SWAP3 SWAP2 POP POP JUMP JUMPDEST PUSH1 0x0 DUP1 PUSH1 0x0 PUSH1 0x60 DUP5 DUP7 SUB SLT ISZERO PUSH2 0x30DE JUMPI PUSH2 0x30DD PUSH2 0x27EC JUMP JUMPDEST JUMPDEST PUSH1 0x0 DUP5 ADD CALLDATALOAD PUSH8 0xFFFFFFFFFFFFFFFF DUP2 GT ISZERO PUSH2 0x30FC JUMPI PUSH2 0x30FB PUSH2 0x27F1 JUMP JUMPDEST JUMPDEST PUSH2 0x3108 DUP7 DUP3 DUP8 ADD PUSH2 0x3097 JUMP JUMPDEST SWAP4 POP POP PUSH1 0x20 DUP5 ADD CALLDATALOAD PUSH8 0xFFFFFFFFFFFFFFFF DUP2 GT ISZERO PUSH2 0x3129 JUMPI PUSH2 0x3128 PUSH2 0x27F1 JUMP JUMPDEST JUMPDEST PUSH2 0x3135 DUP7 DUP3 DUP8 ADD PUSH2 0x3097 JUMP JUMPDEST SWAP3 POP POP PUSH1 0x40 PUSH2 0x3146 DUP7 DUP3 DUP8 ADD PUSH2 0x2930 JUMP JUMPDEST SWAP2 POP POP SWAP3 POP SWAP3 POP SWAP3 JUMP JUMPDEST PUSH1 0x0 DUP1 PUSH1 0x40 DUP4 DUP6 SUB SLT ISZERO PUSH2 0x3167 JUMPI PUSH2 0x3166 PUSH2 0x27EC JUMP JUMPDEST JUMPDEST PUSH1 0x0 PUSH2 0x3175 DUP6 DUP3 DUP7 ADD PUSH2 0x2930 JUMP JUMPDEST SWAP3 POP POP PUSH1 0x20 PUSH2 0x3186 DUP6 DUP3 DUP7 ADD PUSH2 0x2930 JUMP JUMPDEST SWAP2 POP POP SWAP3 POP SWAP3 SWAP1 POP JUMP JUMPDEST PUSH1 0x0 DUP1 PUSH1 0x40 DUP4 DUP6 SUB SLT ISZERO PUSH2 0x31A7 JUMPI PUSH2 0x31A6 PUSH2 0x27EC JUMP JUMPDEST JUMPDEST PUSH1 0x0 PUSH2 0x31B5 DUP6 DUP3 DUP7 ADD PUSH2 0x2BAF JUMP JUMPDEST SWAP3 POP POP PUSH1 0x20 PUSH2 0x31C6 DUP6 DUP3 DUP7 ADD PUSH2 0x2930 JUMP JUMPDEST SWAP2 POP POP SWAP3 POP SWAP3 SWAP1 POP JUMP JUMPDEST PUSH2 0x31D9 DUP2 PUSH2 0x2D84 JUMP JUMPDEST DUP3 MSTORE POP POP JUMP JUMPDEST PUSH1 0x0 PUSH1 0xE0 DUP3 ADD SWAP1 POP PUSH2 0x31F4 PUSH1 0x0 DUP4 ADD DUP11 PUSH2 0x2A3F JUMP JUMPDEST PUSH2 0x3201 PUSH1 0x20 DUP4 ADD DUP10 PUSH2 0x2A3F JUMP JUMPDEST PUSH2 0x320E PUSH1 0x40 DUP4 ADD DUP9 PUSH2 0x2A60 JUMP JUMPDEST PUSH2 0x321B PUSH1 0x60 DUP4 ADD DUP8 PUSH2 0x2A3F JUMP JUMPDEST PUSH2 0x3228 PUSH1 0x80 DUP4 ADD DUP7 PUSH2 0x31D0 JUMP JUMPDEST PUSH2 0x3235 PUSH1 0xA0 DUP4 ADD DUP6 PUSH2 0x2A60 JUMP JUMPDEST PUSH2 0x3242 PUSH1 0xC0 DUP4 ADD DUP5 PUSH2 0x2A3F JUMP JUMPDEST SWAP9 SWAP8 POP POP POP POP POP POP POP POP JUMP JUMPDEST PUSH2 0x3257 DUP2 PUSH2 0x287B JUMP JUMPDEST DUP2 EQ PUSH2 0x3262 JUMPI PUSH1 0x0 DUP1 REVERT JUMPDEST POP JUMP JUMPDEST PUSH1 0x0 DUP2 CALLDATALOAD SWAP1 POP PUSH2 0x3274 DUP2 PUSH2 0x324E JUMP JUMPDEST SWAP3 SWAP2 POP POP JUMP JUMPDEST PUSH1 0x0 DUP1 PUSH1 0x40 DUP4 DUP6 SUB SLT ISZERO PUSH2 0x3291 JUMPI PUSH2 0x3290 PUSH2 0x27EC JUMP JUMPDEST JUMPDEST PUSH1 0x0 PUSH2 0x329F DUP6 DUP3 DUP7 ADD PUSH2 0x2930 JUMP JUMPDEST SWAP3 POP POP PUSH1 0x20 PUSH2 0x32B0 DUP6 DUP3 DUP7 ADD PUSH2 0x3265 JUMP JUMPDEST SWAP2 POP POP SWAP3 POP SWAP3 SWAP1 POP JUMP JUMPDEST PUSH1 0x0 PUSH8 0xFFFFFFFFFFFFFFFF DUP3 GT ISZERO PUSH2 0x32D5 JUMPI PUSH2 0x32D4 PUSH2 0x2F9A JUMP JUMPDEST JUMPDEST PUSH1 0x20 DUP3 MUL SWAP1 POP PUSH1 0x20 DUP2 ADD SWAP1 POP SWAP2 SWAP1 POP JUMP JUMPDEST PUSH1 0x0 DUP1 REVERT JUMPDEST PUSH1 0x0 PUSH2 0x32FE PUSH2 0x32F9 DUP5 PUSH2 0x32BA JUMP JUMPDEST PUSH2 0x2FFA JUMP JUMPDEST SWAP1 POP DUP1 DUP4 DUP3 MSTORE PUSH1 0x20 DUP3 ADD SWAP1 POP PUSH1 0x20 DUP5 MUL DUP4 ADD DUP6 DUP2 GT ISZERO PUSH2 0x3321 JUMPI PUSH2 0x3320 PUSH2 0x32E6 JUMP JUMPDEST JUMPDEST DUP4 JUMPDEST DUP2 DUP2 LT ISZERO PUSH2 0x3368 JUMPI DUP1 CALLDATALOAD PUSH8 0xFFFFFFFFFFFFFFFF DUP2 GT ISZERO PUSH2 0x3346 JUMPI PUSH2 0x3345 PUSH2 0x2F90 JUMP JUMPDEST JUMPDEST DUP1 DUP7 ADD PUSH2 0x3353 DUP10 DUP3 PUSH2 0x3097 JUMP JUMPDEST DUP6 MSTORE PUSH1 0x20 DUP6 ADD SWAP5 POP POP POP PUSH1 0x20 DUP2 ADD SWAP1 POP PUSH2 0x3323 JUMP JUMPDEST POP POP POP SWAP4 SWAP3 POP POP POP JUMP JUMPDEST PUSH1 0x0 DUP3 PUSH1 0x1F DUP4 ADD SLT PUSH2 0x3387 JUMPI PUSH2 0x3386 PUSH2 0x2F90 JUMP JUMPDEST JUMPDEST DUP2 CALLDATALOAD PUSH2 0x3397 DUP5 DUP3 PUSH1 0x20 DUP7 ADD PUSH2 0x32EB JUMP JUMPDEST SWAP2 POP POP SWAP3 SWAP2 POP POP JUMP JUMPDEST PUSH1 0x0 DUP1 PUSH1 0x40 DUP4 DUP6 SUB SLT ISZERO PUSH2 0x33B7 JUMPI PUSH2 0x33B6 PUSH2 0x27EC JUMP JUMPDEST JUMPDEST PUSH1 0x0 PUSH2 0x33C5 DUP6 DUP3 DUP7 ADD PUSH2 0x2930 JUMP JUMPDEST SWAP3 POP POP PUSH1 0x20 DUP4 ADD CALLDATALOAD PUSH8 0xFFFFFFFFFFFFFFFF DUP2 GT ISZERO PUSH2 0x33E6 JUMPI PUSH2 0x33E5 PUSH2 0x27F1 JUMP JUMPDEST JUMPDEST PUSH2 0x33F2 DUP6 DUP3 DUP7 ADD PUSH2 0x3372 JUMP JUMPDEST SWAP2 POP POP SWAP3 POP SWAP3 SWAP1 POP JUMP JUMPDEST PUSH2 0x3405 DUP2 PUSH2 0x287B JUMP JUMPDEST DUP3 MSTORE POP POP JUMP JUMPDEST PUSH1 0x0 PUSH2 0x140 DUP4 ADD PUSH1 0x0 DUP4 ADD MLOAD PUSH2 0x3424 PUSH1 0x0 DUP7 ADD DUP3 PUSH2 0x2C04 JUMP JUMPDEST POP PUSH1 0x20 DUP4 ADD MLOAD PUSH2 0x3437 PUSH1 0x20 DUP7 ADD DUP3 PUSH2 0x2C13 JUMP JUMPDEST POP PUSH1 0x40 DUP4 ADD MLOAD DUP5 DUP3 SUB PUSH1 0x40 DUP7 ADD MSTORE PUSH2 0x344F DUP3 DUP3 PUSH2 0x2C5F JUMP JUMPDEST SWAP2 POP POP PUSH1 0x60 DUP4 ADD MLOAD DUP5 DUP3 SUB PUSH1 0x60 DUP7 ADD MSTORE PUSH2 0x3469 DUP3 DUP3 PUSH2 0x2C5F JUMP JUMPDEST SWAP2 POP POP PUSH1 0x80 DUP4 ADD MLOAD PUSH2 0x347E PUSH1 0x80 DUP7 ADD DUP3 PUSH2 0x2C04 JUMP JUMPDEST POP PUSH1 0xA0 DUP4 ADD MLOAD PUSH2 0x3491 PUSH1 0xA0 DUP7 ADD DUP3 PUSH2 0x2C04 JUMP JUMPDEST POP PUSH1 0xC0 DUP4 ADD MLOAD PUSH2 0x34A4 PUSH1 0xC0 DUP7 ADD DUP3 PUSH2 0x2C04 JUMP JUMPDEST POP PUSH1 0xE0 DUP4 ADD MLOAD PUSH2 0x34B7 PUSH1 0xE0 DUP7 ADD DUP3 PUSH2 0x33FC JUMP JUMPDEST POP PUSH2 0x100 DUP4 ADD MLOAD PUSH2 0x34CC PUSH2 0x100 DUP7 ADD DUP3 PUSH2 0x2C04 JUMP JUMPDEST POP PUSH2 0x120 DUP4 ADD MLOAD PUSH2 0x34E1 PUSH2 0x120 DUP7 ADD DUP3 PUSH2 0x2C04 JUMP JUMPDEST POP DUP1 SWAP2 POP POP SWAP3 SWAP2 POP POP JUMP JUMPDEST PUSH1 0x0 PUSH1 0x20 DUP3 ADD SWAP1 POP DUP2 DUP2 SUB PUSH1 0x0 DUP4 ADD MSTORE PUSH2 0x3506 DUP2 DUP5 PUSH2 0x340B JUMP JUMPDEST SWAP1 POP SWAP3 SWAP2 POP POP JUMP JUMPDEST PUSH32 0x51756F72696F6E3A20496E76616C6964207769746864726177616C2061646472 PUSH1 0x0 DUP3 ADD MSTORE PUSH32 0x6573730000000000000000000000000000000000000000000000000000000000 PUSH1 0x20 DUP3 ADD MSTORE POP JUMP JUMPDEST PUSH1 0x0 PUSH2 0x356A PUSH1 0x23 DUP4 PUSH2 0x2765 JUMP JUMPDEST SWAP2 POP PUSH2 0x3575 DUP3 PUSH2 0x350E JUMP JUMPDEST PUSH1 0x40 DUP3 ADD SWAP1 POP SWAP2 SWAP1 POP JUMP JUMPDEST PUSH1 0x0 PUSH1 0x20 DUP3 ADD SWAP1 POP DUP2 DUP2 SUB PUSH1 0x0 DUP4 ADD MSTORE PUSH2 0x3599 DUP2 PUSH2 0x355D JUMP JUMPDEST SWAP1 POP SWAP2 SWAP1 POP JUMP JUMPDEST PUSH32 0x51756F72696F6E3A20496E76616C6964206F7220696E73756666696369656E74 PUSH1 0x0 DUP3 ADD MSTORE PUSH32 0x20616D6F756E7420666F72207769746864726177616C00000000000000000000 PUSH1 0x20 DUP3 ADD MSTORE POP JUMP JUMPDEST PUSH1 0x0 PUSH2 0x35FC PUSH1 0x36 DUP4 PUSH2 0x2765 JUMP JUMPDEST SWAP2 POP PUSH2 0x3607 DUP3 PUSH2 0x35A0 JUMP JUMPDEST PUSH1 0x40 DUP3 ADD SWAP1 POP SWAP2 SWAP1 POP JUMP JUMPDEST PUSH1 0x0 PUSH1 0x20 DUP3 ADD SWAP1 POP DUP2 DUP2 SUB PUSH1 0x0 DUP4 ADD MSTORE PUSH2 0x362B DUP2 PUSH2 0x35EF JUMP JUMPDEST SWAP1 POP SWAP2 SWAP1 POP JUMP JUMPDEST PUSH1 0x0 DUP2 SWAP1 POP SWAP3 SWAP2 POP POP JUMP JUMPDEST POP JUMP JUMPDEST PUSH1 0x0 PUSH2 0x364D PUSH1 0x0 DUP4 PUSH2 0x3632 JUMP JUMPDEST SWAP2 POP PUSH2 0x3658 DUP3 PUSH2 0x363D JUMP JUMPDEST PUSH1 0x0 DUP3 ADD SWAP1 POP SWAP2 SWAP1 POP JUMP JUMPDEST PUSH1 0x0 PUSH2 0x366E DUP3 PUSH2 0x3640 JUMP JUMPDEST SWAP2 POP DUP2 SWAP1 POP SWAP2 SWAP1 POP JUMP JUMPDEST PUSH32 0x51756F72696F6E3A20456D657267656E63792046544E20776974686472617761 PUSH1 0x0 DUP3 ADD MSTORE PUSH32 0x6C206661696C6564000000000000000000000000000000000000000000000000 PUSH1 0x20 DUP3 ADD MSTORE POP JUMP JUMPDEST PUSH1 0x0 PUSH2 0x36D4 PUSH1 0x28 DUP4 PUSH2 0x2765 JUMP JUMPDEST SWAP2 POP PUSH2 0x36DF DUP3 PUSH2 0x3678 JUMP JUMPDEST PUSH1 0x40 DUP3 ADD SWAP1 POP SWAP2 SWAP1 POP JUMP JUMPDEST PUSH1 0x0 PUSH1 0x20 DUP3 ADD SWAP1 POP DUP2 DUP2 SUB PUSH1 0x0 DUP4 ADD MSTORE PUSH2 0x3703 DUP2 PUSH2 0x36C7 JUMP JUMPDEST SWAP1 POP SWAP2 SWAP1 POP JUMP JUMPDEST PUSH32 0x4E487B7100000000000000000000000000000000000000000000000000000000 PUSH1 0x0 MSTORE PUSH1 0x22 PUSH1 0x4 MSTORE PUSH1 0x24 PUSH1 0x0 REVERT JUMPDEST PUSH1 0x0 PUSH1 0x2 DUP3 DIV SWAP1 POP PUSH1 0x1 DUP3 AND DUP1 PUSH2 0x3751 JUMPI PUSH1 0x7F DUP3 AND SWAP2 POP JUMPDEST PUSH1 0x20 DUP3 LT DUP2 SUB PUSH2 0x3764 JUMPI PUSH2 0x3763 PUSH2 0x370A JUMP JUMPDEST JUMPDEST POP SWAP2 SWAP1 POP JUMP JUMPDEST PUSH32 0x51756F72696F6E3A20496E737472756374696F6E732055524C20726571756972 PUSH1 0x0 DUP3 ADD MSTORE PUSH32 0x6564000000000000000000000000000000000000000000000000000000000000 PUSH1 0x20 DUP3 ADD MSTORE POP JUMP JUMPDEST PUSH1 0x0 PUSH2 0x37C6 PUSH1 0x22 DUP4 PUSH2 0x2765 JUMP JUMPDEST SWAP2 POP PUSH2 0x37D1 DUP3 PUSH2 0x376A JUMP JUMPDEST PUSH1 0x40 DUP3 ADD SWAP1 POP SWAP2 SWAP1 POP JUMP JUMPDEST PUSH1 0x0 PUSH1 0x20 DUP3 ADD SWAP1 POP DUP2 DUP2 SUB PUSH1 0x0 DUP4 ADD MSTORE PUSH2 0x37F5 DUP2 PUSH2 0x37B9 JUMP JUMPDEST SWAP1 POP SWAP2 SWAP1 POP JUMP JUMPDEST PUSH32 0x51756F72696F6E3A204461746120747970652072657175697265640000000000 PUSH1 0x0 DUP3 ADD MSTORE POP JUMP JUMPDEST PUSH1 0x0 PUSH2 0x3832 PUSH1 0x1B DUP4 PUSH2 0x2765 JUMP JUMPDEST SWAP2 POP PUSH2 0x383D DUP3 PUSH2 0x37FC JUMP JUMPDEST PUSH1 0x20 DUP3 ADD SWAP1 POP SWAP2 SWAP1 POP JUMP JUMPDEST PUSH1 0x0 PUSH1 0x20 DUP3 ADD SWAP1 POP DUP2 DUP2 SUB PUSH1 0x0 DUP4 ADD MSTORE PUSH2 0x3861 DUP2 PUSH2 0x3825 JUMP JUMPDEST SWAP1 POP SWAP2 SWAP1 POP JUMP JUMPDEST PUSH32 0x51756F72696F6E3A20526577617264206D75737420626520706F736974697665 PUSH1 0x0 DUP3 ADD MSTORE POP JUMP JUMPDEST PUSH1 0x0 PUSH2 0x389E PUSH1 0x20 DUP4 PUSH2 0x2765 JUMP JUMPDEST SWAP2 POP PUSH2 0x38A9 DUP3 PUSH2 0x3868 JUMP JUMPDEST PUSH1 0x20 DUP3 ADD SWAP1 POP SWAP2 SWAP1 POP JUMP JUMPDEST PUSH1 0x0 PUSH1 0x20 DUP3 ADD SWAP1 POP DUP2 DUP2 SUB PUSH1 0x0 DUP4 ADD MSTORE PUSH2 0x38CD DUP2 PUSH2 0x3891 JUMP JUMPDEST SWAP1 POP SWAP2 SWAP1 POP JUMP JUMPDEST PUSH32 0x51756F72696F6E3A2052657761726420706F6F6C2065786365656473206D6178 PUSH1 0x0 DUP3 ADD MSTORE PUSH32 0x696D756D206C696D697400000000000000000000000000000000000000000000 PUSH1 0x20 DUP3 ADD MSTORE POP JUMP JUMPDEST PUSH1 0x0 PUSH2 0x3930 PUSH1 0x2A DUP4 PUSH2 0x2765 JUMP JUMPDEST SWAP2 POP PUSH2 0x393B DUP3 PUSH2 0x38D4 JUMP JUMPDEST PUSH1 0x40 DUP3 ADD SWAP1 POP SWAP2 SWAP1 POP JUMP JUMPDEST PUSH1 0x0 PUSH1 0x20 DUP3 ADD SWAP1 POP DUP2 DUP2 SUB PUSH1 0x0 DUP4 ADD MSTORE PUSH2 0x395F DUP2 PUSH2 0x3923 JUMP JUMPDEST SWAP1 POP SWAP2 SWAP1 POP JUMP JUMPDEST PUSH32 0x51756F72696F6E3A20546F74616C20706F6F6C206D75737420636F7665722061 PUSH1 0x0 DUP3 ADD MSTORE PUSH32 0x74206C65617374206F6E65207265776172640000000000000000000000000000 PUSH1 0x20 DUP3 ADD MSTORE POP JUMP JUMPDEST PUSH1 0x0 PUSH2 0x39C2 PUSH1 0x32 DUP4 PUSH2 0x2765 JUMP JUMPDEST SWAP2 POP PUSH2 0x39CD DUP3 PUSH2 0x3966 JUMP JUMPDEST PUSH1 0x40 DUP3 ADD SWAP1 POP SWAP2 SWAP1 POP JUMP JUMPDEST PUSH1 0x0 PUSH1 0x20 DUP3 ADD SWAP1 POP DUP2 DUP2 SUB PUSH1 0x0 DUP4 ADD MSTORE PUSH2 0x39F1 DUP2 PUSH2 0x39B5 JUMP JUMPDEST SWAP1 POP SWAP2 SWAP1 POP JUMP JUMPDEST PUSH32 0x4E487B7100000000000000000000000000000000000000000000000000000000 PUSH1 0x0 MSTORE PUSH1 0x11 PUSH1 0x4 MSTORE PUSH1 0x24 PUSH1 0x0 REVERT JUMPDEST PUSH1 0x0 PUSH2 0x3A32 DUP3 PUSH2 0x290F JUMP JUMPDEST SWAP2 POP PUSH32 0xFFFFFFFFFFFFFFFFFFFFFFFFFFFFFFFFFFFFFFFFFFFFFFFFFFFFFFFFFFFFFFFF DUP3 SUB PUSH2 0x3A64 JUMPI PUSH2 0x3A63 PUSH2 0x39F8 JUMP JUMPDEST JUMPDEST PUSH1 0x1 DUP3 ADD SWAP1 POP SWAP2 SWAP1 POP JUMP JUMPDEST PUSH1 0x0 DUP2 SWAP1 POP DUP2 PUSH1 0x0 MSTORE PUSH1 0x20 PUSH1 0x0 KECCAK256 SWAP1 POP SWAP2 SWAP1 POP JUMP JUMPDEST PUSH1 0x0 PUSH1 0x20 PUSH1 0x1F DUP4 ADD DIV SWAP1 POP SWAP2 SWAP1 POP JUMP JUMPDEST PUSH1 0x0 DUP3 DUP3 SHL SWAP1 POP SWAP3 SWAP2 POP POP JUMP JUMPDEST PUSH1 0x0 PUSH1 0x8 DUP4 MUL PUSH2 0x3AD1 PUSH32 0xFFFFFFFFFFFFFFFFFFFFFFFFFFFFFFFFFFFFFFFFFFFFFFFFFFFFFFFFFFFFFFFF DUP3 PUSH2 0x3A94 JUMP JUMPDEST PUSH2 0x3ADB DUP7 DUP4 PUSH2 0x3A94 JUMP JUMPDEST SWAP6 POP DUP1 NOT DUP5 AND SWAP4 POP DUP1 DUP7 AND DUP5 OR SWAP3 POP POP POP SWAP4 SWAP3 POP POP POP JUMP JUMPDEST PUSH1 0x0 DUP2 SWAP1 POP SWAP2 SWAP1 POP JUMP JUMPDEST PUSH1 0x0 PUSH2 0x3B18 PUSH2 0x3B13 PUSH2 0x3B0E DUP5 PUSH2 0x290F JUMP JUMPDEST PUSH2 0x3AF3 JUMP JUMPDEST PUSH2 0x290F JUMP JUMPDEST SWAP1 POP SWAP2 SWAP1 POP JUMP JUMPDEST PUSH1 0x0 DUP2 SWAP1 POP SWAP2 SWAP1 POP JUMP JUMPDEST PUSH2 0x3B32 DUP4 PUSH2 0x3AFD JUMP JUMPDEST PUSH2 0x3B46 PUSH2 0x3B3E DUP3 PUSH2 0x3B1F JUMP JUMPDEST DUP5 DUP5 SLOAD PUSH2 0x3AA1 JUMP JUMPDEST DUP3 SSTORE POP POP POP POP JUMP JUMPDEST PUSH1 0x0 SWAP1 JUMP JUMPDEST PUSH2 0x3B5B PUSH2 0x3B4E JUMP JUMPDEST PUSH2 0x3B66 DUP2 DUP5 DUP5 PUSH2 0x3B29 JUMP JUMPDEST POP POP POP JUMP JUMPDEST JUMPDEST DUP2 DUP2 LT ISZERO PUSH2 0x3B8A JUMPI PUSH2 0x3B7F PUSH1 0x0 DUP3 PUSH2 0x3B53 JUMP JUMPDEST PUSH1 0x1 DUP2 ADD SWAP1 POP PUSH2 0x3B6C JUMP JUMPDEST POP POP JUMP JUMPDEST PUSH1 0x1F DUP3 GT ISZERO PUSH2 0x3BCF JUMPI PUSH2 0x3BA0 DUP2 PUSH2 0x3A6F JUMP JUMPDEST PUSH2 0x3BA9 DUP5 PUSH2 0x3A84 JUMP JUMPDEST DUP2 ADD PUSH1 0x20 DUP6 LT ISZERO PUSH2 0x3BB8 JUMPI DUP2 SWAP1 POP JUMPDEST PUSH2 0x3BCC PUSH2 0x3BC4 DUP6 PUSH2 0x3A84 JUMP JUMPDEST DUP4 ADD DUP3 PUSH2 0x3B6B JUMP JUMPDEST POP POP JUMPDEST POP POP POP JUMP JUMPDEST PUSH1 0x0 DUP3 DUP3 SHR SWAP1 POP SWAP3 SWAP2 POP POP JUMP JUMPDEST PUSH1 0x0 PUSH2 0x3BF2 PUSH1 0x0 NOT DUP5 PUSH1 0x8 MUL PUSH2 0x3BD4 JUMP JUMPDEST NOT DUP1 DUP4 AND SWAP2 POP POP SWAP3 SWAP2 POP POP JUMP JUMPDEST PUSH1 0x0 PUSH2 0x3C0B DUP4 DUP4 PUSH2 0x3BE1 JUMP JUMPDEST SWAP2 POP DUP3 PUSH1 0x2 MUL DUP3 OR SWAP1 POP SWAP3 SWAP2 POP POP JUMP JUMPDEST PUSH2 0x3C24 DUP3 PUSH2 0x2A6F JUMP JUMPDEST PUSH8 0xFFFFFFFFFFFFFFFF DUP2 GT ISZERO PUSH2 0x3C3D JUMPI PUSH2 0x3C3C PUSH2 0x2F9A JUMP JUMPDEST JUMPDEST PUSH2 0x3C47 DUP3 SLOAD PUSH2 0x3739 JUMP JUMPDEST PUSH2 0x3C52 DUP3 DUP3 DUP6 PUSH2 0x3B8E JUMP JUMPDEST PUSH1 0x0 PUSH1 0x20 SWAP1 POP PUSH1 0x1F DUP4 GT PUSH1 0x1 DUP2 EQ PUSH2 0x3C85 JUMPI PUSH1 0x0 DUP5 ISZERO PUSH2 0x3C73 JUMPI DUP3 DUP8 ADD MLOAD SWAP1 POP JUMPDEST PUSH2 0x3C7D DUP6 DUP3 PUSH2 0x3BFF JUMP JUMPDEST DUP7 SSTORE POP PUSH2 0x3CE5 JUMP JUMPDEST PUSH1 0x1F NOT DUP5 AND PUSH2 0x3C93 DUP7 PUSH2 0x3A6F JUMP JUMPDEST PUSH1 0x0 JUMPDEST DUP3 DUP2 LT ISZERO PUSH2 0x3CBB JUMPI DUP5 DUP10 ADD MLOAD DUP3 SSTORE PUSH1 0x1 DUP3 ADD SWAP2 POP PUSH1 0x20 DUP6 ADD SWAP5 POP PUSH1 0x20 DUP2 ADD SWAP1 POP PUSH2 0x3C96 JUMP JUMPDEST DUP7 DUP4 LT ISZERO PUSH2 0x3CD8 JUMPI DUP5 DUP10 ADD MLOAD PUSH2 0x3CD4 PUSH1 0x1F DUP10 AND DUP3 PUSH2 0x3BE1 JUMP JUMPDEST DUP4 SSTORE POP JUMPDEST PUSH1 0x1 PUSH1 0x2 DUP9 MUL ADD DUP9 SSTORE POP POP POP JUMPDEST POP POP POP POP POP POP JUMP JUMPDEST PUSH1 0x0 PUSH1 0x80 DUP3 ADD SWAP1 POP DUP2 DUP2 SUB PUSH1 0x0 DUP4 ADD MSTORE PUSH2 0x3D07 DUP2 DUP8 PUSH2 0x2AB5 JUMP JUMPDEST SWAP1 POP DUP2 DUP2 SUB PUSH1 0x20 DUP4 ADD MSTORE PUSH2 0x3D1B DUP2 DUP7 PUSH2 0x2AB5 JUMP JUMPDEST SWAP1 POP PUSH2 0x3D2A PUSH1 0x40 DUP4 ADD DUP6 PUSH2 0x2A3F JUMP JUMPDEST PUSH2 0x3D37 PUSH1 0x60 DUP4 ADD DUP5 PUSH2 0x2A3F JUMP JUMPDEST SWAP6 SWAP5 POP POP POP POP POP JUMP JUMPDEST PUSH1 0x0 PUSH2 0x3D4B DUP3 PUSH2 0x290F JUMP JUMPDEST SWAP2 POP PUSH2 0x3D56 DUP4 PUSH2 0x290F JUMP JUMPDEST SWAP3 POP DUP3 DUP3 SUB SWAP1 POP DUP2 DUP2 GT ISZERO PUSH2 0x3D6E JUMPI PUSH2 0x3D6D PUSH2 0x39F8 JUMP JUMPDEST JUMPDEST SWAP3 SWAP2 POP POP JUMP JUMPDEST PUSH32 0x51756F72696F6E3A205375626D697373696F6E206E6F7420666F756E64000000 PUSH1 0x0 DUP3 ADD MSTORE POP JUMP JUMPDEST PUSH1 0x0 PUSH2 0x3DAA PUSH1 0x1D DUP4 PUSH2 0x2765 JUMP JUMPDEST SWAP2 POP PUSH2 0x3DB5 DUP3 PUSH2 0x3D74 JUMP JUMPDEST PUSH1 0x20 DUP3 ADD SWAP1 POP SWAP2 SWAP1 POP JUMP JUMPDEST PUSH1 0x0 PUSH1 0x20 DUP3 ADD SWAP1 POP DUP2 DUP2 SUB PUSH1 0x0 DUP4 ADD MSTORE PUSH2 0x3DD9 DUP2 PUSH2 0x3D9D JUMP JUMPDEST SWAP1 POP SWAP2 SWAP1 POP JUMP JUMPDEST PUSH32 0x51756F72696F6E3A205375626D697373696F6E20616C72656164792076616C69 PUSH1 0x0 DUP3 ADD MSTORE PUSH32 0x6461746564000000000000000000000000000000000000000000000000000000 PUSH1 0x20 DUP3 ADD MSTORE POP JUMP JUMPDEST PUSH1 0x0 PUSH2 0x3E3C PUSH1 0x25 DUP4 PUSH2 0x2765 JUMP JUMPDEST SWAP2 POP PUSH2 0x3E47 DUP3 PUSH2 0x3DE0 JUMP JUMPDEST PUSH1 0x40 DUP3 ADD SWAP1 POP SWAP2 SWAP1 POP JUMP JUMPDEST PUSH1 0x0 PUSH1 0x20 DUP3 ADD SWAP1 POP DUP2 DUP2 SUB PUSH1 0x0 DUP4 ADD MSTORE PUSH2 0x3E6B DUP2 PUSH2 0x3E2F JUMP JUMPDEST SWAP1 POP SWAP2 SWAP1 POP JUMP JUMPDEST PUSH32 0x51756F72696F6E3A204173736F636961746564206D697373696F6E206E6F7420 PUSH1 0x0 DUP3 ADD MSTORE PUSH32 0x666F756E64000000000000000000000000000000000000000000000000000000 PUSH1 0x20 DUP3 ADD MSTORE POP JUMP JUMPDEST PUSH1 0x0 PUSH2 0x3ECE PUSH1 0x25 DUP4 PUSH2 0x2765 JUMP JUMPDEST SWAP2 POP PUSH2 0x3ED9 DUP3 PUSH2 0x3E72 JUMP JUMPDEST PUSH1 0x40 DUP3 ADD SWAP1 POP SWAP2 SWAP1 POP JUMP JUMPDEST PUSH1 0x0 PUSH1 0x20 DUP3 ADD SWAP1 POP DUP2 DUP2 SUB PUSH1 0x0 DUP4 ADD MSTORE PUSH2 0x3EFD DUP2 PUSH2 0x3EC1 JUMP JUMPDEST SWAP1 POP SWAP2 SWAP1 POP JUMP JUMPDEST PUSH1 0x0 PUSH1 0x20 DUP3 ADD SWAP1 POP PUSH2 0x3F19 PUSH1 0x0 DUP4 ADD DUP5 PUSH2 0x31D0 JUMP JUMPDEST SWAP3 SWAP2 POP POP JUMP JUMPDEST PUSH32 0x51756F72696F6E3A2046544E207472616E73666572206661696C656400000000 PUSH1 0x0 DUP3 ADD MSTORE POP JUMP JUMPDEST PUSH1 0x0 PUSH2 0x3F55 PUSH1 0x1C DUP4 PUSH2 0x2765 JUMP JUMPDEST SWAP2 POP PUSH2 0x3F60 DUP3 PUSH2 0x3F1F JUMP JUMPDEST PUSH1 0x20 DUP3 ADD SWAP1 POP SWAP2 SWAP1 POP JUMP JUMPDEST PUSH1 0x0 PUSH1 0x20 DUP3 ADD SWAP1 POP DUP2 DUP2 SUB PUSH1 0x0 DUP4 ADD MSTORE PUSH2 0x3F84 DUP2 PUSH2 0x3F48 JUMP JUMPDEST SWAP1 POP SWAP2 SWAP1 POP JUMP JUMPDEST PUSH32 0x51756F72696F6E3A204D697373696F6E206E6F7420666F756E64000000000000 PUSH1 0x0 DUP3 ADD MSTORE POP JUMP JUMPDEST PUSH1 0x0 PUSH2 0x3FC1 PUSH1 0x1A DUP4 PUSH2 0x2765 JUMP JUMPDEST SWAP2 POP PUSH2 0x3FCC DUP3 PUSH2 0x3F8B JUMP JUMPDEST PUSH1 0x20 DUP3 ADD SWAP1 POP SWAP2 SWAP1 POP JUMP JUMPDEST PUSH1 0x0 PUSH1 0x20 DUP3 ADD SWAP1 POP DUP2 DUP2 SUB PUSH1 0x0 DUP4 ADD MSTORE PUSH2 0x3FF0 DUP2 PUSH2 0x3FB4 JUMP JUMPDEST SWAP1 POP SWAP2 SWAP1 POP JUMP JUMPDEST PUSH32 0x51756F72696F6E3A204D697373696F6E206973206E6F74206163746976652C20 PUSH1 0x0 DUP3 ADD MSTORE PUSH32 0x63616E6E6F74207375626D697400000000000000000000000000000000000000 PUSH1 0x20 DUP3 ADD MSTORE POP JUMP JUMPDEST PUSH1 0x0 PUSH2 0x4053 PUSH1 0x2D DUP4 PUSH2 0x2765 JUMP JUMPDEST SWAP2 POP PUSH2 0x405E DUP3 PUSH2 0x3FF7 JUMP JUMPDEST PUSH1 0x40 DUP3 ADD SWAP1 POP SWAP2 SWAP1 POP JUMP JUMPDEST PUSH1 0x0 PUSH1 0x20 DUP3 ADD SWAP1 POP DUP2 DUP2 SUB PUSH1 0x0 DUP4 ADD MSTORE PUSH2 0x4082 DUP2 PUSH2 0x4046 JUMP JUMPDEST SWAP1 POP SWAP2 SWAP1 POP JUMP JUMPDEST PUSH32 0x51756F72696F6E3A204174206C65617374206F6E6520696D6167652055524C20 PUSH1 0x0 DUP3 ADD MSTORE PUSH32 0x7265717569726564000000000000000000000000000000000000000000000000 PUSH1 0x20 DUP3 ADD MSTORE POP JUMP JUMPDEST PUSH1 0x0 PUSH2 0x40E5 PUSH1 0x28 DUP4 PUSH2 0x2765 JUMP JUMPDEST SWAP2 POP PUSH2 0x40F0 DUP3 PUSH2 0x4089 JUMP JUMPDEST PUSH1 0x40 DUP3 ADD SWAP1 POP SWAP2 SWAP1 POP JUMP JUMPDEST PUSH1 0x0 PUSH1 0x20 DUP3 ADD SWAP1 POP DUP2 DUP2 SUB PUSH1 0x0 DUP4 ADD MSTORE PUSH2 0x4114 DUP2 PUSH2 0x40D8 JUMP JUMPDEST SWAP1 POP SWAP2 SWAP1 POP JUMP JUMPDEST PUSH1 0x0 DUP3 DUP3 MSTORE PUSH1 0x20 DUP3 ADD SWAP1 POP SWAP3 SWAP2 POP POP JUMP JUMPDEST PUSH1 0x0 PUSH2 0x4137 DUP3 PUSH2 0x2C22 JUMP JUMPDEST PUSH2 0x4141 DUP2 DUP6 PUSH2 0x411B JUMP JUMPDEST SWAP4 POP DUP4 PUSH1 0x20 DUP3 MUL DUP6 ADD PUSH2 0x4153 DUP6 PUSH2 0x2C3E JUMP JUMPDEST DUP1 PUSH1 0x0 JUMPDEST DUP6 DUP2 LT ISZERO PUSH2 0x418F JUMPI DUP5 DUP5 SUB DUP10 MSTORE DUP2 MLOAD PUSH2 0x4170 DUP6 DUP3 PUSH2 0x2C98 JUMP JUMPDEST SWAP5 POP PUSH2 0x417B DUP4 PUSH2 0x2CAC JUMP JUMPDEST SWAP3 POP PUSH1 0x20 DUP11 ADD SWAP10 POP POP PUSH1 0x1 DUP2 ADD SWAP1 POP PUSH2 0x4157 JUMP JUMPDEST POP DUP3 SWAP8 POP DUP8 SWAP6 POP POP POP POP POP POP SWAP3 SWAP2 POP POP JUMP JUMPDEST PUSH1 0x0 PUSH1 0x20 DUP3 ADD SWAP1 POP DUP2 DUP2 SUB PUSH1 0x0 DUP4 ADD MSTORE PUSH2 0x41BB DUP2 DUP5 PUSH2 0x412C JUMP JUMPDEST SWAP1 POP SWAP3 SWAP2 POP POP JUMP JUMPDEST PUSH32 0x51756F72696F6E3A204E6F7420617574686F72697A656420746F206368616E67 PUSH1 0x0 DUP3 ADD MSTORE PUSH32 0x6520737461747573000000000000000000000000000000000000000000000000 PUSH1 0x20 DUP3 ADD MSTORE POP JUMP JUMPDEST PUSH1 0x0 PUSH2 0x421F PUSH1 0x28 DUP4 PUSH2 0x2765 JUMP JUMPDEST SWAP2 POP PUSH2 0x422A DUP3 PUSH2 0x41C3 JUMP JUMPDEST PUSH1 0x40 DUP3 ADD SWAP1 POP SWAP2 SWAP1 POP JUMP JUMPDEST PUSH1 0x0 PUSH1 0x20 DUP3 ADD SWAP1 POP DUP2 DUP2 SUB PUSH1 0x0 DUP4 ADD MSTORE PUSH2 0x424E DUP2 PUSH2 0x4212 JUMP JUMPDEST SWAP1 POP SWAP2 SWAP1 POP JUMP JUMPDEST PUSH1 0x0 PUSH1 0x40 DUP3 ADD SWAP1 POP PUSH2 0x426A PUSH1 0x0 DUP4 ADD DUP6 PUSH2 0x2A60 JUMP JUMPDEST PUSH2 0x4277 PUSH1 0x20 DUP4 ADD DUP5 PUSH2 0x29E8 JUMP JUMPDEST SWAP4 SWAP3 POP POP POP JUMP INVALID LOG2 PUSH5 0x6970667358 0x22 SLT KECCAK256 BLOCKHASH DUP13 CHAINID BASEFEE DUP2 0xE GAS 0x4F 0xCF AND PUSH14 0xDB4918F1B1AF9F34BC3A9E344AE2 MSIZE SWAP14 SLOAD PUSH13 0xED4AF164736F6C634300081400 CALLER "
        },
        "methodIdentifiers": {
          "DEFAULT_ADMIN_ROLE()": "a217fddf",
          "MAX_REWARD_POOL()": "47304d86",
          "VALIDATOR_ROLE()": "c49baebe",
          "addValidator(address)": "4d238c8e",
          "createMission(string,string,uint256)": "54ffc90c",
          "emergencyWithdrawFTN(address,uint256)": "12075a17",
          "getContractFTNBalance()": "e211e4a4",
          "getMission(uint256)": "eb2b94b5",
          "getMissionCount()": "d64f8869",
          "getRoleAdmin(bytes32)": "248a9ca3",
          "getSubmission(uint256)": "3e8686cc",
          "getSubmissionCount()": "9999d2ae",
          "getSubmissionsByUser(address)": "b9011523",
          "getSubmissionsForMission(uint256)": "4a56e45b",
          "grantRole(bytes32,address)": "2f2ff15d",
          "hasRole(bytes32,address)": "91d14854",
          "isValidator(address)": "facd743b",
          "missionSubmissions(uint256,uint256)": "7e6acdf8",
          "missions(uint256)": "2c8fe526",
          "removeValidator(address)": "40a141ff",
          "renounceRole(bytes32,address)": "36568abe",
          "revokeRole(bytes32,address)": "d547741f",
          "setMissionActiveStatus(uint256,bool)": "ee10c370",
          "submissions(uint256)": "ad73349e",
          "submitData(uint256,string[])": "e694e2b7",
          "supportsInterface(bytes4)": "01ffc9a7",
          "userSubmissions(address,uint256)": "9b7e0180",
          "validateSubmission(uint256,bool)": "cf14522b"
        }
      }
    }
  }
}